{
    "abi": [
        {
            "anonymous": false,
            "inputs": [
                {
                    "indexed": false,
                    "internalType": "address",
                    "name": "id",
                    "type": "address"
                },
                {
                    "indexed": false,
                    "internalType": "string",
                    "name": "doc",
                    "type": "string"
                }
            ],
            "name": "DidCreated",
            "type": "event"
        },
        {
            "anonymous": false,
            "inputs": [
                {
                    "indexed": false,
                    "internalType": "address",
                    "name": "id",
                    "type": "address"
                }
            ],
            "name": "DidDeleted",
            "type": "event"
        },
        {
            "anonymous": false,
            "inputs": [
                {
                    "indexed": false,
                    "internalType": "address",
                    "name": "id",
                    "type": "address"
                },
                {
                    "indexed": false,
                    "internalType": "string",
                    "name": "doc",
                    "type": "string"
                }
            ],
            "name": "DidUpdated",
            "type": "event"
        },
        {
            "anonymous": false,
            "inputs": [
                {
                    "indexed": false,
                    "internalType": "address",
                    "name": "newOwner",
                    "type": "address"
                }
            ],
            "name": "TransferOwnership",
            "type": "event"
        },
        {
            "inputs": [
                {
                    "internalType": "address",
                    "name": "_id",
                    "type": "address"
                },
                {
                    "internalType": "string",
                    "name": "_doc",
                    "type": "string"
                }
            ],
            "name": "createDID",
            "outputs": [
                {
                    "internalType": "address",
                    "name": "controller",
                    "type": "address"
                },
                {
                    "internalType": "uint256",
                    "name": "created",
                    "type": "uint256"
                },
                {
                    "internalType": "uint256",
                    "name": "updated",
                    "type": "uint256"
                },
                {
                    "internalType": "string",
                    "name": "did_doc",
                    "type": "string"
                }
            ],
            "stateMutability": "nonpayable",
            "type": "function"
        },
        {
            "inputs": [
                {
                    "internalType": "address",
                    "name": "_id",
                    "type": "address"
                }
            ],
            "name": "deleteDID",
            "outputs": [],
            "stateMutability": "nonpayable",
            "type": "function"
        },
        {
            "inputs": [
                {
                    "internalType": "address",
                    "name": "_id",
                    "type": "address"
                }
            ],
            "name": "getDID",
            "outputs": [
                {
                    "internalType": "string",
                    "name": "",
                    "type": "string"
                }
            ],
            "stateMutability": "view",
            "type": "function"
        },
        {
            "inputs": [],
            "name": "getOwner",
            "outputs": [
                {
                    "internalType": "address",
                    "name": "_owner",
                    "type": "address"
                }
            ],
            "stateMutability": "view",
            "type": "function"
        },
        {
            "inputs": [],
            "name": "initialize",
            "outputs": [],
            "stateMutability": "nonpayable",
            "type": "function"
        },
        {
            "inputs": [
                {
                    "internalType": "address",
                    "name": "_newOwner",
                    "type": "address"
                }
            ],
            "name": "transferOwnership",
            "outputs": [
                {
                    "internalType": "string",
                    "name": "",
                    "type": "string"
                }
            ],
            "stateMutability": "nonpayable",
            "type": "function"
        },
        {
            "inputs": [
                {
                    "internalType": "address",
                    "name": "_id",
                    "type": "address"
                },
                {
                    "internalType": "string",
                    "name": "_doc",
                    "type": "string"
                }
            ],
            "name": "updateDID",
            "outputs": [
                {
                    "internalType": "address",
                    "name": "controller",
                    "type": "address"
                },
                {
                    "internalType": "uint256",
                    "name": "created",
                    "type": "uint256"
                },
                {
                    "internalType": "uint256",
                    "name": "updated",
                    "type": "uint256"
                },
                {
                    "internalType": "string",
                    "name": "did_doc",
                    "type": "string"
                }
            ],
            "stateMutability": "nonpayable",
            "type": "function"
        }
    ],
    "devdoc": {
        "details": "Smart Contract for Polygon DID Method",
        "kind": "dev",
        "methods": {
            "createDID(address,string)": {
                "details": "Register a new DID",
                "params": {
                    "_doc": "- A string object that holds the DID Doc",
                    "_id": "- Address that will refer the DID doc"
                }
            },
            "deleteDID(address)": {
                "details": "To delete a DID from chain",
                "params": {
                    "_id": "- Address that refers to the DID doc that need to be deleted"
                }
            },
            "getDID(address)": {
                "details": "Reads DID Doc from Chain",
                "params": {
                    "_id": "- Address that refers to the DID doc position"
                }
            },
            "getOwner()": {
                "details": "Reads contract owner from chain"
            },
            "transferOwnership(address)": {
                "details": "transfer the ownership of contract",
                "params": {
                    "_newOwner": "- Address of the new owner to whom the ownership needs to be passed*"
                }
            },
            "updateDID(address,string)": {
                "details": "To Update the DID doc",
                "params": {
                    "_doc": "- A String that holds the DID doc",
                    "_id": "- Address that refers to the DID doc"
                }
            }
        },
        "title": "PolygonDidRegistry",
        "version": 1
    },
    "evm": {
        "assembly": "    /* \"PolygonDidRegistry.sol\":286:3547  contract PolygonDidRegistry {... */\n  mstore(0x40, 0x80)\n  callvalue\n  dup1\n  iszero\n  tag_1\n  jumpi\n  0x00\n  dup1\n  revert\ntag_1:\n  pop\n  dataSize(sub_0)\n  dup1\n  dataOffset(sub_0)\n  0x00\n  codecopy\n  0x00\n  return\nstop\n\nsub_0: assembly {\n        /* \"PolygonDidRegistry.sol\":286:3547  contract PolygonDidRegistry {... */\n      mstore(0x40, 0x80)\n      callvalue\n      dup1\n      iszero\n      tag_1\n      jumpi\n      0x00\n      dup1\n      revert\n    tag_1:\n      pop\n      jumpi(tag_2, lt(calldatasize, 0x04))\n      shr(0xe0, calldataload(0x00))\n      dup1\n      0x8129fc1c\n      gt\n      tag_10\n      jumpi\n      dup1\n      0x8129fc1c\n      eq\n      tag_6\n      jumpi\n      dup1\n      0x893d20e8\n      eq\n      tag_7\n      jumpi\n      dup1\n      0xf2fde38b\n      eq\n      tag_8\n      jumpi\n      dup1\n      0xf64e30b0\n      eq\n      tag_9\n      jumpi\n      jump(tag_2)\n    tag_10:\n      dup1\n      0x25f2ac62\n      eq\n      tag_3\n      jumpi\n      dup1\n      0x63d61166\n      eq\n      tag_4\n      jumpi\n      dup1\n      0x7f52e0a7\n      eq\n      tag_5\n      jumpi\n    tag_2:\n      0x00\n      dup1\n      revert\n        /* \"PolygonDidRegistry.sol\":2890:3286  function updateDID(address _id, string memory _doc)... */\n    tag_3:\n      tag_11\n      0x04\n      dup1\n      calldatasize\n      sub\n      dup2\n      add\n      swap1\n      tag_12\n      swap2\n      swap1\n      tag_13\n      jump\t// in\n    tag_12:\n      tag_14\n      jump\t// in\n    tag_11:\n      mload(0x40)\n      tag_15\n      swap5\n      swap4\n      swap3\n      swap2\n      swap1\n      tag_16\n      jump\t// in\n    tag_15:\n      mload(0x40)\n      dup1\n      swap2\n      sub\n      swap1\n      return\n        /* \"PolygonDidRegistry.sol\":2040:2503  function createDID(address _id, string memory _doc)... */\n    tag_4:\n      tag_17\n      0x04\n      dup1\n      calldatasize\n      sub\n      dup2\n      add\n      swap1\n      tag_18\n      swap2\n      swap1\n      tag_13\n      jump\t// in\n    tag_18:\n      tag_19\n      jump\t// in\n    tag_17:\n      mload(0x40)\n      tag_20\n      swap5\n      swap4\n      swap3\n      swap2\n      swap1\n      tag_16\n      jump\t// in\n    tag_20:\n      mload(0x40)\n      dup1\n      swap2\n      sub\n      swap1\n      return\n        /* \"PolygonDidRegistry.sol\":3424:3545  function deleteDID(address _id) public onlyController(_id) {... */\n    tag_5:\n      tag_21\n      0x04\n      dup1\n      calldatasize\n      sub\n      dup2\n      add\n      swap1\n      tag_22\n      swap2\n      swap1\n      tag_23\n      jump\t// in\n    tag_22:\n      tag_24\n      jump\t// in\n    tag_21:\n      stop\n        /* \"PolygonDidRegistry.sol\":905:1078  function initialize() public {... */\n    tag_6:\n      tag_25\n      tag_26\n      jump\t// in\n    tag_25:\n      stop\n        /* \"PolygonDidRegistry.sol\":1789:1874  function getOwner() public view returns (address _owner){... */\n    tag_7:\n      tag_27\n      tag_28\n      jump\t// in\n    tag_27:\n      mload(0x40)\n      tag_29\n      swap2\n      swap1\n      tag_30\n      jump\t// in\n    tag_29:\n      mload(0x40)\n      dup1\n      swap2\n      sub\n      swap1\n      return\n        /* \"PolygonDidRegistry.sol\":1353:1724  function transferOwnership(address _newOwner)public onlyOwner() returns (string memory){... */\n    tag_8:\n      tag_31\n      0x04\n      dup1\n      calldatasize\n      sub\n      dup2\n      add\n      swap1\n      tag_32\n      swap2\n      swap1\n      tag_23\n      jump\t// in\n    tag_32:\n      tag_33\n      jump\t// in\n    tag_31:\n      mload(0x40)\n      tag_34\n      swap2\n      swap1\n      tag_35\n      jump\t// in\n    tag_34:\n      mload(0x40)\n      dup1\n      swap2\n      sub\n      swap1\n      return\n        /* \"PolygonDidRegistry.sol\":2624:2729  function getDID(address _id) public view returns (string memory) {... */\n    tag_9:\n      tag_36\n      0x04\n      dup1\n      calldatasize\n      sub\n      dup2\n      add\n      swap1\n      tag_37\n      swap2\n      swap1\n      tag_23\n      jump\t// in\n    tag_37:\n      tag_38\n      jump\t// in\n    tag_36:\n      mload(0x40)\n      tag_39\n      swap2\n      swap1\n      tag_35\n      jump\t// in\n    tag_39:\n      mload(0x40)\n      dup1\n      swap2\n      sub\n      swap1\n      return\n        /* \"PolygonDidRegistry.sol\":2890:3286  function updateDID(address _id, string memory _doc)... */\n    tag_14:\n        /* \"PolygonDidRegistry.sol\":2993:3011  address controller */\n      0x00\n        /* \"PolygonDidRegistry.sol\":3013:3028  uint256 created */\n      dup1\n        /* \"PolygonDidRegistry.sol\":3030:3045  uint256 updated */\n      0x00\n        /* \"PolygonDidRegistry.sol\":3047:3068  string memory did_doc */\n      0x60\n        /* \"PolygonDidRegistry.sol\":2980:2983  _id */\n      dup6\n        /* \"PolygonDidRegistry.sol\":561:571  msg.sender */\n      caller\n        /* \"PolygonDidRegistry.sol\":538:571  did[_id].controller == msg.sender */\n      0xffffffffffffffffffffffffffffffffffffffff\n      and\n        /* \"PolygonDidRegistry.sol\":538:541  did */\n      0x01\n        /* \"PolygonDidRegistry.sol\":538:546  did[_id] */\n      0x00\n        /* \"PolygonDidRegistry.sol\":542:545  _id */\n      dup4\n        /* \"PolygonDidRegistry.sol\":538:546  did[_id] */\n      0xffffffffffffffffffffffffffffffffffffffff\n      and\n      0xffffffffffffffffffffffffffffffffffffffff\n      and\n      dup2\n      mstore\n      0x20\n      add\n      swap1\n      dup2\n      mstore\n      0x20\n      add\n      0x00\n      keccak256\n        /* \"PolygonDidRegistry.sol\":538:557  did[_id].controller */\n      0x00\n      add\n      0x00\n      swap1\n      sload\n      swap1\n      0x0100\n      exp\n      swap1\n      div\n      0xffffffffffffffffffffffffffffffffffffffff\n      and\n        /* \"PolygonDidRegistry.sol\":538:571  did[_id].controller == msg.sender */\n      0xffffffffffffffffffffffffffffffffffffffff\n      and\n      eq\n        /* \"PolygonDidRegistry.sol\":517:636  require(... */\n      tag_41\n      jumpi\n      mload(0x40)\n      0x08c379a000000000000000000000000000000000000000000000000000000000\n      dup2\n      mstore\n      0x04\n      add\n      tag_42\n      swap1\n      tag_43\n      jump\t// in\n    tag_42:\n      mload(0x40)\n      dup1\n      swap2\n      sub\n      swap1\n      revert\n    tag_41:\n        /* \"PolygonDidRegistry.sol\":3103:3107  _doc */\n      dup6\n        /* \"PolygonDidRegistry.sol\":3084:3087  did */\n      0x01\n        /* \"PolygonDidRegistry.sol\":3084:3092  did[_id] */\n      0x00\n        /* \"PolygonDidRegistry.sol\":3088:3091  _id */\n      dup10\n        /* \"PolygonDidRegistry.sol\":3084:3092  did[_id] */\n      0xffffffffffffffffffffffffffffffffffffffff\n      and\n      0xffffffffffffffffffffffffffffffffffffffff\n      and\n      dup2\n      mstore\n      0x20\n      add\n      swap1\n      dup2\n      mstore\n      0x20\n      add\n      0x00\n      keccak256\n        /* \"PolygonDidRegistry.sol\":3084:3100  did[_id].did_doc */\n      0x03\n      add\n        /* \"PolygonDidRegistry.sol\":3084:3107  did[_id].did_doc = _doc */\n      swap1\n      dup1\n      mload\n      swap1\n      0x20\n      add\n      swap1\n      tag_45\n      swap3\n      swap2\n      swap1\n      tag_46\n      jump\t// in\n    tag_45:\n      pop\n        /* \"PolygonDidRegistry.sol\":3136:3151  block.timestamp */\n      timestamp\n        /* \"PolygonDidRegistry.sol\":3117:3120  did */\n      0x01\n        /* \"PolygonDidRegistry.sol\":3117:3125  did[_id] */\n      0x00\n        /* \"PolygonDidRegistry.sol\":3121:3124  _id */\n      dup10\n        /* \"PolygonDidRegistry.sol\":3117:3125  did[_id] */\n      0xffffffffffffffffffffffffffffffffffffffff\n      and\n      0xffffffffffffffffffffffffffffffffffffffff\n      and\n      dup2\n      mstore\n      0x20\n      add\n      swap1\n      dup2\n      mstore\n      0x20\n      add\n      0x00\n      keccak256\n        /* \"PolygonDidRegistry.sol\":3117:3133  did[_id].updated */\n      0x02\n      add\n        /* \"PolygonDidRegistry.sol\":3117:3151  did[_id].updated = block.timestamp */\n      dup2\n      swap1\n      sstore\n      pop\n        /* \"PolygonDidRegistry.sol\":3166:3187  DidUpdated(_id, _doc) */\n      0x2312318cda72db25202ee216222e615408e4d11837ed3f089f89c86de702e696\n        /* \"PolygonDidRegistry.sol\":3177:3180  _id */\n      dup8\n        /* \"PolygonDidRegistry.sol\":3182:3186  _doc */\n      dup8\n        /* \"PolygonDidRegistry.sol\":3166:3187  DidUpdated(_id, _doc) */\n      mload(0x40)\n      tag_47\n      swap3\n      swap2\n      swap1\n      tag_48\n      jump\t// in\n    tag_47:\n      mload(0x40)\n      dup1\n      swap2\n      sub\n      swap1\n      log1\n        /* \"PolygonDidRegistry.sol\":3205:3208  did */\n      0x01\n        /* \"PolygonDidRegistry.sol\":3205:3213  did[_id] */\n      0x00\n        /* \"PolygonDidRegistry.sol\":3209:3212  _id */\n      dup9\n        /* \"PolygonDidRegistry.sol\":3205:3213  did[_id] */\n      0xffffffffffffffffffffffffffffffffffffffff\n      and\n      0xffffffffffffffffffffffffffffffffffffffff\n      and\n      dup2\n      mstore\n      0x20\n      add\n      swap1\n      dup2\n      mstore\n      0x20\n      add\n      0x00\n      keccak256\n        /* \"PolygonDidRegistry.sol\":3205:3224  did[_id].controller */\n      0x00\n      add\n      0x00\n      swap1\n      sload\n      swap1\n      0x0100\n      exp\n      swap1\n      div\n      0xffffffffffffffffffffffffffffffffffffffff\n      and\n        /* \"PolygonDidRegistry.sol\":3226:3229  did */\n      0x01\n        /* \"PolygonDidRegistry.sol\":3226:3234  did[_id] */\n      0x00\n        /* \"PolygonDidRegistry.sol\":3230:3233  _id */\n      dup10\n        /* \"PolygonDidRegistry.sol\":3226:3234  did[_id] */\n      0xffffffffffffffffffffffffffffffffffffffff\n      and\n      0xffffffffffffffffffffffffffffffffffffffff\n      and\n      dup2\n      mstore\n      0x20\n      add\n      swap1\n      dup2\n      mstore\n      0x20\n      add\n      0x00\n      keccak256\n        /* \"PolygonDidRegistry.sol\":3226:3242  did[_id].created */\n      0x01\n      add\n      sload\n        /* \"PolygonDidRegistry.sol\":3244:3247  did */\n      0x01\n        /* \"PolygonDidRegistry.sol\":3244:3252  did[_id] */\n      0x00\n        /* \"PolygonDidRegistry.sol\":3248:3251  _id */\n      dup11\n        /* \"PolygonDidRegistry.sol\":3244:3252  did[_id] */\n      0xffffffffffffffffffffffffffffffffffffffff\n      and\n      0xffffffffffffffffffffffffffffffffffffffff\n      and\n      dup2\n      mstore\n      0x20\n      add\n      swap1\n      dup2\n      mstore\n      0x20\n      add\n      0x00\n      keccak256\n        /* \"PolygonDidRegistry.sol\":3244:3260  did[_id].updated */\n      0x02\n      add\n      sload\n        /* \"PolygonDidRegistry.sol\":3262:3265  did */\n      0x01\n        /* \"PolygonDidRegistry.sol\":3262:3270  did[_id] */\n      0x00\n        /* \"PolygonDidRegistry.sol\":3266:3269  _id */\n      dup12\n        /* \"PolygonDidRegistry.sol\":3262:3270  did[_id] */\n      0xffffffffffffffffffffffffffffffffffffffff\n      and\n      0xffffffffffffffffffffffffffffffffffffffff\n      and\n      dup2\n      mstore\n      0x20\n      add\n      swap1\n      dup2\n      mstore\n      0x20\n      add\n      0x00\n      keccak256\n        /* \"PolygonDidRegistry.sol\":3262:3278  did[_id].did_doc */\n      0x03\n      add\n        /* \"PolygonDidRegistry.sol\":3197:3279  return (did[_id].controller, did[_id].created, did[_id].updated, did[_id].did_doc) */\n      dup1\n      dup1\n      sload\n      tag_49\n      swap1\n      tag_50\n      jump\t// in\n    tag_49:\n      dup1\n      0x1f\n      add\n      0x20\n      dup1\n      swap2\n      div\n      mul\n      0x20\n      add\n      mload(0x40)\n      swap1\n      dup2\n      add\n      0x40\n      mstore\n      dup1\n      swap3\n      swap2\n      swap1\n      dup2\n      dup2\n      mstore\n      0x20\n      add\n      dup3\n      dup1\n      sload\n      tag_51\n      swap1\n      tag_50\n      jump\t// in\n    tag_51:\n      dup1\n      iszero\n      tag_52\n      jumpi\n      dup1\n      0x1f\n      lt\n      tag_53\n      jumpi\n      0x0100\n      dup1\n      dup4\n      sload\n      div\n      mul\n      dup4\n      mstore\n      swap2\n      0x20\n      add\n      swap2\n      jump(tag_52)\n    tag_53:\n      dup3\n      add\n      swap2\n      swap1\n      0x00\n      mstore\n      keccak256(0x00, 0x20)\n      swap1\n    tag_54:\n      dup2\n      sload\n      dup2\n      mstore\n      swap1\n      0x01\n      add\n      swap1\n      0x20\n      add\n      dup1\n      dup4\n      gt\n      tag_54\n      jumpi\n      dup3\n      swap1\n      sub\n      0x1f\n      and\n      dup3\n      add\n      swap2\n    tag_52:\n      pop\n      pop\n      pop\n      pop\n      pop\n      swap1\n      pop\n      swap5\n      pop\n      swap5\n      pop\n      swap5\n      pop\n      swap5\n      pop\n        /* \"PolygonDidRegistry.sol\":2890:3286  function updateDID(address _id, string memory _doc)... */\n      pop\n      swap3\n      swap6\n      swap2\n      swap5\n      pop\n      swap3\n      pop\n      jump\t// out\n        /* \"PolygonDidRegistry.sol\":2040:2503  function createDID(address _id, string memory _doc)... */\n    tag_19:\n        /* \"PolygonDidRegistry.sol\":2124:2142  address controller */\n      0x00\n        /* \"PolygonDidRegistry.sol\":2144:2159  uint256 created */\n      dup1\n        /* \"PolygonDidRegistry.sol\":2161:2176  uint256 updated */\n      0x00\n        /* \"PolygonDidRegistry.sol\":2178:2199  string memory did_doc */\n      0x60\n        /* \"PolygonDidRegistry.sol\":2237:2247  msg.sender */\n      caller\n        /* \"PolygonDidRegistry.sol\":2215:2218  did */\n      0x01\n        /* \"PolygonDidRegistry.sol\":2215:2223  did[_id] */\n      0x00\n        /* \"PolygonDidRegistry.sol\":2219:2222  _id */\n      dup9\n        /* \"PolygonDidRegistry.sol\":2215:2223  did[_id] */\n      0xffffffffffffffffffffffffffffffffffffffff\n      and\n      0xffffffffffffffffffffffffffffffffffffffff\n      and\n      dup2\n      mstore\n      0x20\n      add\n      swap1\n      dup2\n      mstore\n      0x20\n      add\n      0x00\n      keccak256\n        /* \"PolygonDidRegistry.sol\":2215:2234  did[_id].controller */\n      0x00\n      add\n      0x00\n        /* \"PolygonDidRegistry.sol\":2215:2247  did[_id].controller = msg.sender */\n      0x0100\n      exp\n      dup2\n      sload\n      dup2\n      0xffffffffffffffffffffffffffffffffffffffff\n      mul\n      not\n      and\n      swap1\n      dup4\n      0xffffffffffffffffffffffffffffffffffffffff\n      and\n      mul\n      or\n      swap1\n      sstore\n      pop\n        /* \"PolygonDidRegistry.sol\":2276:2291  block.timestamp */\n      timestamp\n        /* \"PolygonDidRegistry.sol\":2257:2260  did */\n      0x01\n        /* \"PolygonDidRegistry.sol\":2257:2265  did[_id] */\n      0x00\n        /* \"PolygonDidRegistry.sol\":2261:2264  _id */\n      dup9\n        /* \"PolygonDidRegistry.sol\":2257:2265  did[_id] */\n      0xffffffffffffffffffffffffffffffffffffffff\n      and\n      0xffffffffffffffffffffffffffffffffffffffff\n      and\n      dup2\n      mstore\n      0x20\n      add\n      swap1\n      dup2\n      mstore\n      0x20\n      add\n      0x00\n      keccak256\n        /* \"PolygonDidRegistry.sol\":2257:2273  did[_id].created */\n      0x01\n      add\n        /* \"PolygonDidRegistry.sol\":2257:2291  did[_id].created = block.timestamp */\n      dup2\n      swap1\n      sstore\n      pop\n        /* \"PolygonDidRegistry.sol\":2320:2335  block.timestamp */\n      timestamp\n        /* \"PolygonDidRegistry.sol\":2301:2304  did */\n      0x01\n        /* \"PolygonDidRegistry.sol\":2301:2309  did[_id] */\n      0x00\n        /* \"PolygonDidRegistry.sol\":2305:2308  _id */\n      dup9\n        /* \"PolygonDidRegistry.sol\":2301:2309  did[_id] */\n      0xffffffffffffffffffffffffffffffffffffffff\n      and\n      0xffffffffffffffffffffffffffffffffffffffff\n      and\n      dup2\n      mstore\n      0x20\n      add\n      swap1\n      dup2\n      mstore\n      0x20\n      add\n      0x00\n      keccak256\n        /* \"PolygonDidRegistry.sol\":2301:2317  did[_id].updated */\n      0x02\n      add\n        /* \"PolygonDidRegistry.sol\":2301:2335  did[_id].updated = block.timestamp */\n      dup2\n      swap1\n      sstore\n      pop\n        /* \"PolygonDidRegistry.sol\":2364:2368  _doc */\n      dup5\n        /* \"PolygonDidRegistry.sol\":2345:2348  did */\n      0x01\n        /* \"PolygonDidRegistry.sol\":2345:2353  did[_id] */\n      0x00\n        /* \"PolygonDidRegistry.sol\":2349:2352  _id */\n      dup9\n        /* \"PolygonDidRegistry.sol\":2345:2353  did[_id] */\n      0xffffffffffffffffffffffffffffffffffffffff\n      and\n      0xffffffffffffffffffffffffffffffffffffffff\n      and\n      dup2\n      mstore\n      0x20\n      add\n      swap1\n      dup2\n      mstore\n      0x20\n      add\n      0x00\n      keccak256\n        /* \"PolygonDidRegistry.sol\":2345:2361  did[_id].did_doc */\n      0x03\n      add\n        /* \"PolygonDidRegistry.sol\":2345:2368  did[_id].did_doc = _doc */\n      swap1\n      dup1\n      mload\n      swap1\n      0x20\n      add\n      swap1\n      tag_56\n      swap3\n      swap2\n      swap1\n      tag_46\n      jump\t// in\n    tag_56:\n      pop\n        /* \"PolygonDidRegistry.sol\":2383:2404  DidCreated(_id, _doc) */\n      0xf62ed34d06386344717282b704861a00fb3ee41805873a1db48f7c7d1ae532da\n        /* \"PolygonDidRegistry.sol\":2394:2397  _id */\n      dup7\n        /* \"PolygonDidRegistry.sol\":2399:2403  _doc */\n      dup7\n        /* \"PolygonDidRegistry.sol\":2383:2404  DidCreated(_id, _doc) */\n      mload(0x40)\n      tag_57\n      swap3\n      swap2\n      swap1\n      tag_48\n      jump\t// in\n    tag_57:\n      mload(0x40)\n      dup1\n      swap2\n      sub\n      swap1\n      log1\n        /* \"PolygonDidRegistry.sol\":2422:2425  did */\n      0x01\n        /* \"PolygonDidRegistry.sol\":2422:2430  did[_id] */\n      0x00\n        /* \"PolygonDidRegistry.sol\":2426:2429  _id */\n      dup8\n        /* \"PolygonDidRegistry.sol\":2422:2430  did[_id] */\n      0xffffffffffffffffffffffffffffffffffffffff\n      and\n      0xffffffffffffffffffffffffffffffffffffffff\n      and\n      dup2\n      mstore\n      0x20\n      add\n      swap1\n      dup2\n      mstore\n      0x20\n      add\n      0x00\n      keccak256\n        /* \"PolygonDidRegistry.sol\":2422:2441  did[_id].controller */\n      0x00\n      add\n      0x00\n      swap1\n      sload\n      swap1\n      0x0100\n      exp\n      swap1\n      div\n      0xffffffffffffffffffffffffffffffffffffffff\n      and\n        /* \"PolygonDidRegistry.sol\":2443:2446  did */\n      0x01\n        /* \"PolygonDidRegistry.sol\":2443:2451  did[_id] */\n      0x00\n        /* \"PolygonDidRegistry.sol\":2447:2450  _id */\n      dup9\n        /* \"PolygonDidRegistry.sol\":2443:2451  did[_id] */\n      0xffffffffffffffffffffffffffffffffffffffff\n      and\n      0xffffffffffffffffffffffffffffffffffffffff\n      and\n      dup2\n      mstore\n      0x20\n      add\n      swap1\n      dup2\n      mstore\n      0x20\n      add\n      0x00\n      keccak256\n        /* \"PolygonDidRegistry.sol\":2443:2459  did[_id].created */\n      0x01\n      add\n      sload\n        /* \"PolygonDidRegistry.sol\":2461:2464  did */\n      0x01\n        /* \"PolygonDidRegistry.sol\":2461:2469  did[_id] */\n      0x00\n        /* \"PolygonDidRegistry.sol\":2465:2468  _id */\n      dup10\n        /* \"PolygonDidRegistry.sol\":2461:2469  did[_id] */\n      0xffffffffffffffffffffffffffffffffffffffff\n      and\n      0xffffffffffffffffffffffffffffffffffffffff\n      and\n      dup2\n      mstore\n      0x20\n      add\n      swap1\n      dup2\n      mstore\n      0x20\n      add\n      0x00\n      keccak256\n        /* \"PolygonDidRegistry.sol\":2461:2477  did[_id].updated */\n      0x02\n      add\n      sload\n        /* \"PolygonDidRegistry.sol\":2479:2482  did */\n      0x01\n        /* \"PolygonDidRegistry.sol\":2479:2487  did[_id] */\n      0x00\n        /* \"PolygonDidRegistry.sol\":2483:2486  _id */\n      dup11\n        /* \"PolygonDidRegistry.sol\":2479:2487  did[_id] */\n      0xffffffffffffffffffffffffffffffffffffffff\n      and\n      0xffffffffffffffffffffffffffffffffffffffff\n      and\n      dup2\n      mstore\n      0x20\n      add\n      swap1\n      dup2\n      mstore\n      0x20\n      add\n      0x00\n      keccak256\n        /* \"PolygonDidRegistry.sol\":2479:2495  did[_id].did_doc */\n      0x03\n      add\n        /* \"PolygonDidRegistry.sol\":2414:2496  return (did[_id].controller, did[_id].created, did[_id].updated, did[_id].did_doc) */\n      dup1\n      dup1\n      sload\n      tag_58\n      swap1\n      tag_50\n      jump\t// in\n    tag_58:\n      dup1\n      0x1f\n      add\n      0x20\n      dup1\n      swap2\n      div\n      mul\n      0x20\n      add\n      mload(0x40)\n      swap1\n      dup2\n      add\n      0x40\n      mstore\n      dup1\n      swap3\n      swap2\n      swap1\n      dup2\n      dup2\n      mstore\n      0x20\n      add\n      dup3\n      dup1\n      sload\n      tag_59\n      swap1\n      tag_50\n      jump\t// in\n    tag_59:\n      dup1\n      iszero\n      tag_60\n      jumpi\n      dup1\n      0x1f\n      lt\n      tag_61\n      jumpi\n      0x0100\n      dup1\n      dup4\n      sload\n      div\n      mul\n      dup4\n      mstore\n      swap2\n      0x20\n      add\n      swap2\n      jump(tag_60)\n    tag_61:\n      dup3\n      add\n      swap2\n      swap1\n      0x00\n      mstore\n      keccak256(0x00, 0x20)\n      swap1\n    tag_62:\n      dup2\n      sload\n      dup2\n      mstore\n      swap1\n      0x01\n      add\n      swap1\n      0x20\n      add\n      dup1\n      dup4\n      gt\n      tag_62\n      jumpi\n      dup3\n      swap1\n      sub\n      0x1f\n      and\n      dup3\n      add\n      swap2\n    tag_60:\n      pop\n      pop\n      pop\n      pop\n      pop\n      swap1\n      pop\n      swap4\n      pop\n      swap4\n      pop\n      swap4\n      pop\n      swap4\n      pop\n        /* \"PolygonDidRegistry.sol\":2040:2503  function createDID(address _id, string memory _doc)... */\n      swap3\n      swap6\n      swap2\n      swap5\n      pop\n      swap3\n      pop\n      jump\t// out\n        /* \"PolygonDidRegistry.sol\":3424:3545  function deleteDID(address _id) public onlyController(_id) {... */\n    tag_24:\n        /* \"PolygonDidRegistry.sol\":3478:3481  _id */\n      dup1\n        /* \"PolygonDidRegistry.sol\":561:571  msg.sender */\n      caller\n        /* \"PolygonDidRegistry.sol\":538:571  did[_id].controller == msg.sender */\n      0xffffffffffffffffffffffffffffffffffffffff\n      and\n        /* \"PolygonDidRegistry.sol\":538:541  did */\n      0x01\n        /* \"PolygonDidRegistry.sol\":538:546  did[_id] */\n      0x00\n        /* \"PolygonDidRegistry.sol\":542:545  _id */\n      dup4\n        /* \"PolygonDidRegistry.sol\":538:546  did[_id] */\n      0xffffffffffffffffffffffffffffffffffffffff\n      and\n      0xffffffffffffffffffffffffffffffffffffffff\n      and\n      dup2\n      mstore\n      0x20\n      add\n      swap1\n      dup2\n      mstore\n      0x20\n      add\n      0x00\n      keccak256\n        /* \"PolygonDidRegistry.sol\":538:557  did[_id].controller */\n      0x00\n      add\n      0x00\n      swap1\n      sload\n      swap1\n      0x0100\n      exp\n      swap1\n      div\n      0xffffffffffffffffffffffffffffffffffffffff\n      and\n        /* \"PolygonDidRegistry.sol\":538:571  did[_id].controller == msg.sender */\n      0xffffffffffffffffffffffffffffffffffffffff\n      and\n      eq\n        /* \"PolygonDidRegistry.sol\":517:636  require(... */\n      tag_64\n      jumpi\n      mload(0x40)\n      0x08c379a000000000000000000000000000000000000000000000000000000000\n      dup2\n      mstore\n      0x04\n      add\n      tag_65\n      swap1\n      tag_43\n      jump\t// in\n    tag_65:\n      mload(0x40)\n      dup1\n      swap2\n      sub\n      swap1\n      revert\n    tag_64:\n        /* \"PolygonDidRegistry.sol\":3500:3503  did */\n      0x01\n        /* \"PolygonDidRegistry.sol\":3500:3508  did[_id] */\n      0x00\n        /* \"PolygonDidRegistry.sol\":3504:3507  _id */\n      dup4\n        /* \"PolygonDidRegistry.sol\":3500:3508  did[_id] */\n      0xffffffffffffffffffffffffffffffffffffffff\n      and\n      0xffffffffffffffffffffffffffffffffffffffff\n      and\n      dup2\n      mstore\n      0x20\n      add\n      swap1\n      dup2\n      mstore\n      0x20\n      add\n      0x00\n      keccak256\n      0x00\n        /* \"PolygonDidRegistry.sol\":3493:3508  delete did[_id] */\n      dup1\n      dup3\n      add\n      exp(0x0100, 0x00)\n      dup2\n      sload\n      swap1\n      0xffffffffffffffffffffffffffffffffffffffff\n      mul\n      not\n      and\n      swap1\n      sstore\n      0x01\n      dup3\n      add\n      0x00\n      swap1\n      sstore\n      0x02\n      dup3\n      add\n      0x00\n      swap1\n      sstore\n      0x03\n      dup3\n      add\n      0x00\n      tag_67\n      swap2\n      swap1\n      tag_68\n      jump\t// in\n    tag_67:\n      pop\n      pop\n        /* \"PolygonDidRegistry.sol\":3523:3538  DidDeleted(_id) */\n      0xe4d523d170738efb59edc0ff55d3114dc890232222e6ff1bdeb52ddd0ed7e2a9\n        /* \"PolygonDidRegistry.sol\":3534:3537  _id */\n      dup3\n        /* \"PolygonDidRegistry.sol\":3523:3538  DidDeleted(_id) */\n      mload(0x40)\n      tag_69\n      swap2\n      swap1\n      tag_30\n      jump\t// in\n    tag_69:\n      mload(0x40)\n      dup1\n      swap2\n      sub\n      swap1\n      log1\n        /* \"PolygonDidRegistry.sol\":3424:3545  function deleteDID(address _id) public onlyController(_id) {... */\n      pop\n      pop\n      jump\t// out\n        /* \"PolygonDidRegistry.sol\":905:1078  function initialize() public {... */\n    tag_26:\n        /* \"PolygonDidRegistry.sol\":953:964  initialized */\n      0x02\n      0x00\n      swap1\n      sload\n      swap1\n      0x0100\n      exp\n      swap1\n      div\n      0xff\n      and\n        /* \"PolygonDidRegistry.sol\":952:964  !initialized */\n      iszero\n        /* \"PolygonDidRegistry.sol\":944:1015  require(!initialized, \"Contract instance has already been initialized\") */\n      tag_71\n      jumpi\n      mload(0x40)\n      0x08c379a000000000000000000000000000000000000000000000000000000000\n      dup2\n      mstore\n      0x04\n      add\n      tag_72\n      swap1\n      tag_73\n      jump\t// in\n    tag_72:\n      mload(0x40)\n      dup1\n      swap2\n      sub\n      swap1\n      revert\n    tag_71:\n        /* \"PolygonDidRegistry.sol\":1039:1043  true */\n      0x01\n        /* \"PolygonDidRegistry.sol\":1025:1036  initialized */\n      0x02\n      0x00\n        /* \"PolygonDidRegistry.sol\":1025:1043  initialized = true */\n      0x0100\n      exp\n      dup2\n      sload\n      dup2\n      0xff\n      mul\n      not\n      and\n      swap1\n      dup4\n      iszero\n      iszero\n      mul\n      or\n      swap1\n      sstore\n      pop\n        /* \"PolygonDidRegistry.sol\":1061:1071  msg.sender */\n      caller\n        /* \"PolygonDidRegistry.sol\":1053:1058  owner */\n      0x00\n      dup1\n        /* \"PolygonDidRegistry.sol\":1053:1071  owner = msg.sender */\n      0x0100\n      exp\n      dup2\n      sload\n      dup2\n      0xffffffffffffffffffffffffffffffffffffffff\n      mul\n      not\n      and\n      swap1\n      dup4\n      0xffffffffffffffffffffffffffffffffffffffff\n      and\n      mul\n      or\n      swap1\n      sstore\n      pop\n        /* \"PolygonDidRegistry.sol\":905:1078  function initialize() public {... */\n      jump\t// out\n        /* \"PolygonDidRegistry.sol\":1789:1874  function getOwner() public view returns (address _owner){... */\n    tag_28:\n        /* \"PolygonDidRegistry.sol\":1830:1844  address _owner */\n      0x00\n        /* \"PolygonDidRegistry.sol\":1862:1867  owner */\n      dup1\n      0x00\n      swap1\n      sload\n      swap1\n      0x0100\n      exp\n      swap1\n      div\n      0xffffffffffffffffffffffffffffffffffffffff\n      and\n        /* \"PolygonDidRegistry.sol\":1855:1867  return owner */\n      swap1\n      pop\n        /* \"PolygonDidRegistry.sol\":1789:1874  function getOwner() public view returns (address _owner){... */\n      swap1\n      jump\t// out\n        /* \"PolygonDidRegistry.sol\":1353:1724  function transferOwnership(address _newOwner)public onlyOwner() returns (string memory){... */\n    tag_33:\n        /* \"PolygonDidRegistry.sol\":1426:1439  string memory */\n      0x60\n        /* \"PolygonDidRegistry.sol\":1137:1142  owner */\n      0x00\n      dup1\n      sload\n      swap1\n      0x0100\n      exp\n      swap1\n      div\n      0xffffffffffffffffffffffffffffffffffffffff\n      and\n        /* \"PolygonDidRegistry.sol\":1123:1142  msg.sender == owner */\n      0xffffffffffffffffffffffffffffffffffffffff\n      and\n        /* \"PolygonDidRegistry.sol\":1123:1133  msg.sender */\n      caller\n        /* \"PolygonDidRegistry.sol\":1123:1142  msg.sender == owner */\n      0xffffffffffffffffffffffffffffffffffffffff\n      and\n      eq\n        /* \"PolygonDidRegistry.sol\":1114:1178  require( msg.sender == owner, \"message sender is not the owner\") */\n      tag_76\n      jumpi\n      mload(0x40)\n      0x08c379a000000000000000000000000000000000000000000000000000000000\n      dup2\n      mstore\n      0x04\n      add\n      tag_77\n      swap1\n      tag_78\n      jump\t// in\n    tag_77:\n      mload(0x40)\n      dup1\n      swap2\n      sub\n      swap1\n      revert\n    tag_76:\n        /* \"PolygonDidRegistry.sol\":1462:1471  _newOwner */\n      dup2\n        /* \"PolygonDidRegistry.sol\":1453:1471  owner != _newOwner */\n      0xffffffffffffffffffffffffffffffffffffffff\n      and\n        /* \"PolygonDidRegistry.sol\":1453:1458  owner */\n      0x00\n      dup1\n      sload\n      swap1\n      0x0100\n      exp\n      swap1\n      div\n      0xffffffffffffffffffffffffffffffffffffffff\n      and\n        /* \"PolygonDidRegistry.sol\":1453:1471  owner != _newOwner */\n      0xffffffffffffffffffffffffffffffffffffffff\n      and\n      eq\n        /* \"PolygonDidRegistry.sol\":1450:1718  if(owner != _newOwner){... */\n      tag_80\n      jumpi\n        /* \"PolygonDidRegistry.sol\":1494:1503  _newOwner */\n      dup2\n        /* \"PolygonDidRegistry.sol\":1486:1491  owner */\n      0x00\n      dup1\n        /* \"PolygonDidRegistry.sol\":1486:1503  owner = _newOwner */\n      0x0100\n      exp\n      dup2\n      sload\n      dup2\n      0xffffffffffffffffffffffffffffffffffffffff\n      mul\n      not\n      and\n      swap1\n      dup4\n      0xffffffffffffffffffffffffffffffffffffffff\n      and\n      mul\n      or\n      swap1\n      sstore\n      pop\n        /* \"PolygonDidRegistry.sol\":1522:1546  TransferOwnership(owner) */\n      0xcfaaa26691e16e66e73290fc725eee1a6b4e0e693a1640484937aac25ffb55a4\n        /* \"PolygonDidRegistry.sol\":1540:1545  owner */\n      0x00\n      dup1\n      sload\n      swap1\n      0x0100\n      exp\n      swap1\n      div\n      0xffffffffffffffffffffffffffffffffffffffff\n      and\n        /* \"PolygonDidRegistry.sol\":1522:1546  TransferOwnership(owner) */\n      mload(0x40)\n      tag_81\n      swap2\n      swap1\n      tag_30\n      jump\t// in\n    tag_81:\n      mload(0x40)\n      dup1\n      swap2\n      sub\n      swap1\n      log1\n        /* \"PolygonDidRegistry.sol\":1560:1605  return (\"Ownership transffered successfully\") */\n      mload(0x40)\n      dup1\n      0x60\n      add\n      0x40\n      mstore\n      dup1\n      0x22\n      dup2\n      mstore\n      0x20\n      add\n      data_87ed42f8fd39a996f9012bde762b4f1b584f13c33358acafe79a1aa81e05a6f6\n      0x22\n      swap2\n      codecopy\n      swap1\n      pop\n      jump(tag_79)\n        /* \"PolygonDidRegistry.sol\":1450:1718  if(owner != _newOwner){... */\n    tag_80:\n        /* \"PolygonDidRegistry.sol\":1644:1707  return (\"New Owner address is equal to original owner address\") */\n      mload(0x40)\n      dup1\n      0x60\n      add\n      0x40\n      mstore\n      dup1\n      0x34\n      dup2\n      mstore\n      0x20\n      add\n      data_2a1b987754417a7149d2973e307fdc805a254284352d6a6abb1975be81a263eb\n      0x34\n      swap2\n      codecopy\n      swap1\n      pop\n        /* \"PolygonDidRegistry.sol\":1188:1189  _ */\n    tag_79:\n        /* \"PolygonDidRegistry.sol\":1353:1724  function transferOwnership(address _newOwner)public onlyOwner() returns (string memory){... */\n      swap2\n      swap1\n      pop\n      jump\t// out\n        /* \"PolygonDidRegistry.sol\":2624:2729  function getDID(address _id) public view returns (string memory) {... */\n    tag_38:\n        /* \"PolygonDidRegistry.sol\":2674:2687  string memory */\n      0x60\n        /* \"PolygonDidRegistry.sol\":2706:2709  did */\n      0x01\n        /* \"PolygonDidRegistry.sol\":2706:2714  did[_id] */\n      0x00\n        /* \"PolygonDidRegistry.sol\":2710:2713  _id */\n      dup4\n        /* \"PolygonDidRegistry.sol\":2706:2714  did[_id] */\n      0xffffffffffffffffffffffffffffffffffffffff\n      and\n      0xffffffffffffffffffffffffffffffffffffffff\n      and\n      dup2\n      mstore\n      0x20\n      add\n      swap1\n      dup2\n      mstore\n      0x20\n      add\n      0x00\n      keccak256\n        /* \"PolygonDidRegistry.sol\":2706:2722  did[_id].did_doc */\n      0x03\n      add\n        /* \"PolygonDidRegistry.sol\":2699:2722  return did[_id].did_doc */\n      dup1\n      sload\n      tag_84\n      swap1\n      tag_50\n      jump\t// in\n    tag_84:\n      dup1\n      0x1f\n      add\n      0x20\n      dup1\n      swap2\n      div\n      mul\n      0x20\n      add\n      mload(0x40)\n      swap1\n      dup2\n      add\n      0x40\n      mstore\n      dup1\n      swap3\n      swap2\n      swap1\n      dup2\n      dup2\n      mstore\n      0x20\n      add\n      dup3\n      dup1\n      sload\n      tag_85\n      swap1\n      tag_50\n      jump\t// in\n    tag_85:\n      dup1\n      iszero\n      tag_86\n      jumpi\n      dup1\n      0x1f\n      lt\n      tag_87\n      jumpi\n      0x0100\n      dup1\n      dup4\n      sload\n      div\n      mul\n      dup4\n      mstore\n      swap2\n      0x20\n      add\n      swap2\n      jump(tag_86)\n    tag_87:\n      dup3\n      add\n      swap2\n      swap1\n      0x00\n      mstore\n      keccak256(0x00, 0x20)\n      swap1\n    tag_88:\n      dup2\n      sload\n      dup2\n      mstore\n      swap1\n      0x01\n      add\n      swap1\n      0x20\n      add\n      dup1\n      dup4\n      gt\n      tag_88\n      jumpi\n      dup3\n      swap1\n      sub\n      0x1f\n      and\n      dup3\n      add\n      swap2\n    tag_86:\n      pop\n      pop\n      pop\n      pop\n      pop\n      swap1\n      pop\n        /* \"PolygonDidRegistry.sol\":2624:2729  function getDID(address _id) public view returns (string memory) {... */\n      swap2\n      swap1\n      pop\n      jump\t// out\n    tag_46:\n      dup3\n      dup1\n      sload\n      tag_89\n      swap1\n      tag_50\n      jump\t// in\n    tag_89:\n      swap1\n      0x00\n      mstore\n      keccak256(0x00, 0x20)\n      swap1\n      0x1f\n      add\n      0x20\n      swap1\n      div\n      dup2\n      add\n      swap3\n      dup3\n      tag_91\n      jumpi\n      0x00\n      dup6\n      sstore\n      jump(tag_90)\n    tag_91:\n      dup3\n      0x1f\n      lt\n      tag_92\n      jumpi\n      dup1\n      mload\n      not(0xff)\n      and\n      dup4\n      dup1\n      add\n      or\n      dup6\n      sstore\n      jump(tag_90)\n    tag_92:\n      dup3\n      dup1\n      add\n      0x01\n      add\n      dup6\n      sstore\n      dup3\n      iszero\n      tag_90\n      jumpi\n      swap2\n      dup3\n      add\n    tag_93:\n      dup3\n      dup2\n      gt\n      iszero\n      tag_94\n      jumpi\n      dup3\n      mload\n      dup3\n      sstore\n      swap2\n      0x20\n      add\n      swap2\n      swap1\n      0x01\n      add\n      swap1\n      jump(tag_93)\n    tag_94:\n    tag_90:\n      pop\n      swap1\n      pop\n      tag_95\n      swap2\n      swap1\n      tag_96\n      jump\t// in\n    tag_95:\n      pop\n      swap1\n      jump\t// out\n    tag_68:\n      pop\n      dup1\n      sload\n      tag_97\n      swap1\n      tag_50\n      jump\t// in\n    tag_97:\n      0x00\n      dup3\n      sstore\n      dup1\n      0x1f\n      lt\n      tag_99\n      jumpi\n      pop\n      jump(tag_98)\n    tag_99:\n      0x1f\n      add\n      0x20\n      swap1\n      div\n      swap1\n      0x00\n      mstore\n      keccak256(0x00, 0x20)\n      swap1\n      dup2\n      add\n      swap1\n      tag_100\n      swap2\n      swap1\n      tag_96\n      jump\t// in\n    tag_100:\n    tag_98:\n      pop\n      jump\t// out\n    tag_96:\n    tag_101:\n      dup1\n      dup3\n      gt\n      iszero\n      tag_102\n      jumpi\n      0x00\n      dup2\n      0x00\n      swap1\n      sstore\n      pop\n      0x01\n      add\n      jump(tag_101)\n    tag_102:\n      pop\n      swap1\n      jump\t// out\n        /* \"#utility.yul\":7:351   */\n    tag_104:\n      0x00\n        /* \"#utility.yul\":110:175   */\n      tag_106\n        /* \"#utility.yul\":125:174   */\n      tag_107\n        /* \"#utility.yul\":167:173   */\n      dup5\n        /* \"#utility.yul\":125:174   */\n      tag_108\n      jump\t// in\n    tag_107:\n        /* \"#utility.yul\":110:175   */\n      tag_109\n      jump\t// in\n    tag_106:\n        /* \"#utility.yul\":101:175   */\n      swap1\n      pop\n        /* \"#utility.yul\":198:204   */\n      dup3\n        /* \"#utility.yul\":191:196   */\n      dup2\n        /* \"#utility.yul\":184:205   */\n      mstore\n        /* \"#utility.yul\":236:240   */\n      0x20\n        /* \"#utility.yul\":229:234   */\n      dup2\n        /* \"#utility.yul\":225:241   */\n      add\n        /* \"#utility.yul\":274:277   */\n      dup5\n        /* \"#utility.yul\":265:271   */\n      dup5\n        /* \"#utility.yul\":260:263   */\n      dup5\n        /* \"#utility.yul\":256:272   */\n      add\n        /* \"#utility.yul\":253:278   */\n      gt\n        /* \"#utility.yul\":250:252   */\n      iszero\n      tag_110\n      jumpi\n        /* \"#utility.yul\":291:292   */\n      0x00\n        /* \"#utility.yul\":288:289   */\n      dup1\n        /* \"#utility.yul\":281:293   */\n      revert\n        /* \"#utility.yul\":250:252   */\n    tag_110:\n        /* \"#utility.yul\":304:345   */\n      tag_111\n        /* \"#utility.yul\":338:344   */\n      dup5\n        /* \"#utility.yul\":333:336   */\n      dup3\n        /* \"#utility.yul\":328:331   */\n      dup6\n        /* \"#utility.yul\":304:345   */\n      tag_112\n      jump\t// in\n    tag_111:\n        /* \"#utility.yul\":91:351   */\n      pop\n      swap4\n      swap3\n      pop\n      pop\n      pop\n      jump\t// out\n        /* \"#utility.yul\":357:496   */\n    tag_113:\n      0x00\n        /* \"#utility.yul\":441:447   */\n      dup2\n        /* \"#utility.yul\":428:448   */\n      calldataload\n        /* \"#utility.yul\":419:448   */\n      swap1\n      pop\n        /* \"#utility.yul\":457:490   */\n      tag_115\n        /* \"#utility.yul\":484:489   */\n      dup2\n        /* \"#utility.yul\":457:490   */\n      tag_116\n      jump\t// in\n    tag_115:\n        /* \"#utility.yul\":409:496   */\n      swap3\n      swap2\n      pop\n      pop\n      jump\t// out\n        /* \"#utility.yul\":516:789   */\n    tag_117:\n      0x00\n        /* \"#utility.yul\":621:624   */\n      dup3\n        /* \"#utility.yul\":614:618   */\n      0x1f\n        /* \"#utility.yul\":606:612   */\n      dup4\n        /* \"#utility.yul\":602:619   */\n      add\n        /* \"#utility.yul\":598:625   */\n      slt\n        /* \"#utility.yul\":588:590   */\n      tag_119\n      jumpi\n        /* \"#utility.yul\":639:640   */\n      0x00\n        /* \"#utility.yul\":636:637   */\n      dup1\n        /* \"#utility.yul\":629:641   */\n      revert\n        /* \"#utility.yul\":588:590   */\n    tag_119:\n        /* \"#utility.yul\":679:685   */\n      dup2\n        /* \"#utility.yul\":666:686   */\n      calldataload\n        /* \"#utility.yul\":704:783   */\n      tag_120\n        /* \"#utility.yul\":779:782   */\n      dup5\n        /* \"#utility.yul\":771:777   */\n      dup3\n        /* \"#utility.yul\":764:768   */\n      0x20\n        /* \"#utility.yul\":756:762   */\n      dup7\n        /* \"#utility.yul\":752:769   */\n      add\n        /* \"#utility.yul\":704:783   */\n      tag_104\n      jump\t// in\n    tag_120:\n        /* \"#utility.yul\":695:783   */\n      swap2\n      pop\n        /* \"#utility.yul\":578:789   */\n      pop\n      swap3\n      swap2\n      pop\n      pop\n      jump\t// out\n        /* \"#utility.yul\":795:1057   */\n    tag_23:\n      0x00\n        /* \"#utility.yul\":903:905   */\n      0x20\n        /* \"#utility.yul\":891:900   */\n      dup3\n        /* \"#utility.yul\":882:889   */\n      dup5\n        /* \"#utility.yul\":878:901   */\n      sub\n        /* \"#utility.yul\":874:906   */\n      slt\n        /* \"#utility.yul\":871:873   */\n      iszero\n      tag_122\n      jumpi\n        /* \"#utility.yul\":919:920   */\n      0x00\n        /* \"#utility.yul\":916:917   */\n      dup1\n        /* \"#utility.yul\":909:921   */\n      revert\n        /* \"#utility.yul\":871:873   */\n    tag_122:\n        /* \"#utility.yul\":962:963   */\n      0x00\n        /* \"#utility.yul\":987:1040   */\n      tag_123\n        /* \"#utility.yul\":1032:1039   */\n      dup5\n        /* \"#utility.yul\":1023:1029   */\n      dup3\n        /* \"#utility.yul\":1012:1021   */\n      dup6\n        /* \"#utility.yul\":1008:1030   */\n      add\n        /* \"#utility.yul\":987:1040   */\n      tag_113\n      jump\t// in\n    tag_123:\n        /* \"#utility.yul\":977:1040   */\n      swap2\n      pop\n        /* \"#utility.yul\":933:1050   */\n      pop\n        /* \"#utility.yul\":861:1057   */\n      swap3\n      swap2\n      pop\n      pop\n      jump\t// out\n        /* \"#utility.yul\":1063:1583   */\n    tag_13:\n      0x00\n      dup1\n        /* \"#utility.yul\":1198:1200   */\n      0x40\n        /* \"#utility.yul\":1186:1195   */\n      dup4\n        /* \"#utility.yul\":1177:1184   */\n      dup6\n        /* \"#utility.yul\":1173:1196   */\n      sub\n        /* \"#utility.yul\":1169:1201   */\n      slt\n        /* \"#utility.yul\":1166:1168   */\n      iszero\n      tag_125\n      jumpi\n        /* \"#utility.yul\":1214:1215   */\n      0x00\n        /* \"#utility.yul\":1211:1212   */\n      dup1\n        /* \"#utility.yul\":1204:1216   */\n      revert\n        /* \"#utility.yul\":1166:1168   */\n    tag_125:\n        /* \"#utility.yul\":1257:1258   */\n      0x00\n        /* \"#utility.yul\":1282:1335   */\n      tag_126\n        /* \"#utility.yul\":1327:1334   */\n      dup6\n        /* \"#utility.yul\":1318:1324   */\n      dup3\n        /* \"#utility.yul\":1307:1316   */\n      dup7\n        /* \"#utility.yul\":1303:1325   */\n      add\n        /* \"#utility.yul\":1282:1335   */\n      tag_113\n      jump\t// in\n    tag_126:\n        /* \"#utility.yul\":1272:1335   */\n      swap3\n      pop\n        /* \"#utility.yul\":1228:1345   */\n      pop\n        /* \"#utility.yul\":1412:1414   */\n      0x20\n        /* \"#utility.yul\":1401:1410   */\n      dup4\n        /* \"#utility.yul\":1397:1415   */\n      add\n        /* \"#utility.yul\":1384:1416   */\n      calldataload\n        /* \"#utility.yul\":1443:1461   */\n      0xffffffffffffffff\n        /* \"#utility.yul\":1435:1441   */\n      dup2\n        /* \"#utility.yul\":1432:1462   */\n      gt\n        /* \"#utility.yul\":1429:1431   */\n      iszero\n      tag_127\n      jumpi\n        /* \"#utility.yul\":1475:1476   */\n      0x00\n        /* \"#utility.yul\":1472:1473   */\n      dup1\n        /* \"#utility.yul\":1465:1477   */\n      revert\n        /* \"#utility.yul\":1429:1431   */\n    tag_127:\n        /* \"#utility.yul\":1503:1566   */\n      tag_128\n        /* \"#utility.yul\":1558:1565   */\n      dup6\n        /* \"#utility.yul\":1549:1555   */\n      dup3\n        /* \"#utility.yul\":1538:1547   */\n      dup7\n        /* \"#utility.yul\":1534:1556   */\n      add\n        /* \"#utility.yul\":1503:1566   */\n      tag_117\n      jump\t// in\n    tag_128:\n        /* \"#utility.yul\":1493:1566   */\n      swap2\n      pop\n        /* \"#utility.yul\":1355:1576   */\n      pop\n        /* \"#utility.yul\":1156:1583   */\n      swap3\n      pop\n      swap3\n      swap1\n      pop\n      jump\t// out\n        /* \"#utility.yul\":1589:1707   */\n    tag_129:\n        /* \"#utility.yul\":1676:1700   */\n      tag_131\n        /* \"#utility.yul\":1694:1699   */\n      dup2\n        /* \"#utility.yul\":1676:1700   */\n      tag_132\n      jump\t// in\n    tag_131:\n        /* \"#utility.yul\":1671:1674   */\n      dup3\n        /* \"#utility.yul\":1664:1701   */\n      mstore\n        /* \"#utility.yul\":1654:1707   */\n      pop\n      pop\n      jump\t// out\n        /* \"#utility.yul\":1713:2077   */\n    tag_133:\n      0x00\n        /* \"#utility.yul\":1829:1868   */\n      tag_135\n        /* \"#utility.yul\":1862:1867   */\n      dup3\n        /* \"#utility.yul\":1829:1868   */\n      tag_136\n      jump\t// in\n    tag_135:\n        /* \"#utility.yul\":1884:1955   */\n      tag_137\n        /* \"#utility.yul\":1948:1954   */\n      dup2\n        /* \"#utility.yul\":1943:1946   */\n      dup6\n        /* \"#utility.yul\":1884:1955   */\n      tag_138\n      jump\t// in\n    tag_137:\n        /* \"#utility.yul\":1877:1955   */\n      swap4\n      pop\n        /* \"#utility.yul\":1964:2016   */\n      tag_139\n        /* \"#utility.yul\":2009:2015   */\n      dup2\n        /* \"#utility.yul\":2004:2007   */\n      dup6\n        /* \"#utility.yul\":1997:2001   */\n      0x20\n        /* \"#utility.yul\":1990:1995   */\n      dup7\n        /* \"#utility.yul\":1986:2002   */\n      add\n        /* \"#utility.yul\":1964:2016   */\n      tag_140\n      jump\t// in\n    tag_139:\n        /* \"#utility.yul\":2041:2070   */\n      tag_141\n        /* \"#utility.yul\":2063:2069   */\n      dup2\n        /* \"#utility.yul\":2041:2070   */\n      tag_142\n      jump\t// in\n    tag_141:\n        /* \"#utility.yul\":2036:2039   */\n      dup5\n        /* \"#utility.yul\":2032:2071   */\n      add\n        /* \"#utility.yul\":2025:2071   */\n      swap2\n      pop\n        /* \"#utility.yul\":1805:2077   */\n      pop\n      swap3\n      swap2\n      pop\n      pop\n      jump\t// out\n        /* \"#utility.yul\":2083:2412   */\n    tag_143:\n      0x00\n        /* \"#utility.yul\":2246:2313   */\n      tag_145\n        /* \"#utility.yul\":2310:2312   */\n      0x1f\n        /* \"#utility.yul\":2305:2308   */\n      dup4\n        /* \"#utility.yul\":2246:2313   */\n      tag_138\n      jump\t// in\n    tag_145:\n        /* \"#utility.yul\":2239:2313   */\n      swap2\n      pop\n        /* \"#utility.yul\":2343:2376   */\n      0x6d6573736167652073656e646572206973206e6f7420746865206f776e657200\n        /* \"#utility.yul\":2339:2340   */\n      0x00\n        /* \"#utility.yul\":2334:2337   */\n      dup4\n        /* \"#utility.yul\":2330:2341   */\n      add\n        /* \"#utility.yul\":2323:2377   */\n      mstore\n        /* \"#utility.yul\":2403:2405   */\n      0x20\n        /* \"#utility.yul\":2398:2401   */\n      dup3\n        /* \"#utility.yul\":2394:2406   */\n      add\n        /* \"#utility.yul\":2387:2406   */\n      swap1\n      pop\n        /* \"#utility.yul\":2229:2412   */\n      swap2\n      swap1\n      pop\n      jump\t// out\n        /* \"#utility.yul\":2418:2796   */\n    tag_146:\n      0x00\n        /* \"#utility.yul\":2581:2648   */\n      tag_148\n        /* \"#utility.yul\":2645:2647   */\n      0x2e\n        /* \"#utility.yul\":2640:2643   */\n      dup4\n        /* \"#utility.yul\":2581:2648   */\n      tag_138\n      jump\t// in\n    tag_148:\n        /* \"#utility.yul\":2574:2648   */\n      swap2\n      pop\n        /* \"#utility.yul\":2678:2712   */\n      0x436f6e747261637420696e7374616e63652068617320616c7265616479206265\n        /* \"#utility.yul\":2674:2675   */\n      0x00\n        /* \"#utility.yul\":2669:2672   */\n      dup4\n        /* \"#utility.yul\":2665:2676   */\n      add\n        /* \"#utility.yul\":2658:2713   */\n      mstore\n        /* \"#utility.yul\":2744:2760   */\n      0x656e20696e697469616c697a6564000000000000000000000000000000000000\n        /* \"#utility.yul\":2739:2741   */\n      0x20\n        /* \"#utility.yul\":2734:2737   */\n      dup4\n        /* \"#utility.yul\":2730:2742   */\n      add\n        /* \"#utility.yul\":2723:2761   */\n      mstore\n        /* \"#utility.yul\":2787:2789   */\n      0x40\n        /* \"#utility.yul\":2782:2785   */\n      dup3\n        /* \"#utility.yul\":2778:2790   */\n      add\n        /* \"#utility.yul\":2771:2790   */\n      swap1\n      pop\n        /* \"#utility.yul\":2564:2796   */\n      swap2\n      swap1\n      pop\n      jump\t// out\n        /* \"#utility.yul\":2802:3185   */\n    tag_149:\n      0x00\n        /* \"#utility.yul\":2965:3032   */\n      tag_151\n        /* \"#utility.yul\":3029:3031   */\n      0x33\n        /* \"#utility.yul\":3024:3027   */\n      dup4\n        /* \"#utility.yul\":2965:3032   */\n      tag_138\n      jump\t// in\n    tag_151:\n        /* \"#utility.yul\":2958:3032   */\n      swap2\n      pop\n        /* \"#utility.yul\":3062:3096   */\n      0x6d6573736167652073656e646572206973206e6f742074686520636f6e74726f\n        /* \"#utility.yul\":3058:3059   */\n      0x00\n        /* \"#utility.yul\":3053:3056   */\n      dup4\n        /* \"#utility.yul\":3049:3060   */\n      add\n        /* \"#utility.yul\":3042:3097   */\n      mstore\n        /* \"#utility.yul\":3128:3149   */\n      0x6c6c6572206f66207468652044494420446f6300000000000000000000000000\n        /* \"#utility.yul\":3123:3125   */\n      0x20\n        /* \"#utility.yul\":3118:3121   */\n      dup4\n        /* \"#utility.yul\":3114:3126   */\n      add\n        /* \"#utility.yul\":3107:3150   */\n      mstore\n        /* \"#utility.yul\":3176:3178   */\n      0x40\n        /* \"#utility.yul\":3171:3174   */\n      dup3\n        /* \"#utility.yul\":3167:3179   */\n      add\n        /* \"#utility.yul\":3160:3179   */\n      swap1\n      pop\n        /* \"#utility.yul\":2948:3185   */\n      swap2\n      swap1\n      pop\n      jump\t// out\n        /* \"#utility.yul\":3191:3309   */\n    tag_152:\n        /* \"#utility.yul\":3278:3302   */\n      tag_154\n        /* \"#utility.yul\":3296:3301   */\n      dup2\n        /* \"#utility.yul\":3278:3302   */\n      tag_155\n      jump\t// in\n    tag_154:\n        /* \"#utility.yul\":3273:3276   */\n      dup3\n        /* \"#utility.yul\":3266:3303   */\n      mstore\n        /* \"#utility.yul\":3256:3309   */\n      pop\n      pop\n      jump\t// out\n        /* \"#utility.yul\":3315:3537   */\n    tag_30:\n      0x00\n        /* \"#utility.yul\":3446:3448   */\n      0x20\n        /* \"#utility.yul\":3435:3444   */\n      dup3\n        /* \"#utility.yul\":3431:3449   */\n      add\n        /* \"#utility.yul\":3423:3449   */\n      swap1\n      pop\n        /* \"#utility.yul\":3459:3530   */\n      tag_157\n        /* \"#utility.yul\":3527:3528   */\n      0x00\n        /* \"#utility.yul\":3516:3525   */\n      dup4\n        /* \"#utility.yul\":3512:3529   */\n      add\n        /* \"#utility.yul\":3503:3509   */\n      dup5\n        /* \"#utility.yul\":3459:3530   */\n      tag_129\n      jump\t// in\n    tag_157:\n        /* \"#utility.yul\":3413:3537   */\n      swap3\n      swap2\n      pop\n      pop\n      jump\t// out\n        /* \"#utility.yul\":3543:3966   */\n    tag_48:\n      0x00\n        /* \"#utility.yul\":3722:3724   */\n      0x40\n        /* \"#utility.yul\":3711:3720   */\n      dup3\n        /* \"#utility.yul\":3707:3725   */\n      add\n        /* \"#utility.yul\":3699:3725   */\n      swap1\n      pop\n        /* \"#utility.yul\":3735:3806   */\n      tag_159\n        /* \"#utility.yul\":3803:3804   */\n      0x00\n        /* \"#utility.yul\":3792:3801   */\n      dup4\n        /* \"#utility.yul\":3788:3805   */\n      add\n        /* \"#utility.yul\":3779:3785   */\n      dup6\n        /* \"#utility.yul\":3735:3806   */\n      tag_129\n      jump\t// in\n    tag_159:\n        /* \"#utility.yul\":3853:3862   */\n      dup2\n        /* \"#utility.yul\":3847:3851   */\n      dup2\n        /* \"#utility.yul\":3843:3863   */\n      sub\n        /* \"#utility.yul\":3838:3840   */\n      0x20\n        /* \"#utility.yul\":3827:3836   */\n      dup4\n        /* \"#utility.yul\":3823:3841   */\n      add\n        /* \"#utility.yul\":3816:3864   */\n      mstore\n        /* \"#utility.yul\":3881:3959   */\n      tag_160\n        /* \"#utility.yul\":3954:3958   */\n      dup2\n        /* \"#utility.yul\":3945:3951   */\n      dup5\n        /* \"#utility.yul\":3881:3959   */\n      tag_133\n      jump\t// in\n    tag_160:\n        /* \"#utility.yul\":3873:3959   */\n      swap1\n      pop\n        /* \"#utility.yul\":3689:3966   */\n      swap4\n      swap3\n      pop\n      pop\n      pop\n      jump\t// out\n        /* \"#utility.yul\":3972:4616   */\n    tag_16:\n      0x00\n        /* \"#utility.yul\":4207:4210   */\n      0x80\n        /* \"#utility.yul\":4196:4205   */\n      dup3\n        /* \"#utility.yul\":4192:4211   */\n      add\n        /* \"#utility.yul\":4184:4211   */\n      swap1\n      pop\n        /* \"#utility.yul\":4221:4292   */\n      tag_162\n        /* \"#utility.yul\":4289:4290   */\n      0x00\n        /* \"#utility.yul\":4278:4287   */\n      dup4\n        /* \"#utility.yul\":4274:4291   */\n      add\n        /* \"#utility.yul\":4265:4271   */\n      dup8\n        /* \"#utility.yul\":4221:4292   */\n      tag_129\n      jump\t// in\n    tag_162:\n        /* \"#utility.yul\":4302:4374   */\n      tag_163\n        /* \"#utility.yul\":4370:4372   */\n      0x20\n        /* \"#utility.yul\":4359:4368   */\n      dup4\n        /* \"#utility.yul\":4355:4373   */\n      add\n        /* \"#utility.yul\":4346:4352   */\n      dup7\n        /* \"#utility.yul\":4302:4374   */\n      tag_152\n      jump\t// in\n    tag_163:\n        /* \"#utility.yul\":4384:4456   */\n      tag_164\n        /* \"#utility.yul\":4452:4454   */\n      0x40\n        /* \"#utility.yul\":4441:4450   */\n      dup4\n        /* \"#utility.yul\":4437:4455   */\n      add\n        /* \"#utility.yul\":4428:4434   */\n      dup6\n        /* \"#utility.yul\":4384:4456   */\n      tag_152\n      jump\t// in\n    tag_164:\n        /* \"#utility.yul\":4503:4512   */\n      dup2\n        /* \"#utility.yul\":4497:4501   */\n      dup2\n        /* \"#utility.yul\":4493:4513   */\n      sub\n        /* \"#utility.yul\":4488:4490   */\n      0x60\n        /* \"#utility.yul\":4477:4486   */\n      dup4\n        /* \"#utility.yul\":4473:4491   */\n      add\n        /* \"#utility.yul\":4466:4514   */\n      mstore\n        /* \"#utility.yul\":4531:4609   */\n      tag_165\n        /* \"#utility.yul\":4604:4608   */\n      dup2\n        /* \"#utility.yul\":4595:4601   */\n      dup5\n        /* \"#utility.yul\":4531:4609   */\n      tag_133\n      jump\t// in\n    tag_165:\n        /* \"#utility.yul\":4523:4609   */\n      swap1\n      pop\n        /* \"#utility.yul\":4174:4616   */\n      swap6\n      swap5\n      pop\n      pop\n      pop\n      pop\n      pop\n      jump\t// out\n        /* \"#utility.yul\":4622:4935   */\n    tag_35:\n      0x00\n        /* \"#utility.yul\":4773:4775   */\n      0x20\n        /* \"#utility.yul\":4762:4771   */\n      dup3\n        /* \"#utility.yul\":4758:4776   */\n      add\n        /* \"#utility.yul\":4750:4776   */\n      swap1\n      pop\n        /* \"#utility.yul\":4822:4831   */\n      dup2\n        /* \"#utility.yul\":4816:4820   */\n      dup2\n        /* \"#utility.yul\":4812:4832   */\n      sub\n        /* \"#utility.yul\":4808:4809   */\n      0x00\n        /* \"#utility.yul\":4797:4806   */\n      dup4\n        /* \"#utility.yul\":4793:4810   */\n      add\n        /* \"#utility.yul\":4786:4833   */\n      mstore\n        /* \"#utility.yul\":4850:4928   */\n      tag_167\n        /* \"#utility.yul\":4923:4927   */\n      dup2\n        /* \"#utility.yul\":4914:4920   */\n      dup5\n        /* \"#utility.yul\":4850:4928   */\n      tag_133\n      jump\t// in\n    tag_167:\n        /* \"#utility.yul\":4842:4928   */\n      swap1\n      pop\n        /* \"#utility.yul\":4740:4935   */\n      swap3\n      swap2\n      pop\n      pop\n      jump\t// out\n        /* \"#utility.yul\":4941:5360   */\n    tag_78:\n      0x00\n        /* \"#utility.yul\":5145:5147   */\n      0x20\n        /* \"#utility.yul\":5134:5143   */\n      dup3\n        /* \"#utility.yul\":5130:5148   */\n      add\n        /* \"#utility.yul\":5122:5148   */\n      swap1\n      pop\n        /* \"#utility.yul\":5194:5203   */\n      dup2\n        /* \"#utility.yul\":5188:5192   */\n      dup2\n        /* \"#utility.yul\":5184:5204   */\n      sub\n        /* \"#utility.yul\":5180:5181   */\n      0x00\n        /* \"#utility.yul\":5169:5178   */\n      dup4\n        /* \"#utility.yul\":5165:5182   */\n      add\n        /* \"#utility.yul\":5158:5205   */\n      mstore\n        /* \"#utility.yul\":5222:5353   */\n      tag_169\n        /* \"#utility.yul\":5348:5352   */\n      dup2\n        /* \"#utility.yul\":5222:5353   */\n      tag_143\n      jump\t// in\n    tag_169:\n        /* \"#utility.yul\":5214:5353   */\n      swap1\n      pop\n        /* \"#utility.yul\":5112:5360   */\n      swap2\n      swap1\n      pop\n      jump\t// out\n        /* \"#utility.yul\":5366:5785   */\n    tag_73:\n      0x00\n        /* \"#utility.yul\":5570:5572   */\n      0x20\n        /* \"#utility.yul\":5559:5568   */\n      dup3\n        /* \"#utility.yul\":5555:5573   */\n      add\n        /* \"#utility.yul\":5547:5573   */\n      swap1\n      pop\n        /* \"#utility.yul\":5619:5628   */\n      dup2\n        /* \"#utility.yul\":5613:5617   */\n      dup2\n        /* \"#utility.yul\":5609:5629   */\n      sub\n        /* \"#utility.yul\":5605:5606   */\n      0x00\n        /* \"#utility.yul\":5594:5603   */\n      dup4\n        /* \"#utility.yul\":5590:5607   */\n      add\n        /* \"#utility.yul\":5583:5630   */\n      mstore\n        /* \"#utility.yul\":5647:5778   */\n      tag_171\n        /* \"#utility.yul\":5773:5777   */\n      dup2\n        /* \"#utility.yul\":5647:5778   */\n      tag_146\n      jump\t// in\n    tag_171:\n        /* \"#utility.yul\":5639:5778   */\n      swap1\n      pop\n        /* \"#utility.yul\":5537:5785   */\n      swap2\n      swap1\n      pop\n      jump\t// out\n        /* \"#utility.yul\":5791:6210   */\n    tag_43:\n      0x00\n        /* \"#utility.yul\":5995:5997   */\n      0x20\n        /* \"#utility.yul\":5984:5993   */\n      dup3\n        /* \"#utility.yul\":5980:5998   */\n      add\n        /* \"#utility.yul\":5972:5998   */\n      swap1\n      pop\n        /* \"#utility.yul\":6044:6053   */\n      dup2\n        /* \"#utility.yul\":6038:6042   */\n      dup2\n        /* \"#utility.yul\":6034:6054   */\n      sub\n        /* \"#utility.yul\":6030:6031   */\n      0x00\n        /* \"#utility.yul\":6019:6028   */\n      dup4\n        /* \"#utility.yul\":6015:6032   */\n      add\n        /* \"#utility.yul\":6008:6055   */\n      mstore\n        /* \"#utility.yul\":6072:6203   */\n      tag_173\n        /* \"#utility.yul\":6198:6202   */\n      dup2\n        /* \"#utility.yul\":6072:6203   */\n      tag_149\n      jump\t// in\n    tag_173:\n        /* \"#utility.yul\":6064:6203   */\n      swap1\n      pop\n        /* \"#utility.yul\":5962:6210   */\n      swap2\n      swap1\n      pop\n      jump\t// out\n        /* \"#utility.yul\":6216:6499   */\n    tag_109:\n      0x00\n        /* \"#utility.yul\":6282:6284   */\n      0x40\n        /* \"#utility.yul\":6276:6285   */\n      mload\n        /* \"#utility.yul\":6266:6285   */\n      swap1\n      pop\n        /* \"#utility.yul\":6324:6328   */\n      dup2\n        /* \"#utility.yul\":6316:6322   */\n      dup2\n        /* \"#utility.yul\":6312:6329   */\n      add\n        /* \"#utility.yul\":6431:6437   */\n      dup2\n        /* \"#utility.yul\":6419:6429   */\n      dup2\n        /* \"#utility.yul\":6416:6438   */\n      lt\n        /* \"#utility.yul\":6395:6413   */\n      0xffffffffffffffff\n        /* \"#utility.yul\":6383:6393   */\n      dup3\n        /* \"#utility.yul\":6380:6414   */\n      gt\n        /* \"#utility.yul\":6377:6439   */\n      or\n        /* \"#utility.yul\":6374:6376   */\n      iszero\n      tag_175\n      jumpi\n        /* \"#utility.yul\":6442:6460   */\n      tag_176\n      tag_177\n      jump\t// in\n    tag_176:\n        /* \"#utility.yul\":6374:6376   */\n    tag_175:\n        /* \"#utility.yul\":6482:6492   */\n      dup1\n        /* \"#utility.yul\":6478:6480   */\n      0x40\n        /* \"#utility.yul\":6471:6493   */\n      mstore\n        /* \"#utility.yul\":6256:6499   */\n      pop\n      swap2\n      swap1\n      pop\n      jump\t// out\n        /* \"#utility.yul\":6505:6837   */\n    tag_108:\n      0x00\n        /* \"#utility.yul\":6657:6675   */\n      0xffffffffffffffff\n        /* \"#utility.yul\":6649:6655   */\n      dup3\n        /* \"#utility.yul\":6646:6676   */\n      gt\n        /* \"#utility.yul\":6643:6645   */\n      iszero\n      tag_179\n      jumpi\n        /* \"#utility.yul\":6679:6697   */\n      tag_180\n      tag_177\n      jump\t// in\n    tag_180:\n        /* \"#utility.yul\":6643:6645   */\n    tag_179:\n        /* \"#utility.yul\":6764:6768   */\n      0x1f\n        /* \"#utility.yul\":6760:6769   */\n      not\n        /* \"#utility.yul\":6753:6757   */\n      0x1f\n        /* \"#utility.yul\":6745:6751   */\n      dup4\n        /* \"#utility.yul\":6741:6758   */\n      add\n        /* \"#utility.yul\":6737:6770   */\n      and\n        /* \"#utility.yul\":6729:6770   */\n      swap1\n      pop\n        /* \"#utility.yul\":6825:6829   */\n      0x20\n        /* \"#utility.yul\":6819:6823   */\n      dup2\n        /* \"#utility.yul\":6815:6830   */\n      add\n        /* \"#utility.yul\":6807:6830   */\n      swap1\n      pop\n        /* \"#utility.yul\":6572:6837   */\n      swap2\n      swap1\n      pop\n      jump\t// out\n        /* \"#utility.yul\":6843:6942   */\n    tag_136:\n      0x00\n        /* \"#utility.yul\":6929:6934   */\n      dup2\n        /* \"#utility.yul\":6923:6935   */\n      mload\n        /* \"#utility.yul\":6913:6935   */\n      swap1\n      pop\n        /* \"#utility.yul\":6902:6942   */\n      swap2\n      swap1\n      pop\n      jump\t// out\n        /* \"#utility.yul\":6948:7117   */\n    tag_138:\n      0x00\n        /* \"#utility.yul\":7066:7072   */\n      dup3\n        /* \"#utility.yul\":7061:7064   */\n      dup3\n        /* \"#utility.yul\":7054:7073   */\n      mstore\n        /* \"#utility.yul\":7106:7110   */\n      0x20\n        /* \"#utility.yul\":7101:7104   */\n      dup3\n        /* \"#utility.yul\":7097:7111   */\n      add\n        /* \"#utility.yul\":7082:7111   */\n      swap1\n      pop\n        /* \"#utility.yul\":7044:7117   */\n      swap3\n      swap2\n      pop\n      pop\n      jump\t// out\n        /* \"#utility.yul\":7123:7219   */\n    tag_132:\n      0x00\n        /* \"#utility.yul\":7189:7213   */\n      tag_184\n        /* \"#utility.yul\":7207:7212   */\n      dup3\n        /* \"#utility.yul\":7189:7213   */\n      tag_185\n      jump\t// in\n    tag_184:\n        /* \"#utility.yul\":7178:7213   */\n      swap1\n      pop\n        /* \"#utility.yul\":7168:7219   */\n      swap2\n      swap1\n      pop\n      jump\t// out\n        /* \"#utility.yul\":7225:7351   */\n    tag_185:\n      0x00\n        /* \"#utility.yul\":7302:7344   */\n      0xffffffffffffffffffffffffffffffffffffffff\n        /* \"#utility.yul\":7295:7300   */\n      dup3\n        /* \"#utility.yul\":7291:7345   */\n      and\n        /* \"#utility.yul\":7280:7345   */\n      swap1\n      pop\n        /* \"#utility.yul\":7270:7351   */\n      swap2\n      swap1\n      pop\n      jump\t// out\n        /* \"#utility.yul\":7357:7434   */\n    tag_155:\n      0x00\n        /* \"#utility.yul\":7423:7428   */\n      dup2\n        /* \"#utility.yul\":7412:7428   */\n      swap1\n      pop\n        /* \"#utility.yul\":7402:7434   */\n      swap2\n      swap1\n      pop\n      jump\t// out\n        /* \"#utility.yul\":7440:7594   */\n    tag_112:\n        /* \"#utility.yul\":7524:7530   */\n      dup3\n        /* \"#utility.yul\":7519:7522   */\n      dup2\n        /* \"#utility.yul\":7514:7517   */\n      dup4\n        /* \"#utility.yul\":7501:7531   */\n      calldatacopy\n        /* \"#utility.yul\":7586:7587   */\n      0x00\n        /* \"#utility.yul\":7577:7583   */\n      dup4\n        /* \"#utility.yul\":7572:7575   */\n      dup4\n        /* \"#utility.yul\":7568:7584   */\n      add\n        /* \"#utility.yul\":7561:7588   */\n      mstore\n        /* \"#utility.yul\":7491:7594   */\n      pop\n      pop\n      pop\n      jump\t// out\n        /* \"#utility.yul\":7600:7907   */\n    tag_140:\n        /* \"#utility.yul\":7668:7669   */\n      0x00\n        /* \"#utility.yul\":7678:7791   */\n    tag_190:\n        /* \"#utility.yul\":7692:7698   */\n      dup4\n        /* \"#utility.yul\":7689:7690   */\n      dup2\n        /* \"#utility.yul\":7686:7699   */\n      lt\n        /* \"#utility.yul\":7678:7791   */\n      iszero\n      tag_192\n      jumpi\n        /* \"#utility.yul\":7777:7778   */\n      dup1\n        /* \"#utility.yul\":7772:7775   */\n      dup3\n        /* \"#utility.yul\":7768:7779   */\n      add\n        /* \"#utility.yul\":7762:7780   */\n      mload\n        /* \"#utility.yul\":7758:7759   */\n      dup2\n        /* \"#utility.yul\":7753:7756   */\n      dup5\n        /* \"#utility.yul\":7749:7760   */\n      add\n        /* \"#utility.yul\":7742:7781   */\n      mstore\n        /* \"#utility.yul\":7714:7716   */\n      0x20\n        /* \"#utility.yul\":7711:7712   */\n      dup2\n        /* \"#utility.yul\":7707:7717   */\n      add\n        /* \"#utility.yul\":7702:7717   */\n      swap1\n      pop\n        /* \"#utility.yul\":7678:7791   */\n      jump(tag_190)\n    tag_192:\n        /* \"#utility.yul\":7809:7815   */\n      dup4\n        /* \"#utility.yul\":7806:7807   */\n      dup2\n        /* \"#utility.yul\":7803:7816   */\n      gt\n        /* \"#utility.yul\":7800:7802   */\n      iszero\n      tag_193\n      jumpi\n        /* \"#utility.yul\":7889:7890   */\n      0x00\n        /* \"#utility.yul\":7880:7886   */\n      dup5\n        /* \"#utility.yul\":7875:7878   */\n      dup5\n        /* \"#utility.yul\":7871:7887   */\n      add\n        /* \"#utility.yul\":7864:7891   */\n      mstore\n        /* \"#utility.yul\":7800:7802   */\n    tag_193:\n        /* \"#utility.yul\":7649:7907   */\n      pop\n      pop\n      pop\n      pop\n      jump\t// out\n        /* \"#utility.yul\":7913:8233   */\n    tag_50:\n      0x00\n        /* \"#utility.yul\":7994:7995   */\n      0x02\n        /* \"#utility.yul\":7988:7992   */\n      dup3\n        /* \"#utility.yul\":7984:7996   */\n      div\n        /* \"#utility.yul\":7974:7996   */\n      swap1\n      pop\n        /* \"#utility.yul\":8041:8042   */\n      0x01\n        /* \"#utility.yul\":8035:8039   */\n      dup3\n        /* \"#utility.yul\":8031:8043   */\n      and\n        /* \"#utility.yul\":8062:8080   */\n      dup1\n        /* \"#utility.yul\":8052:8054   */\n      tag_195\n      jumpi\n        /* \"#utility.yul\":8118:8122   */\n      0x7f\n        /* \"#utility.yul\":8110:8116   */\n      dup3\n        /* \"#utility.yul\":8106:8123   */\n      and\n        /* \"#utility.yul\":8096:8123   */\n      swap2\n      pop\n        /* \"#utility.yul\":8052:8054   */\n    tag_195:\n        /* \"#utility.yul\":8180:8182   */\n      0x20\n        /* \"#utility.yul\":8172:8178   */\n      dup3\n        /* \"#utility.yul\":8169:8183   */\n      lt\n        /* \"#utility.yul\":8149:8167   */\n      dup2\n        /* \"#utility.yul\":8146:8184   */\n      eq\n        /* \"#utility.yul\":8143:8145   */\n      iszero\n      tag_196\n      jumpi\n        /* \"#utility.yul\":8199:8217   */\n      tag_197\n      tag_198\n      jump\t// in\n    tag_197:\n        /* \"#utility.yul\":8143:8145   */\n    tag_196:\n        /* \"#utility.yul\":7964:8233   */\n      pop\n      swap2\n      swap1\n      pop\n      jump\t// out\n        /* \"#utility.yul\":8239:8419   */\n    tag_198:\n        /* \"#utility.yul\":8287:8364   */\n      0x4e487b7100000000000000000000000000000000000000000000000000000000\n        /* \"#utility.yul\":8284:8285   */\n      0x00\n        /* \"#utility.yul\":8277:8365   */\n      mstore\n        /* \"#utility.yul\":8384:8388   */\n      0x22\n        /* \"#utility.yul\":8381:8382   */\n      0x04\n        /* \"#utility.yul\":8374:8389   */\n      mstore\n        /* \"#utility.yul\":8408:8412   */\n      0x24\n        /* \"#utility.yul\":8405:8406   */\n      0x00\n        /* \"#utility.yul\":8398:8413   */\n      revert\n        /* \"#utility.yul\":8425:8605   */\n    tag_177:\n        /* \"#utility.yul\":8473:8550   */\n      0x4e487b7100000000000000000000000000000000000000000000000000000000\n        /* \"#utility.yul\":8470:8471   */\n      0x00\n        /* \"#utility.yul\":8463:8551   */\n      mstore\n        /* \"#utility.yul\":8570:8574   */\n      0x41\n        /* \"#utility.yul\":8567:8568   */\n      0x04\n        /* \"#utility.yul\":8560:8575   */\n      mstore\n        /* \"#utility.yul\":8594:8598   */\n      0x24\n        /* \"#utility.yul\":8591:8592   */\n      0x00\n        /* \"#utility.yul\":8584:8599   */\n      revert\n        /* \"#utility.yul\":8611:8713   */\n    tag_142:\n      0x00\n        /* \"#utility.yul\":8703:8705   */\n      0x1f\n        /* \"#utility.yul\":8699:8706   */\n      not\n        /* \"#utility.yul\":8694:8696   */\n      0x1f\n        /* \"#utility.yul\":8687:8692   */\n      dup4\n        /* \"#utility.yul\":8683:8697   */\n      add\n        /* \"#utility.yul\":8679:8707   */\n      and\n        /* \"#utility.yul\":8669:8707   */\n      swap1\n      pop\n        /* \"#utility.yul\":8659:8713   */\n      swap2\n      swap1\n      pop\n      jump\t// out\n        /* \"#utility.yul\":8719:8841   */\n    tag_116:\n        /* \"#utility.yul\":8792:8816   */\n      tag_203\n        /* \"#utility.yul\":8810:8815   */\n      dup2\n        /* \"#utility.yul\":8792:8816   */\n      tag_132\n      jump\t// in\n    tag_203:\n        /* \"#utility.yul\":8785:8790   */\n      dup2\n        /* \"#utility.yul\":8782:8817   */\n      eq\n        /* \"#utility.yul\":8772:8774   */\n      tag_204\n      jumpi\n        /* \"#utility.yul\":8831:8832   */\n      0x00\n        /* \"#utility.yul\":8828:8829   */\n      dup1\n        /* \"#utility.yul\":8821:8833   */\n      revert\n        /* \"#utility.yul\":8772:8774   */\n    tag_204:\n        /* \"#utility.yul\":8762:8841   */\n      pop\n      jump\t// out\n    stop\n    data_2a1b987754417a7149d2973e307fdc805a254284352d6a6abb1975be81a263eb 4e6577204f776e6572206164647265737320697320657175616c20746f206f726967696e616c206f776e65722061646472657373\n    data_87ed42f8fd39a996f9012bde762b4f1b584f13c33358acafe79a1aa81e05a6f6 4f776e657273686970207472616e73666665726564207375636365737366756c6c79\n\n    auxdata: 0xa2646970667358221220de8a7bbb37767bc7fd561285af6bf15480dbdddf08444acc46d468609306dd1064736f6c63430008000033\n}\n",
        "bytecode": {
            "linkReferences": {},
            "object": "608060405234801561001057600080fd5b50611404806100206000396000f3fe608060405234801561001057600080fd5b506004361061007d5760003560e01c80638129fc1c1161005b5780638129fc1c14610104578063893d20e81461010e578063f2fde38b1461012c578063f64e30b01461015c5761007d565b806325f2ac621461008257806363d61166146100b55780637f52e0a7146100e8575b600080fd5b61009c60048036038101906100979190610ef5565b61018c565b6040516100ac94939291906110f7565b60405180910390f35b6100cf60048036038101906100ca9190610ef5565b610504565b6040516100df94939291906110f7565b60405180910390f35b61010260048036038101906100fd9190610ecc565b610872565b005b61010c610a07565b005b610116610ab4565b60405161012391906110ac565b60405180910390f35b61014660048036038101906101419190610ecc565b610add565b6040516101539190611143565b60405180910390f35b61017660048036038101906101719190610ecc565b610c98565b6040516101839190611143565b60405180910390f35b60008060006060853373ffffffffffffffffffffffffffffffffffffffff16600160008373ffffffffffffffffffffffffffffffffffffffff1673ffffffffffffffffffffffffffffffffffffffff16815260200190815260200160002060000160009054906101000a900473ffffffffffffffffffffffffffffffffffffffff1673ffffffffffffffffffffffffffffffffffffffff1614610264576040517f08c379a000000000000000000000000000000000000000000000000000000000815260040161025b906111a5565b60405180910390fd5b85600160008973ffffffffffffffffffffffffffffffffffffffff1673ffffffffffffffffffffffffffffffffffffffff16815260200190815260200160002060030190805190602001906102ba929190610d6c565b5042600160008973ffffffffffffffffffffffffffffffffffffffff1673ffffffffffffffffffffffffffffffffffffffff168152602001908152602001600020600201819055507f2312318cda72db25202ee216222e615408e4d11837ed3f089f89c86de702e69687876040516103339291906110c7565b60405180910390a1600160008873ffffffffffffffffffffffffffffffffffffffff1673ffffffffffffffffffffffffffffffffffffffff16815260200190815260200160002060000160009054906101000a900473ffffffffffffffffffffffffffffffffffffffff16600160008973ffffffffffffffffffffffffffffffffffffffff1673ffffffffffffffffffffffffffffffffffffffff16815260200190815260200160002060010154600160008a73ffffffffffffffffffffffffffffffffffffffff1673ffffffffffffffffffffffffffffffffffffffff16815260200190815260200160002060020154600160008b73ffffffffffffffffffffffffffffffffffffffff1673ffffffffffffffffffffffffffffffffffffffff168152602001908152602001600020600301808054610472906112c0565b80601f016020809104026020016040519081016040528092919081815260200182805461049e906112c0565b80156104eb5780601f106104c0576101008083540402835291602001916104eb565b820191906000526020600020905b8154815290600101906020018083116104ce57829003601f168201915b5050505050905094509450945094505092959194509250565b6000806000606033600160008873ffffffffffffffffffffffffffffffffffffffff1673ffffffffffffffffffffffffffffffffffffffff16815260200190815260200160002060000160006101000a81548173ffffffffffffffffffffffffffffffffffffffff021916908373ffffffffffffffffffffffffffffffffffffffff16021790555042600160008873ffffffffffffffffffffffffffffffffffffffff1673ffffffffffffffffffffffffffffffffffffffff1681526020019081526020016000206001018190555042600160008873ffffffffffffffffffffffffffffffffffffffff1673ffffffffffffffffffffffffffffffffffffffff1681526020019081526020016000206002018190555084600160008873ffffffffffffffffffffffffffffffffffffffff1673ffffffffffffffffffffffffffffffffffffffff1681526020019081526020016000206003019080519060200190610670929190610d6c565b507ff62ed34d06386344717282b704861a00fb3ee41805873a1db48f7c7d1ae532da86866040516106a29291906110c7565b60405180910390a1600160008773ffffffffffffffffffffffffffffffffffffffff1673ffffffffffffffffffffffffffffffffffffffff16815260200190815260200160002060000160009054906101000a900473ffffffffffffffffffffffffffffffffffffffff16600160008873ffffffffffffffffffffffffffffffffffffffff1673ffffffffffffffffffffffffffffffffffffffff16815260200190815260200160002060010154600160008973ffffffffffffffffffffffffffffffffffffffff1673ffffffffffffffffffffffffffffffffffffffff16815260200190815260200160002060020154600160008a73ffffffffffffffffffffffffffffffffffffffff1673ffffffffffffffffffffffffffffffffffffffff1681526020019081526020016000206003018080546107e1906112c0565b80601f016020809104026020016040519081016040528092919081815260200182805461080d906112c0565b801561085a5780601f1061082f5761010080835404028352916020019161085a565b820191906000526020600020905b81548152906001019060200180831161083d57829003601f168201915b50505050509050935093509350935092959194509250565b803373ffffffffffffffffffffffffffffffffffffffff16600160008373ffffffffffffffffffffffffffffffffffffffff1673ffffffffffffffffffffffffffffffffffffffff16815260200190815260200160002060000160009054906101000a900473ffffffffffffffffffffffffffffffffffffffff1673ffffffffffffffffffffffffffffffffffffffff1614610943576040517f08c379a000000000000000000000000000000000000000000000000000000000815260040161093a906111a5565b60405180910390fd5b600160008373ffffffffffffffffffffffffffffffffffffffff1673ffffffffffffffffffffffffffffffffffffffff168152602001908152602001600020600080820160006101000a81549073ffffffffffffffffffffffffffffffffffffffff0219169055600182016000905560028201600090556003820160006109ca9190610df2565b50507fe4d523d170738efb59edc0ff55d3114dc890232222e6ff1bdeb52ddd0ed7e2a9826040516109fb91906110ac565b60405180910390a15050565b600260009054906101000a900460ff1615610a57576040517f08c379a0000000000000000000000000000000000000000000000000000000008152600401610a4e90611185565b60405180910390fd5b6001600260006101000a81548160ff021916908315150217905550336000806101000a81548173ffffffffffffffffffffffffffffffffffffffff021916908373ffffffffffffffffffffffffffffffffffffffff160217905550565b60008060009054906101000a900473ffffffffffffffffffffffffffffffffffffffff16905090565b606060008054906101000a900473ffffffffffffffffffffffffffffffffffffffff1673ffffffffffffffffffffffffffffffffffffffff163373ffffffffffffffffffffffffffffffffffffffff1614610b6d576040517f08c379a0000000000000000000000000000000000000000000000000000000008152600401610b6490611165565b60405180910390fd5b8173ffffffffffffffffffffffffffffffffffffffff1660008054906101000a900473ffffffffffffffffffffffffffffffffffffffff1673ffffffffffffffffffffffffffffffffffffffff1614610c7757816000806101000a81548173ffffffffffffffffffffffffffffffffffffffff021916908373ffffffffffffffffffffffffffffffffffffffff1602179055507fcfaaa26691e16e66e73290fc725eee1a6b4e0e693a1640484937aac25ffb55a460008054906101000a900473ffffffffffffffffffffffffffffffffffffffff16604051610c4f91906110ac565b60405180910390a16040518060600160405280602281526020016113ad602291399050610c93565b6040518060600160405280603481526020016113796034913990505b919050565b6060600160008373ffffffffffffffffffffffffffffffffffffffff1673ffffffffffffffffffffffffffffffffffffffff1681526020019081526020016000206003018054610ce7906112c0565b80601f0160208091040260200160405190810160405280929190818152602001828054610d13906112c0565b8015610d605780601f10610d3557610100808354040283529160200191610d60565b820191906000526020600020905b815481529060010190602001808311610d4357829003601f168201915b50505050509050919050565b828054610d78906112c0565b90600052602060002090601f016020900481019282610d9a5760008555610de1565b82601f10610db357805160ff1916838001178555610de1565b82800160010185558215610de1579182015b82811115610de0578251825591602001919060010190610dc5565b5b509050610dee9190610e32565b5090565b508054610dfe906112c0565b6000825580601f10610e105750610e2f565b601f016020900490600052602060002090810190610e2e9190610e32565b5b50565b5b80821115610e4b576000816000905550600101610e33565b5090565b6000610e62610e5d846111f6565b6111c5565b905082815260208101848484011115610e7a57600080fd5b610e8584828561127e565b509392505050565b600081359050610e9c81611361565b92915050565b600082601f830112610eb357600080fd5b8135610ec3848260208601610e4f565b91505092915050565b600060208284031215610ede57600080fd5b6000610eec84828501610e8d565b91505092915050565b60008060408385031215610f0857600080fd5b6000610f1685828601610e8d565b925050602083013567ffffffffffffffff811115610f3357600080fd5b610f3f85828601610ea2565b9150509250929050565b610f5281611242565b82525050565b6000610f6382611226565b610f6d8185611231565b9350610f7d81856020860161128d565b610f8681611350565b840191505092915050565b6000610f9e601f83611231565b91507f6d6573736167652073656e646572206973206e6f7420746865206f776e6572006000830152602082019050919050565b6000610fde602e83611231565b91507f436f6e747261637420696e7374616e63652068617320616c726561647920626560008301527f656e20696e697469616c697a65640000000000000000000000000000000000006020830152604082019050919050565b6000611044603383611231565b91507f6d6573736167652073656e646572206973206e6f742074686520636f6e74726f60008301527f6c6c6572206f66207468652044494420446f63000000000000000000000000006020830152604082019050919050565b6110a681611274565b82525050565b60006020820190506110c16000830184610f49565b92915050565b60006040820190506110dc6000830185610f49565b81810360208301526110ee8184610f58565b90509392505050565b600060808201905061110c6000830187610f49565b611119602083018661109d565b611126604083018561109d565b81810360608301526111388184610f58565b905095945050505050565b6000602082019050818103600083015261115d8184610f58565b905092915050565b6000602082019050818103600083015261117e81610f91565b9050919050565b6000602082019050818103600083015261119e81610fd1565b9050919050565b600060208201905081810360008301526111be81611037565b9050919050565b6000604051905081810181811067ffffffffffffffff821117156111ec576111eb611321565b5b8060405250919050565b600067ffffffffffffffff82111561121157611210611321565b5b601f19601f8301169050602081019050919050565b600081519050919050565b600082825260208201905092915050565b600061124d82611254565b9050919050565b600073ffffffffffffffffffffffffffffffffffffffff82169050919050565b6000819050919050565b82818337600083830152505050565b60005b838110156112ab578082015181840152602081019050611290565b838111156112ba576000848401525b50505050565b600060028204905060018216806112d857607f821691505b602082108114156112ec576112eb6112f2565b5b50919050565b7f4e487b7100000000000000000000000000000000000000000000000000000000600052602260045260246000fd5b7f4e487b7100000000000000000000000000000000000000000000000000000000600052604160045260246000fd5b6000601f19601f8301169050919050565b61136a81611242565b811461137557600080fd5b5056fe4e6577204f776e6572206164647265737320697320657175616c20746f206f726967696e616c206f776e657220616464726573734f776e657273686970207472616e73666665726564207375636365737366756c6c79a2646970667358221220de8a7bbb37767bc7fd561285af6bf15480dbdddf08444acc46d468609306dd1064736f6c63430008000033",
            "opcodes": "PUSH1 0x80 PUSH1 0x40 MSTORE CALLVALUE DUP1 ISZERO PUSH2 0x10 JUMPI PUSH1 0x0 DUP1 REVERT JUMPDEST POP PUSH2 0x1404 DUP1 PUSH2 0x20 PUSH1 0x0 CODECOPY PUSH1 0x0 RETURN INVALID PUSH1 0x80 PUSH1 0x40 MSTORE CALLVALUE DUP1 ISZERO PUSH2 0x10 JUMPI PUSH1 0x0 DUP1 REVERT JUMPDEST POP PUSH1 0x4 CALLDATASIZE LT PUSH2 0x7D JUMPI PUSH1 0x0 CALLDATALOAD PUSH1 0xE0 SHR DUP1 PUSH4 0x8129FC1C GT PUSH2 0x5B JUMPI DUP1 PUSH4 0x8129FC1C EQ PUSH2 0x104 JUMPI DUP1 PUSH4 0x893D20E8 EQ PUSH2 0x10E JUMPI DUP1 PUSH4 0xF2FDE38B EQ PUSH2 0x12C JUMPI DUP1 PUSH4 0xF64E30B0 EQ PUSH2 0x15C JUMPI PUSH2 0x7D JUMP JUMPDEST DUP1 PUSH4 0x25F2AC62 EQ PUSH2 0x82 JUMPI DUP1 PUSH4 0x63D61166 EQ PUSH2 0xB5 JUMPI DUP1 PUSH4 0x7F52E0A7 EQ PUSH2 0xE8 JUMPI JUMPDEST PUSH1 0x0 DUP1 REVERT JUMPDEST PUSH2 0x9C PUSH1 0x4 DUP1 CALLDATASIZE SUB DUP2 ADD SWAP1 PUSH2 0x97 SWAP2 SWAP1 PUSH2 0xEF5 JUMP JUMPDEST PUSH2 0x18C JUMP JUMPDEST PUSH1 0x40 MLOAD PUSH2 0xAC SWAP5 SWAP4 SWAP3 SWAP2 SWAP1 PUSH2 0x10F7 JUMP JUMPDEST PUSH1 0x40 MLOAD DUP1 SWAP2 SUB SWAP1 RETURN JUMPDEST PUSH2 0xCF PUSH1 0x4 DUP1 CALLDATASIZE SUB DUP2 ADD SWAP1 PUSH2 0xCA SWAP2 SWAP1 PUSH2 0xEF5 JUMP JUMPDEST PUSH2 0x504 JUMP JUMPDEST PUSH1 0x40 MLOAD PUSH2 0xDF SWAP5 SWAP4 SWAP3 SWAP2 SWAP1 PUSH2 0x10F7 JUMP JUMPDEST PUSH1 0x40 MLOAD DUP1 SWAP2 SUB SWAP1 RETURN JUMPDEST PUSH2 0x102 PUSH1 0x4 DUP1 CALLDATASIZE SUB DUP2 ADD SWAP1 PUSH2 0xFD SWAP2 SWAP1 PUSH2 0xECC JUMP JUMPDEST PUSH2 0x872 JUMP JUMPDEST STOP JUMPDEST PUSH2 0x10C PUSH2 0xA07 JUMP JUMPDEST STOP JUMPDEST PUSH2 0x116 PUSH2 0xAB4 JUMP JUMPDEST PUSH1 0x40 MLOAD PUSH2 0x123 SWAP2 SWAP1 PUSH2 0x10AC JUMP JUMPDEST PUSH1 0x40 MLOAD DUP1 SWAP2 SUB SWAP1 RETURN JUMPDEST PUSH2 0x146 PUSH1 0x4 DUP1 CALLDATASIZE SUB DUP2 ADD SWAP1 PUSH2 0x141 SWAP2 SWAP1 PUSH2 0xECC JUMP JUMPDEST PUSH2 0xADD JUMP JUMPDEST PUSH1 0x40 MLOAD PUSH2 0x153 SWAP2 SWAP1 PUSH2 0x1143 JUMP JUMPDEST PUSH1 0x40 MLOAD DUP1 SWAP2 SUB SWAP1 RETURN JUMPDEST PUSH2 0x176 PUSH1 0x4 DUP1 CALLDATASIZE SUB DUP2 ADD SWAP1 PUSH2 0x171 SWAP2 SWAP1 PUSH2 0xECC JUMP JUMPDEST PUSH2 0xC98 JUMP JUMPDEST PUSH1 0x40 MLOAD PUSH2 0x183 SWAP2 SWAP1 PUSH2 0x1143 JUMP JUMPDEST PUSH1 0x40 MLOAD DUP1 SWAP2 SUB SWAP1 RETURN JUMPDEST PUSH1 0x0 DUP1 PUSH1 0x0 PUSH1 0x60 DUP6 CALLER PUSH20 0xFFFFFFFFFFFFFFFFFFFFFFFFFFFFFFFFFFFFFFFF AND PUSH1 0x1 PUSH1 0x0 DUP4 PUSH20 0xFFFFFFFFFFFFFFFFFFFFFFFFFFFFFFFFFFFFFFFF AND PUSH20 0xFFFFFFFFFFFFFFFFFFFFFFFFFFFFFFFFFFFFFFFF AND DUP2 MSTORE PUSH1 0x20 ADD SWAP1 DUP2 MSTORE PUSH1 0x20 ADD PUSH1 0x0 KECCAK256 PUSH1 0x0 ADD PUSH1 0x0 SWAP1 SLOAD SWAP1 PUSH2 0x100 EXP SWAP1 DIV PUSH20 0xFFFFFFFFFFFFFFFFFFFFFFFFFFFFFFFFFFFFFFFF AND PUSH20 0xFFFFFFFFFFFFFFFFFFFFFFFFFFFFFFFFFFFFFFFF AND EQ PUSH2 0x264 JUMPI PUSH1 0x40 MLOAD PUSH32 0x8C379A000000000000000000000000000000000000000000000000000000000 DUP2 MSTORE PUSH1 0x4 ADD PUSH2 0x25B SWAP1 PUSH2 0x11A5 JUMP JUMPDEST PUSH1 0x40 MLOAD DUP1 SWAP2 SUB SWAP1 REVERT JUMPDEST DUP6 PUSH1 0x1 PUSH1 0x0 DUP10 PUSH20 0xFFFFFFFFFFFFFFFFFFFFFFFFFFFFFFFFFFFFFFFF AND PUSH20 0xFFFFFFFFFFFFFFFFFFFFFFFFFFFFFFFFFFFFFFFF AND DUP2 MSTORE PUSH1 0x20 ADD SWAP1 DUP2 MSTORE PUSH1 0x20 ADD PUSH1 0x0 KECCAK256 PUSH1 0x3 ADD SWAP1 DUP1 MLOAD SWAP1 PUSH1 0x20 ADD SWAP1 PUSH2 0x2BA SWAP3 SWAP2 SWAP1 PUSH2 0xD6C JUMP JUMPDEST POP TIMESTAMP PUSH1 0x1 PUSH1 0x0 DUP10 PUSH20 0xFFFFFFFFFFFFFFFFFFFFFFFFFFFFFFFFFFFFFFFF AND PUSH20 0xFFFFFFFFFFFFFFFFFFFFFFFFFFFFFFFFFFFFFFFF AND DUP2 MSTORE PUSH1 0x20 ADD SWAP1 DUP2 MSTORE PUSH1 0x20 ADD PUSH1 0x0 KECCAK256 PUSH1 0x2 ADD DUP2 SWAP1 SSTORE POP PUSH32 0x2312318CDA72DB25202EE216222E615408E4D11837ED3F089F89C86DE702E696 DUP8 DUP8 PUSH1 0x40 MLOAD PUSH2 0x333 SWAP3 SWAP2 SWAP1 PUSH2 0x10C7 JUMP JUMPDEST PUSH1 0x40 MLOAD DUP1 SWAP2 SUB SWAP1 LOG1 PUSH1 0x1 PUSH1 0x0 DUP9 PUSH20 0xFFFFFFFFFFFFFFFFFFFFFFFFFFFFFFFFFFFFFFFF AND PUSH20 0xFFFFFFFFFFFFFFFFFFFFFFFFFFFFFFFFFFFFFFFF AND DUP2 MSTORE PUSH1 0x20 ADD SWAP1 DUP2 MSTORE PUSH1 0x20 ADD PUSH1 0x0 KECCAK256 PUSH1 0x0 ADD PUSH1 0x0 SWAP1 SLOAD SWAP1 PUSH2 0x100 EXP SWAP1 DIV PUSH20 0xFFFFFFFFFFFFFFFFFFFFFFFFFFFFFFFFFFFFFFFF AND PUSH1 0x1 PUSH1 0x0 DUP10 PUSH20 0xFFFFFFFFFFFFFFFFFFFFFFFFFFFFFFFFFFFFFFFF AND PUSH20 0xFFFFFFFFFFFFFFFFFFFFFFFFFFFFFFFFFFFFFFFF AND DUP2 MSTORE PUSH1 0x20 ADD SWAP1 DUP2 MSTORE PUSH1 0x20 ADD PUSH1 0x0 KECCAK256 PUSH1 0x1 ADD SLOAD PUSH1 0x1 PUSH1 0x0 DUP11 PUSH20 0xFFFFFFFFFFFFFFFFFFFFFFFFFFFFFFFFFFFFFFFF AND PUSH20 0xFFFFFFFFFFFFFFFFFFFFFFFFFFFFFFFFFFFFFFFF AND DUP2 MSTORE PUSH1 0x20 ADD SWAP1 DUP2 MSTORE PUSH1 0x20 ADD PUSH1 0x0 KECCAK256 PUSH1 0x2 ADD SLOAD PUSH1 0x1 PUSH1 0x0 DUP12 PUSH20 0xFFFFFFFFFFFFFFFFFFFFFFFFFFFFFFFFFFFFFFFF AND PUSH20 0xFFFFFFFFFFFFFFFFFFFFFFFFFFFFFFFFFFFFFFFF AND DUP2 MSTORE PUSH1 0x20 ADD SWAP1 DUP2 MSTORE PUSH1 0x20 ADD PUSH1 0x0 KECCAK256 PUSH1 0x3 ADD DUP1 DUP1 SLOAD PUSH2 0x472 SWAP1 PUSH2 0x12C0 JUMP JUMPDEST DUP1 PUSH1 0x1F ADD PUSH1 0x20 DUP1 SWAP2 DIV MUL PUSH1 0x20 ADD PUSH1 0x40 MLOAD SWAP1 DUP2 ADD PUSH1 0x40 MSTORE DUP1 SWAP3 SWAP2 SWAP1 DUP2 DUP2 MSTORE PUSH1 0x20 ADD DUP3 DUP1 SLOAD PUSH2 0x49E SWAP1 PUSH2 0x12C0 JUMP JUMPDEST DUP1 ISZERO PUSH2 0x4EB JUMPI DUP1 PUSH1 0x1F LT PUSH2 0x4C0 JUMPI PUSH2 0x100 DUP1 DUP4 SLOAD DIV MUL DUP4 MSTORE SWAP2 PUSH1 0x20 ADD SWAP2 PUSH2 0x4EB JUMP JUMPDEST DUP3 ADD SWAP2 SWAP1 PUSH1 0x0 MSTORE PUSH1 0x20 PUSH1 0x0 KECCAK256 SWAP1 JUMPDEST DUP2 SLOAD DUP2 MSTORE SWAP1 PUSH1 0x1 ADD SWAP1 PUSH1 0x20 ADD DUP1 DUP4 GT PUSH2 0x4CE JUMPI DUP3 SWAP1 SUB PUSH1 0x1F AND DUP3 ADD SWAP2 JUMPDEST POP POP POP POP POP SWAP1 POP SWAP5 POP SWAP5 POP SWAP5 POP SWAP5 POP POP SWAP3 SWAP6 SWAP2 SWAP5 POP SWAP3 POP JUMP JUMPDEST PUSH1 0x0 DUP1 PUSH1 0x0 PUSH1 0x60 CALLER PUSH1 0x1 PUSH1 0x0 DUP9 PUSH20 0xFFFFFFFFFFFFFFFFFFFFFFFFFFFFFFFFFFFFFFFF AND PUSH20 0xFFFFFFFFFFFFFFFFFFFFFFFFFFFFFFFFFFFFFFFF AND DUP2 MSTORE PUSH1 0x20 ADD SWAP1 DUP2 MSTORE PUSH1 0x20 ADD PUSH1 0x0 KECCAK256 PUSH1 0x0 ADD PUSH1 0x0 PUSH2 0x100 EXP DUP2 SLOAD DUP2 PUSH20 0xFFFFFFFFFFFFFFFFFFFFFFFFFFFFFFFFFFFFFFFF MUL NOT AND SWAP1 DUP4 PUSH20 0xFFFFFFFFFFFFFFFFFFFFFFFFFFFFFFFFFFFFFFFF AND MUL OR SWAP1 SSTORE POP TIMESTAMP PUSH1 0x1 PUSH1 0x0 DUP9 PUSH20 0xFFFFFFFFFFFFFFFFFFFFFFFFFFFFFFFFFFFFFFFF AND PUSH20 0xFFFFFFFFFFFFFFFFFFFFFFFFFFFFFFFFFFFFFFFF AND DUP2 MSTORE PUSH1 0x20 ADD SWAP1 DUP2 MSTORE PUSH1 0x20 ADD PUSH1 0x0 KECCAK256 PUSH1 0x1 ADD DUP2 SWAP1 SSTORE POP TIMESTAMP PUSH1 0x1 PUSH1 0x0 DUP9 PUSH20 0xFFFFFFFFFFFFFFFFFFFFFFFFFFFFFFFFFFFFFFFF AND PUSH20 0xFFFFFFFFFFFFFFFFFFFFFFFFFFFFFFFFFFFFFFFF AND DUP2 MSTORE PUSH1 0x20 ADD SWAP1 DUP2 MSTORE PUSH1 0x20 ADD PUSH1 0x0 KECCAK256 PUSH1 0x2 ADD DUP2 SWAP1 SSTORE POP DUP5 PUSH1 0x1 PUSH1 0x0 DUP9 PUSH20 0xFFFFFFFFFFFFFFFFFFFFFFFFFFFFFFFFFFFFFFFF AND PUSH20 0xFFFFFFFFFFFFFFFFFFFFFFFFFFFFFFFFFFFFFFFF AND DUP2 MSTORE PUSH1 0x20 ADD SWAP1 DUP2 MSTORE PUSH1 0x20 ADD PUSH1 0x0 KECCAK256 PUSH1 0x3 ADD SWAP1 DUP1 MLOAD SWAP1 PUSH1 0x20 ADD SWAP1 PUSH2 0x670 SWAP3 SWAP2 SWAP1 PUSH2 0xD6C JUMP JUMPDEST POP PUSH32 0xF62ED34D06386344717282B704861A00FB3EE41805873A1DB48F7C7D1AE532DA DUP7 DUP7 PUSH1 0x40 MLOAD PUSH2 0x6A2 SWAP3 SWAP2 SWAP1 PUSH2 0x10C7 JUMP JUMPDEST PUSH1 0x40 MLOAD DUP1 SWAP2 SUB SWAP1 LOG1 PUSH1 0x1 PUSH1 0x0 DUP8 PUSH20 0xFFFFFFFFFFFFFFFFFFFFFFFFFFFFFFFFFFFFFFFF AND PUSH20 0xFFFFFFFFFFFFFFFFFFFFFFFFFFFFFFFFFFFFFFFF AND DUP2 MSTORE PUSH1 0x20 ADD SWAP1 DUP2 MSTORE PUSH1 0x20 ADD PUSH1 0x0 KECCAK256 PUSH1 0x0 ADD PUSH1 0x0 SWAP1 SLOAD SWAP1 PUSH2 0x100 EXP SWAP1 DIV PUSH20 0xFFFFFFFFFFFFFFFFFFFFFFFFFFFFFFFFFFFFFFFF AND PUSH1 0x1 PUSH1 0x0 DUP9 PUSH20 0xFFFFFFFFFFFFFFFFFFFFFFFFFFFFFFFFFFFFFFFF AND PUSH20 0xFFFFFFFFFFFFFFFFFFFFFFFFFFFFFFFFFFFFFFFF AND DUP2 MSTORE PUSH1 0x20 ADD SWAP1 DUP2 MSTORE PUSH1 0x20 ADD PUSH1 0x0 KECCAK256 PUSH1 0x1 ADD SLOAD PUSH1 0x1 PUSH1 0x0 DUP10 PUSH20 0xFFFFFFFFFFFFFFFFFFFFFFFFFFFFFFFFFFFFFFFF AND PUSH20 0xFFFFFFFFFFFFFFFFFFFFFFFFFFFFFFFFFFFFFFFF AND DUP2 MSTORE PUSH1 0x20 ADD SWAP1 DUP2 MSTORE PUSH1 0x20 ADD PUSH1 0x0 KECCAK256 PUSH1 0x2 ADD SLOAD PUSH1 0x1 PUSH1 0x0 DUP11 PUSH20 0xFFFFFFFFFFFFFFFFFFFFFFFFFFFFFFFFFFFFFFFF AND PUSH20 0xFFFFFFFFFFFFFFFFFFFFFFFFFFFFFFFFFFFFFFFF AND DUP2 MSTORE PUSH1 0x20 ADD SWAP1 DUP2 MSTORE PUSH1 0x20 ADD PUSH1 0x0 KECCAK256 PUSH1 0x3 ADD DUP1 DUP1 SLOAD PUSH2 0x7E1 SWAP1 PUSH2 0x12C0 JUMP JUMPDEST DUP1 PUSH1 0x1F ADD PUSH1 0x20 DUP1 SWAP2 DIV MUL PUSH1 0x20 ADD PUSH1 0x40 MLOAD SWAP1 DUP2 ADD PUSH1 0x40 MSTORE DUP1 SWAP3 SWAP2 SWAP1 DUP2 DUP2 MSTORE PUSH1 0x20 ADD DUP3 DUP1 SLOAD PUSH2 0x80D SWAP1 PUSH2 0x12C0 JUMP JUMPDEST DUP1 ISZERO PUSH2 0x85A JUMPI DUP1 PUSH1 0x1F LT PUSH2 0x82F JUMPI PUSH2 0x100 DUP1 DUP4 SLOAD DIV MUL DUP4 MSTORE SWAP2 PUSH1 0x20 ADD SWAP2 PUSH2 0x85A JUMP JUMPDEST DUP3 ADD SWAP2 SWAP1 PUSH1 0x0 MSTORE PUSH1 0x20 PUSH1 0x0 KECCAK256 SWAP1 JUMPDEST DUP2 SLOAD DUP2 MSTORE SWAP1 PUSH1 0x1 ADD SWAP1 PUSH1 0x20 ADD DUP1 DUP4 GT PUSH2 0x83D JUMPI DUP3 SWAP1 SUB PUSH1 0x1F AND DUP3 ADD SWAP2 JUMPDEST POP POP POP POP POP SWAP1 POP SWAP4 POP SWAP4 POP SWAP4 POP SWAP4 POP SWAP3 SWAP6 SWAP2 SWAP5 POP SWAP3 POP JUMP JUMPDEST DUP1 CALLER PUSH20 0xFFFFFFFFFFFFFFFFFFFFFFFFFFFFFFFFFFFFFFFF AND PUSH1 0x1 PUSH1 0x0 DUP4 PUSH20 0xFFFFFFFFFFFFFFFFFFFFFFFFFFFFFFFFFFFFFFFF AND PUSH20 0xFFFFFFFFFFFFFFFFFFFFFFFFFFFFFFFFFFFFFFFF AND DUP2 MSTORE PUSH1 0x20 ADD SWAP1 DUP2 MSTORE PUSH1 0x20 ADD PUSH1 0x0 KECCAK256 PUSH1 0x0 ADD PUSH1 0x0 SWAP1 SLOAD SWAP1 PUSH2 0x100 EXP SWAP1 DIV PUSH20 0xFFFFFFFFFFFFFFFFFFFFFFFFFFFFFFFFFFFFFFFF AND PUSH20 0xFFFFFFFFFFFFFFFFFFFFFFFFFFFFFFFFFFFFFFFF AND EQ PUSH2 0x943 JUMPI PUSH1 0x40 MLOAD PUSH32 0x8C379A000000000000000000000000000000000000000000000000000000000 DUP2 MSTORE PUSH1 0x4 ADD PUSH2 0x93A SWAP1 PUSH2 0x11A5 JUMP JUMPDEST PUSH1 0x40 MLOAD DUP1 SWAP2 SUB SWAP1 REVERT JUMPDEST PUSH1 0x1 PUSH1 0x0 DUP4 PUSH20 0xFFFFFFFFFFFFFFFFFFFFFFFFFFFFFFFFFFFFFFFF AND PUSH20 0xFFFFFFFFFFFFFFFFFFFFFFFFFFFFFFFFFFFFFFFF AND DUP2 MSTORE PUSH1 0x20 ADD SWAP1 DUP2 MSTORE PUSH1 0x20 ADD PUSH1 0x0 KECCAK256 PUSH1 0x0 DUP1 DUP3 ADD PUSH1 0x0 PUSH2 0x100 EXP DUP2 SLOAD SWAP1 PUSH20 0xFFFFFFFFFFFFFFFFFFFFFFFFFFFFFFFFFFFFFFFF MUL NOT AND SWAP1 SSTORE PUSH1 0x1 DUP3 ADD PUSH1 0x0 SWAP1 SSTORE PUSH1 0x2 DUP3 ADD PUSH1 0x0 SWAP1 SSTORE PUSH1 0x3 DUP3 ADD PUSH1 0x0 PUSH2 0x9CA SWAP2 SWAP1 PUSH2 0xDF2 JUMP JUMPDEST POP POP PUSH32 0xE4D523D170738EFB59EDC0FF55D3114DC890232222E6FF1BDEB52DDD0ED7E2A9 DUP3 PUSH1 0x40 MLOAD PUSH2 0x9FB SWAP2 SWAP1 PUSH2 0x10AC JUMP JUMPDEST PUSH1 0x40 MLOAD DUP1 SWAP2 SUB SWAP1 LOG1 POP POP JUMP JUMPDEST PUSH1 0x2 PUSH1 0x0 SWAP1 SLOAD SWAP1 PUSH2 0x100 EXP SWAP1 DIV PUSH1 0xFF AND ISZERO PUSH2 0xA57 JUMPI PUSH1 0x40 MLOAD PUSH32 0x8C379A000000000000000000000000000000000000000000000000000000000 DUP2 MSTORE PUSH1 0x4 ADD PUSH2 0xA4E SWAP1 PUSH2 0x1185 JUMP JUMPDEST PUSH1 0x40 MLOAD DUP1 SWAP2 SUB SWAP1 REVERT JUMPDEST PUSH1 0x1 PUSH1 0x2 PUSH1 0x0 PUSH2 0x100 EXP DUP2 SLOAD DUP2 PUSH1 0xFF MUL NOT AND SWAP1 DUP4 ISZERO ISZERO MUL OR SWAP1 SSTORE POP CALLER PUSH1 0x0 DUP1 PUSH2 0x100 EXP DUP2 SLOAD DUP2 PUSH20 0xFFFFFFFFFFFFFFFFFFFFFFFFFFFFFFFFFFFFFFFF MUL NOT AND SWAP1 DUP4 PUSH20 0xFFFFFFFFFFFFFFFFFFFFFFFFFFFFFFFFFFFFFFFF AND MUL OR SWAP1 SSTORE POP JUMP JUMPDEST PUSH1 0x0 DUP1 PUSH1 0x0 SWAP1 SLOAD SWAP1 PUSH2 0x100 EXP SWAP1 DIV PUSH20 0xFFFFFFFFFFFFFFFFFFFFFFFFFFFFFFFFFFFFFFFF AND SWAP1 POP SWAP1 JUMP JUMPDEST PUSH1 0x60 PUSH1 0x0 DUP1 SLOAD SWAP1 PUSH2 0x100 EXP SWAP1 DIV PUSH20 0xFFFFFFFFFFFFFFFFFFFFFFFFFFFFFFFFFFFFFFFF AND PUSH20 0xFFFFFFFFFFFFFFFFFFFFFFFFFFFFFFFFFFFFFFFF AND CALLER PUSH20 0xFFFFFFFFFFFFFFFFFFFFFFFFFFFFFFFFFFFFFFFF AND EQ PUSH2 0xB6D JUMPI PUSH1 0x40 MLOAD PUSH32 0x8C379A000000000000000000000000000000000000000000000000000000000 DUP2 MSTORE PUSH1 0x4 ADD PUSH2 0xB64 SWAP1 PUSH2 0x1165 JUMP JUMPDEST PUSH1 0x40 MLOAD DUP1 SWAP2 SUB SWAP1 REVERT JUMPDEST DUP2 PUSH20 0xFFFFFFFFFFFFFFFFFFFFFFFFFFFFFFFFFFFFFFFF AND PUSH1 0x0 DUP1 SLOAD SWAP1 PUSH2 0x100 EXP SWAP1 DIV PUSH20 0xFFFFFFFFFFFFFFFFFFFFFFFFFFFFFFFFFFFFFFFF AND PUSH20 0xFFFFFFFFFFFFFFFFFFFFFFFFFFFFFFFFFFFFFFFF AND EQ PUSH2 0xC77 JUMPI DUP2 PUSH1 0x0 DUP1 PUSH2 0x100 EXP DUP2 SLOAD DUP2 PUSH20 0xFFFFFFFFFFFFFFFFFFFFFFFFFFFFFFFFFFFFFFFF MUL NOT AND SWAP1 DUP4 PUSH20 0xFFFFFFFFFFFFFFFFFFFFFFFFFFFFFFFFFFFFFFFF AND MUL OR SWAP1 SSTORE POP PUSH32 0xCFAAA26691E16E66E73290FC725EEE1A6B4E0E693A1640484937AAC25FFB55A4 PUSH1 0x0 DUP1 SLOAD SWAP1 PUSH2 0x100 EXP SWAP1 DIV PUSH20 0xFFFFFFFFFFFFFFFFFFFFFFFFFFFFFFFFFFFFFFFF AND PUSH1 0x40 MLOAD PUSH2 0xC4F SWAP2 SWAP1 PUSH2 0x10AC JUMP JUMPDEST PUSH1 0x40 MLOAD DUP1 SWAP2 SUB SWAP1 LOG1 PUSH1 0x40 MLOAD DUP1 PUSH1 0x60 ADD PUSH1 0x40 MSTORE DUP1 PUSH1 0x22 DUP2 MSTORE PUSH1 0x20 ADD PUSH2 0x13AD PUSH1 0x22 SWAP2 CODECOPY SWAP1 POP PUSH2 0xC93 JUMP JUMPDEST PUSH1 0x40 MLOAD DUP1 PUSH1 0x60 ADD PUSH1 0x40 MSTORE DUP1 PUSH1 0x34 DUP2 MSTORE PUSH1 0x20 ADD PUSH2 0x1379 PUSH1 0x34 SWAP2 CODECOPY SWAP1 POP JUMPDEST SWAP2 SWAP1 POP JUMP JUMPDEST PUSH1 0x60 PUSH1 0x1 PUSH1 0x0 DUP4 PUSH20 0xFFFFFFFFFFFFFFFFFFFFFFFFFFFFFFFFFFFFFFFF AND PUSH20 0xFFFFFFFFFFFFFFFFFFFFFFFFFFFFFFFFFFFFFFFF AND DUP2 MSTORE PUSH1 0x20 ADD SWAP1 DUP2 MSTORE PUSH1 0x20 ADD PUSH1 0x0 KECCAK256 PUSH1 0x3 ADD DUP1 SLOAD PUSH2 0xCE7 SWAP1 PUSH2 0x12C0 JUMP JUMPDEST DUP1 PUSH1 0x1F ADD PUSH1 0x20 DUP1 SWAP2 DIV MUL PUSH1 0x20 ADD PUSH1 0x40 MLOAD SWAP1 DUP2 ADD PUSH1 0x40 MSTORE DUP1 SWAP3 SWAP2 SWAP1 DUP2 DUP2 MSTORE PUSH1 0x20 ADD DUP3 DUP1 SLOAD PUSH2 0xD13 SWAP1 PUSH2 0x12C0 JUMP JUMPDEST DUP1 ISZERO PUSH2 0xD60 JUMPI DUP1 PUSH1 0x1F LT PUSH2 0xD35 JUMPI PUSH2 0x100 DUP1 DUP4 SLOAD DIV MUL DUP4 MSTORE SWAP2 PUSH1 0x20 ADD SWAP2 PUSH2 0xD60 JUMP JUMPDEST DUP3 ADD SWAP2 SWAP1 PUSH1 0x0 MSTORE PUSH1 0x20 PUSH1 0x0 KECCAK256 SWAP1 JUMPDEST DUP2 SLOAD DUP2 MSTORE SWAP1 PUSH1 0x1 ADD SWAP1 PUSH1 0x20 ADD DUP1 DUP4 GT PUSH2 0xD43 JUMPI DUP3 SWAP1 SUB PUSH1 0x1F AND DUP3 ADD SWAP2 JUMPDEST POP POP POP POP POP SWAP1 POP SWAP2 SWAP1 POP JUMP JUMPDEST DUP3 DUP1 SLOAD PUSH2 0xD78 SWAP1 PUSH2 0x12C0 JUMP JUMPDEST SWAP1 PUSH1 0x0 MSTORE PUSH1 0x20 PUSH1 0x0 KECCAK256 SWAP1 PUSH1 0x1F ADD PUSH1 0x20 SWAP1 DIV DUP2 ADD SWAP3 DUP3 PUSH2 0xD9A JUMPI PUSH1 0x0 DUP6 SSTORE PUSH2 0xDE1 JUMP JUMPDEST DUP3 PUSH1 0x1F LT PUSH2 0xDB3 JUMPI DUP1 MLOAD PUSH1 0xFF NOT AND DUP4 DUP1 ADD OR DUP6 SSTORE PUSH2 0xDE1 JUMP JUMPDEST DUP3 DUP1 ADD PUSH1 0x1 ADD DUP6 SSTORE DUP3 ISZERO PUSH2 0xDE1 JUMPI SWAP2 DUP3 ADD JUMPDEST DUP3 DUP2 GT ISZERO PUSH2 0xDE0 JUMPI DUP3 MLOAD DUP3 SSTORE SWAP2 PUSH1 0x20 ADD SWAP2 SWAP1 PUSH1 0x1 ADD SWAP1 PUSH2 0xDC5 JUMP JUMPDEST JUMPDEST POP SWAP1 POP PUSH2 0xDEE SWAP2 SWAP1 PUSH2 0xE32 JUMP JUMPDEST POP SWAP1 JUMP JUMPDEST POP DUP1 SLOAD PUSH2 0xDFE SWAP1 PUSH2 0x12C0 JUMP JUMPDEST PUSH1 0x0 DUP3 SSTORE DUP1 PUSH1 0x1F LT PUSH2 0xE10 JUMPI POP PUSH2 0xE2F JUMP JUMPDEST PUSH1 0x1F ADD PUSH1 0x20 SWAP1 DIV SWAP1 PUSH1 0x0 MSTORE PUSH1 0x20 PUSH1 0x0 KECCAK256 SWAP1 DUP2 ADD SWAP1 PUSH2 0xE2E SWAP2 SWAP1 PUSH2 0xE32 JUMP JUMPDEST JUMPDEST POP JUMP JUMPDEST JUMPDEST DUP1 DUP3 GT ISZERO PUSH2 0xE4B JUMPI PUSH1 0x0 DUP2 PUSH1 0x0 SWAP1 SSTORE POP PUSH1 0x1 ADD PUSH2 0xE33 JUMP JUMPDEST POP SWAP1 JUMP JUMPDEST PUSH1 0x0 PUSH2 0xE62 PUSH2 0xE5D DUP5 PUSH2 0x11F6 JUMP JUMPDEST PUSH2 0x11C5 JUMP JUMPDEST SWAP1 POP DUP3 DUP2 MSTORE PUSH1 0x20 DUP2 ADD DUP5 DUP5 DUP5 ADD GT ISZERO PUSH2 0xE7A JUMPI PUSH1 0x0 DUP1 REVERT JUMPDEST PUSH2 0xE85 DUP5 DUP3 DUP6 PUSH2 0x127E JUMP JUMPDEST POP SWAP4 SWAP3 POP POP POP JUMP JUMPDEST PUSH1 0x0 DUP2 CALLDATALOAD SWAP1 POP PUSH2 0xE9C DUP2 PUSH2 0x1361 JUMP JUMPDEST SWAP3 SWAP2 POP POP JUMP JUMPDEST PUSH1 0x0 DUP3 PUSH1 0x1F DUP4 ADD SLT PUSH2 0xEB3 JUMPI PUSH1 0x0 DUP1 REVERT JUMPDEST DUP2 CALLDATALOAD PUSH2 0xEC3 DUP5 DUP3 PUSH1 0x20 DUP7 ADD PUSH2 0xE4F JUMP JUMPDEST SWAP2 POP POP SWAP3 SWAP2 POP POP JUMP JUMPDEST PUSH1 0x0 PUSH1 0x20 DUP3 DUP5 SUB SLT ISZERO PUSH2 0xEDE JUMPI PUSH1 0x0 DUP1 REVERT JUMPDEST PUSH1 0x0 PUSH2 0xEEC DUP5 DUP3 DUP6 ADD PUSH2 0xE8D JUMP JUMPDEST SWAP2 POP POP SWAP3 SWAP2 POP POP JUMP JUMPDEST PUSH1 0x0 DUP1 PUSH1 0x40 DUP4 DUP6 SUB SLT ISZERO PUSH2 0xF08 JUMPI PUSH1 0x0 DUP1 REVERT JUMPDEST PUSH1 0x0 PUSH2 0xF16 DUP6 DUP3 DUP7 ADD PUSH2 0xE8D JUMP JUMPDEST SWAP3 POP POP PUSH1 0x20 DUP4 ADD CALLDATALOAD PUSH8 0xFFFFFFFFFFFFFFFF DUP2 GT ISZERO PUSH2 0xF33 JUMPI PUSH1 0x0 DUP1 REVERT JUMPDEST PUSH2 0xF3F DUP6 DUP3 DUP7 ADD PUSH2 0xEA2 JUMP JUMPDEST SWAP2 POP POP SWAP3 POP SWAP3 SWAP1 POP JUMP JUMPDEST PUSH2 0xF52 DUP2 PUSH2 0x1242 JUMP JUMPDEST DUP3 MSTORE POP POP JUMP JUMPDEST PUSH1 0x0 PUSH2 0xF63 DUP3 PUSH2 0x1226 JUMP JUMPDEST PUSH2 0xF6D DUP2 DUP6 PUSH2 0x1231 JUMP JUMPDEST SWAP4 POP PUSH2 0xF7D DUP2 DUP6 PUSH1 0x20 DUP7 ADD PUSH2 0x128D JUMP JUMPDEST PUSH2 0xF86 DUP2 PUSH2 0x1350 JUMP JUMPDEST DUP5 ADD SWAP2 POP POP SWAP3 SWAP2 POP POP JUMP JUMPDEST PUSH1 0x0 PUSH2 0xF9E PUSH1 0x1F DUP4 PUSH2 0x1231 JUMP JUMPDEST SWAP2 POP PUSH32 0x6D6573736167652073656E646572206973206E6F7420746865206F776E657200 PUSH1 0x0 DUP4 ADD MSTORE PUSH1 0x20 DUP3 ADD SWAP1 POP SWAP2 SWAP1 POP JUMP JUMPDEST PUSH1 0x0 PUSH2 0xFDE PUSH1 0x2E DUP4 PUSH2 0x1231 JUMP JUMPDEST SWAP2 POP PUSH32 0x436F6E747261637420696E7374616E63652068617320616C7265616479206265 PUSH1 0x0 DUP4 ADD MSTORE PUSH32 0x656E20696E697469616C697A6564000000000000000000000000000000000000 PUSH1 0x20 DUP4 ADD MSTORE PUSH1 0x40 DUP3 ADD SWAP1 POP SWAP2 SWAP1 POP JUMP JUMPDEST PUSH1 0x0 PUSH2 0x1044 PUSH1 0x33 DUP4 PUSH2 0x1231 JUMP JUMPDEST SWAP2 POP PUSH32 0x6D6573736167652073656E646572206973206E6F742074686520636F6E74726F PUSH1 0x0 DUP4 ADD MSTORE PUSH32 0x6C6C6572206F66207468652044494420446F6300000000000000000000000000 PUSH1 0x20 DUP4 ADD MSTORE PUSH1 0x40 DUP3 ADD SWAP1 POP SWAP2 SWAP1 POP JUMP JUMPDEST PUSH2 0x10A6 DUP2 PUSH2 0x1274 JUMP JUMPDEST DUP3 MSTORE POP POP JUMP JUMPDEST PUSH1 0x0 PUSH1 0x20 DUP3 ADD SWAP1 POP PUSH2 0x10C1 PUSH1 0x0 DUP4 ADD DUP5 PUSH2 0xF49 JUMP JUMPDEST SWAP3 SWAP2 POP POP JUMP JUMPDEST PUSH1 0x0 PUSH1 0x40 DUP3 ADD SWAP1 POP PUSH2 0x10DC PUSH1 0x0 DUP4 ADD DUP6 PUSH2 0xF49 JUMP JUMPDEST DUP2 DUP2 SUB PUSH1 0x20 DUP4 ADD MSTORE PUSH2 0x10EE DUP2 DUP5 PUSH2 0xF58 JUMP JUMPDEST SWAP1 POP SWAP4 SWAP3 POP POP POP JUMP JUMPDEST PUSH1 0x0 PUSH1 0x80 DUP3 ADD SWAP1 POP PUSH2 0x110C PUSH1 0x0 DUP4 ADD DUP8 PUSH2 0xF49 JUMP JUMPDEST PUSH2 0x1119 PUSH1 0x20 DUP4 ADD DUP7 PUSH2 0x109D JUMP JUMPDEST PUSH2 0x1126 PUSH1 0x40 DUP4 ADD DUP6 PUSH2 0x109D JUMP JUMPDEST DUP2 DUP2 SUB PUSH1 0x60 DUP4 ADD MSTORE PUSH2 0x1138 DUP2 DUP5 PUSH2 0xF58 JUMP JUMPDEST SWAP1 POP SWAP6 SWAP5 POP POP POP POP POP JUMP JUMPDEST PUSH1 0x0 PUSH1 0x20 DUP3 ADD SWAP1 POP DUP2 DUP2 SUB PUSH1 0x0 DUP4 ADD MSTORE PUSH2 0x115D DUP2 DUP5 PUSH2 0xF58 JUMP JUMPDEST SWAP1 POP SWAP3 SWAP2 POP POP JUMP JUMPDEST PUSH1 0x0 PUSH1 0x20 DUP3 ADD SWAP1 POP DUP2 DUP2 SUB PUSH1 0x0 DUP4 ADD MSTORE PUSH2 0x117E DUP2 PUSH2 0xF91 JUMP JUMPDEST SWAP1 POP SWAP2 SWAP1 POP JUMP JUMPDEST PUSH1 0x0 PUSH1 0x20 DUP3 ADD SWAP1 POP DUP2 DUP2 SUB PUSH1 0x0 DUP4 ADD MSTORE PUSH2 0x119E DUP2 PUSH2 0xFD1 JUMP JUMPDEST SWAP1 POP SWAP2 SWAP1 POP JUMP JUMPDEST PUSH1 0x0 PUSH1 0x20 DUP3 ADD SWAP1 POP DUP2 DUP2 SUB PUSH1 0x0 DUP4 ADD MSTORE PUSH2 0x11BE DUP2 PUSH2 0x1037 JUMP JUMPDEST SWAP1 POP SWAP2 SWAP1 POP JUMP JUMPDEST PUSH1 0x0 PUSH1 0x40 MLOAD SWAP1 POP DUP2 DUP2 ADD DUP2 DUP2 LT PUSH8 0xFFFFFFFFFFFFFFFF DUP3 GT OR ISZERO PUSH2 0x11EC JUMPI PUSH2 0x11EB PUSH2 0x1321 JUMP JUMPDEST JUMPDEST DUP1 PUSH1 0x40 MSTORE POP SWAP2 SWAP1 POP JUMP JUMPDEST PUSH1 0x0 PUSH8 0xFFFFFFFFFFFFFFFF DUP3 GT ISZERO PUSH2 0x1211 JUMPI PUSH2 0x1210 PUSH2 0x1321 JUMP JUMPDEST JUMPDEST PUSH1 0x1F NOT PUSH1 0x1F DUP4 ADD AND SWAP1 POP PUSH1 0x20 DUP2 ADD SWAP1 POP SWAP2 SWAP1 POP JUMP JUMPDEST PUSH1 0x0 DUP2 MLOAD SWAP1 POP SWAP2 SWAP1 POP JUMP JUMPDEST PUSH1 0x0 DUP3 DUP3 MSTORE PUSH1 0x20 DUP3 ADD SWAP1 POP SWAP3 SWAP2 POP POP JUMP JUMPDEST PUSH1 0x0 PUSH2 0x124D DUP3 PUSH2 0x1254 JUMP JUMPDEST SWAP1 POP SWAP2 SWAP1 POP JUMP JUMPDEST PUSH1 0x0 PUSH20 0xFFFFFFFFFFFFFFFFFFFFFFFFFFFFFFFFFFFFFFFF DUP3 AND SWAP1 POP SWAP2 SWAP1 POP JUMP JUMPDEST PUSH1 0x0 DUP2 SWAP1 POP SWAP2 SWAP1 POP JUMP JUMPDEST DUP3 DUP2 DUP4 CALLDATACOPY PUSH1 0x0 DUP4 DUP4 ADD MSTORE POP POP POP JUMP JUMPDEST PUSH1 0x0 JUMPDEST DUP4 DUP2 LT ISZERO PUSH2 0x12AB JUMPI DUP1 DUP3 ADD MLOAD DUP2 DUP5 ADD MSTORE PUSH1 0x20 DUP2 ADD SWAP1 POP PUSH2 0x1290 JUMP JUMPDEST DUP4 DUP2 GT ISZERO PUSH2 0x12BA JUMPI PUSH1 0x0 DUP5 DUP5 ADD MSTORE JUMPDEST POP POP POP POP JUMP JUMPDEST PUSH1 0x0 PUSH1 0x2 DUP3 DIV SWAP1 POP PUSH1 0x1 DUP3 AND DUP1 PUSH2 0x12D8 JUMPI PUSH1 0x7F DUP3 AND SWAP2 POP JUMPDEST PUSH1 0x20 DUP3 LT DUP2 EQ ISZERO PUSH2 0x12EC JUMPI PUSH2 0x12EB PUSH2 0x12F2 JUMP JUMPDEST JUMPDEST POP SWAP2 SWAP1 POP JUMP JUMPDEST PUSH32 0x4E487B7100000000000000000000000000000000000000000000000000000000 PUSH1 0x0 MSTORE PUSH1 0x22 PUSH1 0x4 MSTORE PUSH1 0x24 PUSH1 0x0 REVERT JUMPDEST PUSH32 0x4E487B7100000000000000000000000000000000000000000000000000000000 PUSH1 0x0 MSTORE PUSH1 0x41 PUSH1 0x4 MSTORE PUSH1 0x24 PUSH1 0x0 REVERT JUMPDEST PUSH1 0x0 PUSH1 0x1F NOT PUSH1 0x1F DUP4 ADD AND SWAP1 POP SWAP2 SWAP1 POP JUMP JUMPDEST PUSH2 0x136A DUP2 PUSH2 0x1242 JUMP JUMPDEST DUP2 EQ PUSH2 0x1375 JUMPI PUSH1 0x0 DUP1 REVERT JUMPDEST POP JUMP INVALID 0x4E PUSH6 0x77204F776E65 PUSH19 0x206164647265737320697320657175616C2074 PUSH16 0x206F726967696E616C206F776E657220 PUSH2 0x6464 PUSH19 0x6573734F776E657273686970207472616E7366 PUSH7 0x65726564207375 PUSH4 0x63657373 PUSH7 0x756C6C79A26469 PUSH17 0x667358221220DE8A7BBB37767BC7FD5612 DUP6 0xAF PUSH12 0xF15480DBDDDF08444ACC46D4 PUSH9 0x609306DD1064736F6C PUSH4 0x43000800 STOP CALLER "
        },
        "gasEstimates": {
            "creation": {
                "codeDepositCost": "1024800",
                "executionCost": "1067",
                "totalCost": "1025867"
            },
            "external": {
                "createDID(address,string)": "infinite",
                "deleteDID(address)": "infinite",
                "getDID(address)": "infinite",
                "getOwner()": "1244",
                "initialize()": "42733",
                "transferOwnership(address)": "infinite",
                "updateDID(address,string)": "infinite"
            }
        },
        "methodIdentifiers": {
            "createDID(address,string)": "63d61166",
            "deleteDID(address)": "7f52e0a7",
            "getDID(address)": "f64e30b0",
            "getOwner()": "893d20e8",
            "initialize()": "8129fc1c",
            "transferOwnership(address)": "f2fde38b",
            "updateDID(address,string)": "25f2ac62"
        }
    },
    "storageLayout": {
        "storage": [
            {
                "astId": 37,
                "contract": "PolygonDidRegistry.sol:PolygonDidRegistry",
                "label": "owner",
                "offset": 0,
                "slot": "0",
                "type": "t_address"
            },
            {
                "astId": 68,
                "contract": "PolygonDidRegistry.sol:PolygonDidRegistry",
                "label": "did",
                "offset": 0,
                "slot": "1",
                "type": "t_mapping(t_address,t_struct(PolyDID)46_storage)"
            },
            {
                "astId": 90,
                "contract": "PolygonDidRegistry.sol:PolygonDidRegistry",
                "label": "initialized",
                "offset": 0,
                "slot": "2",
                "type": "t_bool"
            }
        ],
        "types": {
            "t_address": {
                "encoding": "inplace",
                "label": "address",
                "numberOfBytes": "20"
            },
            "t_bool": {
                "encoding": "inplace",
                "label": "bool",
                "numberOfBytes": "1"
            },
            "t_mapping(t_address,t_struct(PolyDID)46_storage)": {
                "encoding": "mapping",
                "key": "t_address",
                "label": "mapping(address => struct PolygonDidRegistry.PolyDID)",
                "numberOfBytes": "32",
                "value": "t_struct(PolyDID)46_storage"
            },
            "t_string_storage": {
                "encoding": "bytes",
                "label": "string",
                "numberOfBytes": "32"
            },
            "t_struct(PolyDID)46_storage": {
                "encoding": "inplace",
                "label": "struct PolygonDidRegistry.PolyDID",
                "members": [
                    {
                        "astId": 39,
                        "contract": "PolygonDidRegistry.sol:PolygonDidRegistry",
                        "label": "controller",
                        "offset": 0,
                        "slot": "0",
                        "type": "t_address"
                    },
                    {
                        "astId": 41,
                        "contract": "PolygonDidRegistry.sol:PolygonDidRegistry",
                        "label": "created",
                        "offset": 0,
                        "slot": "1",
                        "type": "t_uint256"
                    },
                    {
                        "astId": 43,
                        "contract": "PolygonDidRegistry.sol:PolygonDidRegistry",
                        "label": "updated",
                        "offset": 0,
                        "slot": "2",
                        "type": "t_uint256"
                    },
                    {
                        "astId": 45,
                        "contract": "PolygonDidRegistry.sol:PolygonDidRegistry",
                        "label": "did_doc",
                        "offset": 0,
                        "slot": "3",
                        "type": "t_string_storage"
                    }
                ],
                "numberOfBytes": "128"
            },
            "t_uint256": {
                "encoding": "inplace",
                "label": "uint256",
                "numberOfBytes": "32"
            }
        }
    },
    "userdoc": {
        "kind": "user",
        "methods": {},
        "version": 1
    }
}