{
  "contractName": "PolygonDidRegistry",
  "abi": [
    {
      "anonymous": false,
      "inputs": [
        {
          "indexed": false,
          "internalType": "address",
          "name": "id",
          "type": "address"
        },
        {
          "indexed": false,
          "internalType": "string",
          "name": "doc",
          "type": "string"
        }
      ],
      "name": "DidCreated",
      "type": "event"
    },
    {
      "anonymous": false,
      "inputs": [
        {
          "indexed": false,
          "internalType": "address",
          "name": "id",
          "type": "address"
        }
      ],
      "name": "DidDeleted",
      "type": "event"
    },
    {
      "anonymous": false,
      "inputs": [
        {
          "indexed": false,
          "internalType": "address",
          "name": "id",
          "type": "address"
        },
        {
          "indexed": false,
          "internalType": "string",
          "name": "doc",
          "type": "string"
        }
      ],
      "name": "DidUpdated",
      "type": "event"
    },
    {
      "anonymous": false,
      "inputs": [
        {
          "indexed": false,
          "internalType": "address",
          "name": "newOwner",
          "type": "address"
        }
      ],
      "name": "TransferOwnership",
      "type": "event"
    },
    {
      "inputs": [],
      "name": "initialize",
      "outputs": [],
      "stateMutability": "nonpayable",
      "type": "function"
    },
    {
      "inputs": [
        {
          "internalType": "address",
          "name": "_newOwner",
          "type": "address"
        }
      ],
      "name": "transferOwnership",
      "outputs": [
        {
          "internalType": "string",
          "name": "",
          "type": "string"
        }
      ],
      "stateMutability": "nonpayable",
      "type": "function"
    },
    {
      "inputs": [],
      "name": "getOwner",
      "outputs": [
        {
          "internalType": "address",
          "name": "_owner",
          "type": "address"
        }
      ],
      "stateMutability": "view",
      "type": "function"
    },
    {
      "inputs": [
        {
          "internalType": "address",
          "name": "_id",
          "type": "address"
        },
        {
          "internalType": "string",
          "name": "_doc",
          "type": "string"
        }
      ],
      "name": "createDID",
      "outputs": [
        {
          "internalType": "address",
          "name": "controller",
          "type": "address"
        },
        {
          "internalType": "uint256",
          "name": "created",
          "type": "uint256"
        },
        {
          "internalType": "uint256",
          "name": "updated",
          "type": "uint256"
        },
        {
          "internalType": "string",
          "name": "did_doc",
          "type": "string"
        }
      ],
      "stateMutability": "nonpayable",
      "type": "function"
    },
    {
      "inputs": [
        {
          "internalType": "address",
          "name": "_id",
          "type": "address"
        }
      ],
      "name": "getDID",
      "outputs": [
        {
          "internalType": "string",
          "name": "",
          "type": "string"
        }
      ],
      "stateMutability": "view",
      "type": "function"
    },
    {
      "inputs": [],
      "name": "getTotalNumberOfDIDs",
      "outputs": [
        {
          "internalType": "uint256",
          "name": "_totalDIDs",
          "type": "uint256"
        }
      ],
      "stateMutability": "view",
      "type": "function"
    },
    {
      "inputs": [
        {
          "internalType": "uint256",
          "name": "_index",
          "type": "uint256"
        }
      ],
      "name": "getDIDByIndex",
      "outputs": [
        {
          "internalType": "address",
          "name": "_did",
          "type": "address"
        }
      ],
      "stateMutability": "view",
      "type": "function"
    },
    {
      "inputs": [
        {
          "internalType": "address",
          "name": "_id",
          "type": "address"
        },
        {
          "internalType": "string",
          "name": "_doc",
          "type": "string"
        }
      ],
      "name": "updateDID",
      "outputs": [
        {
          "internalType": "address",
          "name": "controller",
          "type": "address"
        },
        {
          "internalType": "uint256",
          "name": "created",
          "type": "uint256"
        },
        {
          "internalType": "uint256",
          "name": "updated",
          "type": "uint256"
        },
        {
          "internalType": "string",
          "name": "did_doc",
          "type": "string"
        }
      ],
      "stateMutability": "nonpayable",
      "type": "function"
    },
    {
      "inputs": [
        {
          "internalType": "address",
          "name": "_id",
          "type": "address"
        }
      ],
      "name": "deleteDID",
      "outputs": [],
      "stateMutability": "nonpayable",
      "type": "function"
    }
  ],
  "bytecode": "0x60806040526000805534801561001457600080fd5b50611994806100246000396000f3fe608060405234801561001057600080fd5b50600436106100935760003560e01c8063893d20e811610066578063893d20e814610124578063ae66a32614610142578063c77e955314610160578063f2fde38b14610190578063f64e30b0146101c057610093565b806325f2ac621461009857806363d61166146100cb5780637f52e0a7146100fe5780638129fc1c1461011a575b600080fd5b6100b260048036038101906100ad91906111af565b6101f0565b6040516100c294939291906112bb565b60405180910390f35b6100e560048036038101906100e091906111af565b610561565b6040516100f594939291906112bb565b60405180910390f35b61011860048036038101906101139190611307565b610930565b005b610122610ac5565b005b61012c610b73565b6040516101399190611334565b60405180910390f35b61014a610b9d565b604051610157919061134f565b60405180910390f35b61017a60048036038101906101759190611396565b610c37565b6040516101879190611334565b60405180910390f35b6101aa60048036038101906101a59190611307565b610d04565b6040516101b791906113c3565b60405180910390f35b6101da60048036038101906101d59190611307565b610ec6565b6040516101e791906113c3565b60405180910390f35b60008060006060853373ffffffffffffffffffffffffffffffffffffffff16600260008373ffffffffffffffffffffffffffffffffffffffff1673ffffffffffffffffffffffffffffffffffffffff16815260200190815260200160002060000160009054906101000a900473ffffffffffffffffffffffffffffffffffffffff1673ffffffffffffffffffffffffffffffffffffffff16146102c8576040517f08c379a00000000000000000000000000000000000000000000000000000000081526004016102bf90611457565b60405180910390fd5b85600260008973ffffffffffffffffffffffffffffffffffffffff1673ffffffffffffffffffffffffffffffffffffffff16815260200190815260200160002060030190816103179190611683565b5042600260008973ffffffffffffffffffffffffffffffffffffffff1673ffffffffffffffffffffffffffffffffffffffff168152602001908152602001600020600201819055507f2312318cda72db25202ee216222e615408e4d11837ed3f089f89c86de702e6968787604051610390929190611755565b60405180910390a1600260008873ffffffffffffffffffffffffffffffffffffffff1673ffffffffffffffffffffffffffffffffffffffff16815260200190815260200160002060000160009054906101000a900473ffffffffffffffffffffffffffffffffffffffff16600260008973ffffffffffffffffffffffffffffffffffffffff1673ffffffffffffffffffffffffffffffffffffffff16815260200190815260200160002060010154600260008a73ffffffffffffffffffffffffffffffffffffffff1673ffffffffffffffffffffffffffffffffffffffff16815260200190815260200160002060020154600260008b73ffffffffffffffffffffffffffffffffffffffff1673ffffffffffffffffffffffffffffffffffffffff1681526020019081526020016000206003018080546104cf906114a6565b80601f01602080910402602001604051908101604052809291908181526020018280546104fb906114a6565b80156105485780601f1061051d57610100808354040283529160200191610548565b820191906000526020600020905b81548152906001019060200180831161052b57829003601f168201915b5050505050905094509450945094505092959194509250565b6000806000606033600260008873ffffffffffffffffffffffffffffffffffffffff1673ffffffffffffffffffffffffffffffffffffffff16815260200190815260200160002060000160006101000a81548173ffffffffffffffffffffffffffffffffffffffff021916908373ffffffffffffffffffffffffffffffffffffffff16021790555042600260008873ffffffffffffffffffffffffffffffffffffffff1673ffffffffffffffffffffffffffffffffffffffff1681526020019081526020016000206001018190555042600260008873ffffffffffffffffffffffffffffffffffffffff1673ffffffffffffffffffffffffffffffffffffffff1681526020019081526020016000206002018190555084600260008873ffffffffffffffffffffffffffffffffffffffff1673ffffffffffffffffffffffffffffffffffffffff16815260200190815260200160002060030190816106c69190611683565b5033600360008054815260200190815260200160002060006101000a81548173ffffffffffffffffffffffffffffffffffffffff021916908373ffffffffffffffffffffffffffffffffffffffff160217905550600160005461072991906117b4565b6000819055507ff62ed34d06386344717282b704861a00fb3ee41805873a1db48f7c7d1ae532da8686604051610760929190611755565b60405180910390a1600260008773ffffffffffffffffffffffffffffffffffffffff1673ffffffffffffffffffffffffffffffffffffffff16815260200190815260200160002060000160009054906101000a900473ffffffffffffffffffffffffffffffffffffffff16600260008873ffffffffffffffffffffffffffffffffffffffff1673ffffffffffffffffffffffffffffffffffffffff16815260200190815260200160002060010154600260008973ffffffffffffffffffffffffffffffffffffffff1673ffffffffffffffffffffffffffffffffffffffff16815260200190815260200160002060020154600260008a73ffffffffffffffffffffffffffffffffffffffff1673ffffffffffffffffffffffffffffffffffffffff16815260200190815260200160002060030180805461089f906114a6565b80601f01602080910402602001604051908101604052809291908181526020018280546108cb906114a6565b80156109185780601f106108ed57610100808354040283529160200191610918565b820191906000526020600020905b8154815290600101906020018083116108fb57829003601f168201915b50505050509050935093509350935092959194509250565b803373ffffffffffffffffffffffffffffffffffffffff16600260008373ffffffffffffffffffffffffffffffffffffffff1673ffffffffffffffffffffffffffffffffffffffff16815260200190815260200160002060000160009054906101000a900473ffffffffffffffffffffffffffffffffffffffff1673ffffffffffffffffffffffffffffffffffffffff1614610a01576040517f08c379a00000000000000000000000000000000000000000000000000000000081526004016109f890611457565b60405180910390fd5b600260008373ffffffffffffffffffffffffffffffffffffffff1673ffffffffffffffffffffffffffffffffffffffff168152602001908152602001600020600080820160006101000a81549073ffffffffffffffffffffffffffffffffffffffff021916905560018201600090556002820160009055600382016000610a889190610f9a565b50507fe4d523d170738efb59edc0ff55d3114dc890232222e6ff1bdeb52ddd0ed7e2a982604051610ab99190611334565b60405180910390a15050565b600460009054906101000a900460ff1615610b15576040517f08c379a0000000000000000000000000000000000000000000000000000000008152600401610b0c9061187c565b60405180910390fd5b6001600460006101000a81548160ff02191690831515021790555033600160006101000a81548173ffffffffffffffffffffffffffffffffffffffff021916908373ffffffffffffffffffffffffffffffffffffffff160217905550565b6000600160009054906101000a900473ffffffffffffffffffffffffffffffffffffffff16905090565b6000600160009054906101000a900473ffffffffffffffffffffffffffffffffffffffff1673ffffffffffffffffffffffffffffffffffffffff163373ffffffffffffffffffffffffffffffffffffffff1614610c2f576040517f08c379a0000000000000000000000000000000000000000000000000000000008152600401610c26906118e8565b60405180910390fd5b600054905090565b6000600160009054906101000a900473ffffffffffffffffffffffffffffffffffffffff1673ffffffffffffffffffffffffffffffffffffffff163373ffffffffffffffffffffffffffffffffffffffff1614610cc9576040517f08c379a0000000000000000000000000000000000000000000000000000000008152600401610cc0906118e8565b60405180910390fd5b6003600083815260200190815260200160002060009054906101000a900473ffffffffffffffffffffffffffffffffffffffff169050919050565b6060600160009054906101000a900473ffffffffffffffffffffffffffffffffffffffff1673ffffffffffffffffffffffffffffffffffffffff163373ffffffffffffffffffffffffffffffffffffffff1614610d96576040517f08c379a0000000000000000000000000000000000000000000000000000000008152600401610d8d906118e8565b60405180910390fd5b8173ffffffffffffffffffffffffffffffffffffffff16600160009054906101000a900473ffffffffffffffffffffffffffffffffffffffff1673ffffffffffffffffffffffffffffffffffffffff1614610ea55781600160006101000a81548173ffffffffffffffffffffffffffffffffffffffff021916908373ffffffffffffffffffffffffffffffffffffffff1602179055507fcfaaa26691e16e66e73290fc725eee1a6b4e0e693a1640484937aac25ffb55a4600160009054906101000a900473ffffffffffffffffffffffffffffffffffffffff16604051610e7d9190611334565b60405180910390a1604051806060016040528060228152602001611909602291399050610ec1565b60405180606001604052806034815260200161192b6034913990505b919050565b6060600260008373ffffffffffffffffffffffffffffffffffffffff1673ffffffffffffffffffffffffffffffffffffffff1681526020019081526020016000206003018054610f15906114a6565b80601f0160208091040260200160405190810160405280929190818152602001828054610f41906114a6565b8015610f8e5780601f10610f6357610100808354040283529160200191610f8e565b820191906000526020600020905b815481529060010190602001808311610f7157829003601f168201915b50505050509050919050565b508054610fa6906114a6565b6000825580601f10610fb85750610fd7565b601f016020900490600052602060002090810190610fd69190610fda565b5b50565b5b80821115610ff3576000816000905550600101610fdb565b5090565b6000604051905090565b600080fd5b600080fd5b600073ffffffffffffffffffffffffffffffffffffffff82169050919050565b60006110368261100b565b9050919050565b6110468161102b565b811461105157600080fd5b50565b6000813590506110638161103d565b92915050565b600080fd5b600080fd5b6000601f19601f8301169050919050565b7f4e487b7100000000000000000000000000000000000000000000000000000000600052604160045260246000fd5b6110bc82611073565b810181811067ffffffffffffffff821117156110db576110da611084565b5b80604052505050565b60006110ee610ff7565b90506110fa82826110b3565b919050565b600067ffffffffffffffff82111561111a57611119611084565b5b61112382611073565b9050602081019050919050565b82818337600083830152505050565b600061115261114d846110ff565b6110e4565b90508281526020810184848401111561116e5761116d61106e565b5b611179848285611130565b509392505050565b600082601f83011261119657611195611069565b5b81356111a684826020860161113f565b91505092915050565b600080604083850312156111c6576111c5611001565b5b60006111d485828601611054565b925050602083013567ffffffffffffffff8111156111f5576111f4611006565b5b61120185828601611181565b9150509250929050565b6112148161102b565b82525050565b6000819050919050565b61122d8161121a565b82525050565b600081519050919050565b600082825260208201905092915050565b60005b8381101561126d578082015181840152602081019050611252565b8381111561127c576000848401525b50505050565b600061128d82611233565b611297818561123e565b93506112a781856020860161124f565b6112b081611073565b840191505092915050565b60006080820190506112d0600083018761120b565b6112dd6020830186611224565b6112ea6040830185611224565b81810360608301526112fc8184611282565b905095945050505050565b60006020828403121561131d5761131c611001565b5b600061132b84828501611054565b91505092915050565b6000602082019050611349600083018461120b565b92915050565b60006020820190506113646000830184611224565b92915050565b6113738161121a565b811461137e57600080fd5b50565b6000813590506113908161136a565b92915050565b6000602082840312156113ac576113ab611001565b5b60006113ba84828501611381565b91505092915050565b600060208201905081810360008301526113dd8184611282565b905092915050565b7f6d6573736167652073656e646572206973206e6f742074686520636f6e74726f60008201527f6c6c6572206f66207468652044494420446f6300000000000000000000000000602082015250565b600061144160338361123e565b915061144c826113e5565b604082019050919050565b6000602082019050818103600083015261147081611434565b9050919050565b7f4e487b7100000000000000000000000000000000000000000000000000000000600052602260045260246000fd5b600060028204905060018216806114be57607f821691505b6020821081036114d1576114d0611477565b5b50919050565b60008190508160005260206000209050919050565b60006020601f8301049050919050565b600082821b905092915050565b6000600883026115397fffffffffffffffffffffffffffffffffffffffffffffffffffffffffffffffff826114fc565b61154386836114fc565b95508019841693508086168417925050509392505050565b6000819050919050565b600061158061157b6115768461121a565b61155b565b61121a565b9050919050565b6000819050919050565b61159a83611565565b6115ae6115a682611587565b848454611509565b825550505050565b600090565b6115c36115b6565b6115ce818484611591565b505050565b5b818110156115f2576115e76000826115bb565b6001810190506115d4565b5050565b601f82111561163757611608816114d7565b611611846114ec565b81016020851015611620578190505b61163461162c856114ec565b8301826115d3565b50505b505050565b600082821c905092915050565b600061165a6000198460080261163c565b1980831691505092915050565b60006116738383611649565b9150826002028217905092915050565b61168c82611233565b67ffffffffffffffff8111156116a5576116a4611084565b5b6116af82546114a6565b6116ba8282856115f6565b600060209050601f8311600181146116ed57600084156116db578287015190505b6116e58582611667565b86555061174d565b601f1984166116fb866114d7565b60005b82811015611723578489015182556001820191506020850194506020810190506116fe565b86831015611740578489015161173c601f891682611649565b8355505b6001600288020188555050505b505050505050565b600060408201905061176a600083018561120b565b818103602083015261177c8184611282565b90509392505050565b7f4e487b7100000000000000000000000000000000000000000000000000000000600052601160045260246000fd5b60006117bf8261121a565b91506117ca8361121a565b9250827fffffffffffffffffffffffffffffffffffffffffffffffffffffffffffffffff038211156117ff576117fe611785565b5b828201905092915050565b7f436f6e747261637420696e7374616e63652068617320616c726561647920626560008201527f656e20696e697469616c697a6564000000000000000000000000000000000000602082015250565b6000611866602e8361123e565b91506118718261180a565b604082019050919050565b6000602082019050818103600083015261189581611859565b9050919050565b7f6d6573736167652073656e646572206973206e6f7420746865206f776e657200600082015250565b60006118d2601f8361123e565b91506118dd8261189c565b602082019050919050565b60006020820190508181036000830152611901816118c5565b905091905056fe4f776e657273686970207472616e73666572726564207375636365737366756c6c794e6577204f776e6572206164647265737320697320657175616c20746f206f726967696e616c206f776e65722061646472657373a2646970667358221220f364b51ab9d82b783ff8ede9381728742643f5b341e4ceeee43eef09c629144f64736f6c634300080f0033",
  "immutableReferences": {},
  "source": "/**\n *Submitted for verification at polygonscan.com on 2021-12-29\n*/\n\n//SPDX-License-Identifier: MIT\npragma solidity ^0.8.15;\n// import \"@openzeppelin/contracts-upgradeable/proxy/utils/Initializable.sol\";\n\n/**\n *@title PolygonDidRegistry\n *@dev Smart Contract for Polygon DID Method\n */\ncontract PolygonDidRegistry {\n    uint256 totalDIDs = 0;\n    address owner;\n    struct PolyDID {\n        address controller;\n        uint256 created;\n        uint256 updated;\n        string did_doc;\n    }\n\n    modifier onlyController(address _id) {\n        require(\n            did[_id].controller == msg.sender, \"message sender is not the controller of the DID Doc\"\n        );\n        _;\n    }\n    mapping(address => PolyDID) did;\n    mapping(uint256 => address) allDIDs;\n    event DidCreated(address id, string doc);\n    event DidUpdated(address id, string doc);\n    event DidDeleted(address id);\n    event TransferOwnership(address newOwner);\n    bool private initialized;\n\n    /**\n    *@dev initializes the ownership of contract\n    **/\n\n    function initialize() public {\n        require(!initialized, \"Contract instance has already been initialized\");\n        initialized = true;\n        owner = msg.sender;\n    }\n\n    modifier onlyOwner(){\n        require( msg.sender == owner, \"message sender is not the owner\");\n        _;\n    }\n\n    /**\n    *@dev transfer the ownership of contract\n    *@param _newOwner - Address of the new owner to whom the ownership needs to be passed\n    **/\n\n    function transferOwnership(address _newOwner)public onlyOwner() returns (string memory){\n        if(owner != _newOwner){\n            owner = _newOwner;\n            emit TransferOwnership(owner);\n            return (\"Ownership transferred successfully\");\n        }\n        else {\n            return (\"New Owner address is equal to original owner address\");\n        }\n    }\n\n    /**\n     *@dev Reads contract owner from chain\n     */\n\n    function getOwner() public view returns (address _owner){\n        return owner;\n    }\n\n    /**\n     *@dev Register a new DID\n     *@param _id - Address that will refer the DID doc\n     *@param _doc - A string object that holds the DID Doc\n     */\n\n    function createDID(address _id, string memory _doc)\n        public\n        returns (address controller, uint256 created, uint256 updated, string memory did_doc)\n    {\n        did[_id].controller = msg.sender;\n        did[_id].created = block.timestamp;\n        did[_id].updated = block.timestamp;\n        did[_id].did_doc = _doc;\n        allDIDs[totalDIDs] = msg.sender;\n        totalDIDs = totalDIDs+1;\n        emit DidCreated(_id, _doc);\n        return (did[_id].controller, did[_id].created, did[_id].updated, did[_id].did_doc);\n    }\n\n    /**\n     *@dev Reads DID Doc from Chain\n     *@param _id - Address that refers to the DID doc position\n     */\n\n    function getDID(address _id) public view returns (string memory) {\n        return did[_id].did_doc;\n    }\n\n    /**\n     *@dev Reads total number of DIDs from Chain\n    */\n\n    function getTotalNumberOfDIDs()public onlyOwner() view returns (uint256 _totalDIDs){\n        return totalDIDs;\n    }\n\n    /**\n     *@dev Reads one DID at a time from Chain based on index\n     *@param _index - Uint256 type variable that refers to the DID position \n    */\n\n    function getDIDByIndex(uint256 _index)public onlyOwner() view returns (address _did){\n        return allDIDs[_index];\n    }\n\n    /**\n     *@dev To Update the DID doc\n     *@param _id - Address that refers to the DID doc\n     *@param _doc - A String that holds the DID doc\n     */\n\n    function updateDID(address _id, string memory _doc)\n        public\n        onlyController(_id) returns(address controller, uint256 created, uint256 updated, string memory did_doc)\n    {\n        did[_id].did_doc = _doc;\n        did[_id].updated = block.timestamp;\n        emit DidUpdated(_id, _doc);\n        return (did[_id].controller, did[_id].created, did[_id].updated, did[_id].did_doc);\n    }\n\n    /**\n     *@dev To delete a DID from chain\n     *@param _id - Address that refers to the DID doc that need to be deleted\n     */\n\n    function deleteDID(address _id) public onlyController(_id) {\n        delete did[_id];\n        emit DidDeleted(_id);\n    }\n}\n",
  "sourcePath": "/home/user/PolygonDEP/polygon-did-registry-contract/contracts/PolygonDidRegistry.sol",
  "compiler": {
    "name": "solc",
    "version": "0.8.15+commit.e14f2714.Emscripten.clang"
  },
  "schemaVersion": "3.4.8",
  "updatedAt": "2022-08-16T11:48:00.682Z",
  "devdoc": {
    "details": "Smart Contract for Polygon DID Method",
    "kind": "dev",
    "methods": {
      "createDID(address,string)": {
        "details": "Register a new DID",
        "params": {
          "_doc": "- A string object that holds the DID Doc",
          "_id": "- Address that will refer the DID doc"
        }
      },
      "deleteDID(address)": {
        "details": "To delete a DID from chain",
        "params": {
          "_id": "- Address that refers to the DID doc that need to be deleted"
        }
      },
      "getDID(address)": {
        "details": "Reads DID Doc from Chain",
        "params": {
          "_id": "- Address that refers to the DID doc position"
        }
      },
      "getDIDByIndex(uint256)": {
        "details": "Reads one DID at a time from Chain based on index",
        "params": {
          "_index": "- Uint256 type variable that refers to the DID position "
        }
      },
      "getOwner()": {
        "details": "Reads contract owner from chain"
      },
      "getTotalNumberOfDIDs()": {
        "details": "Reads total number of DIDs from Chain"
      },
      "initialize()": {
        "details": "initializes the ownership of contract*"
      },
      "transferOwnership(address)": {
        "details": "transfer the ownership of contract",
        "params": {
          "_newOwner": "- Address of the new owner to whom the ownership needs to be passed*"
        }
      },
      "updateDID(address,string)": {
        "details": "To Update the DID doc",
        "params": {
          "_doc": "- A String that holds the DID doc",
          "_id": "- Address that refers to the DID doc"
        }
      }
    },
    "title": "PolygonDidRegistry",
    "version": 1
  },
  "userdoc": {
    "kind": "user",
    "methods": {},
    "version": 1
  }
}