{
  "contractName": "PolygonDidRegistry",
  "abi": [
    {
      "anonymous": false,
      "inputs": [
        {
          "indexed": false,
          "internalType": "address",
          "name": "id",
          "type": "address"
        },
        {
          "indexed": false,
          "internalType": "string",
          "name": "doc",
          "type": "string"
        }
      ],
      "name": "DidCreated",
      "type": "event"
    },
    {
      "anonymous": false,
      "inputs": [
        {
          "indexed": false,
          "internalType": "address",
          "name": "id",
          "type": "address"
        }
      ],
      "name": "DidDeleted",
      "type": "event"
    },
    {
      "anonymous": false,
      "inputs": [
        {
          "indexed": false,
          "internalType": "address",
          "name": "id",
          "type": "address"
        },
        {
          "indexed": false,
          "internalType": "string",
          "name": "doc",
          "type": "string"
        }
      ],
      "name": "DidUpdated",
      "type": "event"
    },
    {
      "anonymous": false,
      "inputs": [
        {
          "indexed": false,
          "internalType": "address",
          "name": "newOwner",
          "type": "address"
        }
      ],
      "name": "TransferOwnership",
      "type": "event"
    },
    {
      "inputs": [],
      "name": "initialize",
      "outputs": [],
      "stateMutability": "nonpayable",
      "type": "function"
    },
    {
      "inputs": [
        {
          "internalType": "address",
          "name": "_newOwner",
          "type": "address"
        }
      ],
      "name": "transferOwnership",
      "outputs": [
        {
          "internalType": "string",
          "name": "",
          "type": "string"
        }
      ],
      "stateMutability": "nonpayable",
      "type": "function"
    },
    {
      "inputs": [],
      "name": "getOwner",
      "outputs": [
        {
          "internalType": "address",
          "name": "_owner",
          "type": "address"
        }
      ],
      "stateMutability": "view",
      "type": "function"
    },
    {
      "inputs": [
        {
          "internalType": "address",
          "name": "_id",
          "type": "address"
        },
        {
          "internalType": "string",
          "name": "_doc",
          "type": "string"
        }
      ],
      "name": "createDID",
      "outputs": [
        {
          "internalType": "address",
          "name": "controller",
          "type": "address"
        },
        {
          "internalType": "uint256",
          "name": "created",
          "type": "uint256"
        },
        {
          "internalType": "uint256",
          "name": "updated",
          "type": "uint256"
        },
        {
          "internalType": "string",
          "name": "did_doc",
          "type": "string"
        }
      ],
      "stateMutability": "nonpayable",
      "type": "function"
    },
    {
      "inputs": [
        {
          "internalType": "address",
          "name": "_id",
          "type": "address"
        }
      ],
      "name": "getDIDDoc",
      "outputs": [
        {
          "internalType": "string",
          "name": "",
          "type": "string"
        }
      ],
      "stateMutability": "view",
      "type": "function"
    },
    {
      "inputs": [],
      "name": "getTotalNumberOfDIDs",
      "outputs": [
        {
          "internalType": "uint256",
          "name": "_totalDIDs",
          "type": "uint256"
        },
        {
          "internalType": "uint256",
          "name": "_activeDIDs",
          "type": "uint256"
        }
      ],
      "stateMutability": "view",
      "type": "function"
    },
    {
      "inputs": [],
      "name": "getTotalNumberOfDeletedDIDs",
      "outputs": [
        {
          "internalType": "uint256",
          "name": "_deletedDID",
          "type": "uint256"
        }
      ],
      "stateMutability": "view",
      "type": "function"
    },
    {
      "inputs": [
        {
          "internalType": "uint256",
          "name": "_index",
          "type": "uint256"
        }
      ],
      "name": "getDIDDOcByIndex",
      "outputs": [
        {
          "internalType": "string",
          "name": "",
          "type": "string"
        }
      ],
      "stateMutability": "view",
      "type": "function"
    },
    {
      "inputs": [
        {
          "internalType": "address",
          "name": "_id",
          "type": "address"
        },
        {
          "internalType": "string",
          "name": "_doc",
          "type": "string"
        }
      ],
      "name": "updateDID",
      "outputs": [
        {
          "internalType": "address",
          "name": "controller",
          "type": "address"
        },
        {
          "internalType": "uint256",
          "name": "created",
          "type": "uint256"
        },
        {
          "internalType": "uint256",
          "name": "updated",
          "type": "uint256"
        },
        {
          "internalType": "string",
          "name": "did_doc",
          "type": "string"
        }
      ],
      "stateMutability": "nonpayable",
      "type": "function"
    },
    {
      "inputs": [
        {
          "internalType": "address",
          "name": "_id",
          "type": "address"
        }
      ],
      "name": "deleteDID",
      "outputs": [],
      "stateMutability": "nonpayable",
      "type": "function"
    }
  ],
  "bytecode": "0x608060405234801561001057600080fd5b50611aab806100206000396000f3fe608060405234801561001057600080fd5b506004361061009e5760003560e01c8063893d20e811610066578063893d20e81461014d578063ae66a3261461016b578063b77975271461018a578063effc1017146101ba578063f2fde38b146101ea5761009e565b8063167602d4146100a357806325f2ac62146100c157806363d61166146100f45780637f52e0a7146101275780638129fc1c14610143575b600080fd5b6100ab61021a565b6040516100b891906110e2565b60405180910390f35b6100db60048036038101906100d691906112b5565b610224565b6040516100eb949392919061139f565b60405180910390f35b61010e600480360381019061010991906112b5565b610595565b60405161011e949392919061139f565b60405180910390f35b610141600480360381019061013c91906113eb565b6109aa565b005b61014b610bca565b005b610155610c87565b6040516101629190611418565b60405180910390f35b610173610cb1565b604051610181929190611433565b60405180910390f35b6101a4600480360381019061019f91906113eb565b610ccf565b6040516101b1919061145c565b60405180910390f35b6101d460048036038101906101cf91906114aa565b610da3565b6040516101e1919061145c565b60405180910390f35b61020460048036038101906101ff91906113eb565b610eaa565b604051610211919061145c565b60405180910390f35b6000600254905090565b60008060006060853373ffffffffffffffffffffffffffffffffffffffff16600360008373ffffffffffffffffffffffffffffffffffffffff1673ffffffffffffffffffffffffffffffffffffffff16815260200190815260200160002060000160009054906101000a900473ffffffffffffffffffffffffffffffffffffffff1673ffffffffffffffffffffffffffffffffffffffff16146102fc576040517f08c379a00000000000000000000000000000000000000000000000000000000081526004016102f390611549565b60405180910390fd5b85600360008973ffffffffffffffffffffffffffffffffffffffff1673ffffffffffffffffffffffffffffffffffffffff168152602001908152602001600020600301908161034b9190611775565b5042600360008973ffffffffffffffffffffffffffffffffffffffff1673ffffffffffffffffffffffffffffffffffffffff168152602001908152602001600020600201819055507f2312318cda72db25202ee216222e615408e4d11837ed3f089f89c86de702e69687876040516103c4929190611847565b60405180910390a1600360008873ffffffffffffffffffffffffffffffffffffffff1673ffffffffffffffffffffffffffffffffffffffff16815260200190815260200160002060000160009054906101000a900473ffffffffffffffffffffffffffffffffffffffff16600360008973ffffffffffffffffffffffffffffffffffffffff1673ffffffffffffffffffffffffffffffffffffffff16815260200190815260200160002060010154600360008a73ffffffffffffffffffffffffffffffffffffffff1673ffffffffffffffffffffffffffffffffffffffff16815260200190815260200160002060020154600360008b73ffffffffffffffffffffffffffffffffffffffff1673ffffffffffffffffffffffffffffffffffffffff16815260200190815260200160002060030180805461050390611598565b80601f016020809104026020016040519081016040528092919081815260200182805461052f90611598565b801561057c5780601f106105515761010080835404028352916020019161057c565b820191906000526020600020905b81548152906001019060200180831161055f57829003601f168201915b5050505050905094509450945094505092959194509250565b6000806000606033600360008873ffffffffffffffffffffffffffffffffffffffff1673ffffffffffffffffffffffffffffffffffffffff16815260200190815260200160002060000160006101000a81548173ffffffffffffffffffffffffffffffffffffffff021916908373ffffffffffffffffffffffffffffffffffffffff16021790555042600360008873ffffffffffffffffffffffffffffffffffffffff1673ffffffffffffffffffffffffffffffffffffffff1681526020019081526020016000206001018190555042600360008873ffffffffffffffffffffffffffffffffffffffff1673ffffffffffffffffffffffffffffffffffffffff1681526020019081526020016000206002018190555084600360008873ffffffffffffffffffffffffffffffffffffffff1673ffffffffffffffffffffffffffffffffffffffff16815260200190815260200160002060030190816106fa9190611775565b5033600460008054815260200190815260200160002060006101000a81548173ffffffffffffffffffffffffffffffffffffffff021916908373ffffffffffffffffffffffffffffffffffffffff160217905550600054600560008873ffffffffffffffffffffffffffffffffffffffff1673ffffffffffffffffffffffffffffffffffffffff1681526020019081526020016000208190555060008081546107a2906118a6565b919050819055507ff62ed34d06386344717282b704861a00fb3ee41805873a1db48f7c7d1ae532da86866040516107da929190611847565b60405180910390a1600360008773ffffffffffffffffffffffffffffffffffffffff1673ffffffffffffffffffffffffffffffffffffffff16815260200190815260200160002060000160009054906101000a900473ffffffffffffffffffffffffffffffffffffffff16600360008873ffffffffffffffffffffffffffffffffffffffff1673ffffffffffffffffffffffffffffffffffffffff16815260200190815260200160002060010154600360008973ffffffffffffffffffffffffffffffffffffffff1673ffffffffffffffffffffffffffffffffffffffff16815260200190815260200160002060020154600360008a73ffffffffffffffffffffffffffffffffffffffff1673ffffffffffffffffffffffffffffffffffffffff16815260200190815260200160002060030180805461091990611598565b80601f016020809104026020016040519081016040528092919081815260200182805461094590611598565b80156109925780601f1061096757610100808354040283529160200191610992565b820191906000526020600020905b81548152906001019060200180831161097557829003601f168201915b50505050509050935093509350935092959194509250565b803373ffffffffffffffffffffffffffffffffffffffff16600360008373ffffffffffffffffffffffffffffffffffffffff1673ffffffffffffffffffffffffffffffffffffffff16815260200190815260200160002060000160009054906101000a900473ffffffffffffffffffffffffffffffffffffffff1673ffffffffffffffffffffffffffffffffffffffff1614610a7b576040517f08c379a0000000000000000000000000000000000000000000000000000000008152600401610a7290611549565b60405180910390fd5b600260008154610a8a906118a6565b91905081905550600360008373ffffffffffffffffffffffffffffffffffffffff1673ffffffffffffffffffffffffffffffffffffffff168152602001908152602001600020600080820160006101000a81549073ffffffffffffffffffffffffffffffffffffffff021916905560018201600090556002820160009055600382016000610b18919061106c565b505060046000600560008573ffffffffffffffffffffffffffffffffffffffff1673ffffffffffffffffffffffffffffffffffffffff16815260200190815260200160002054815260200190815260200160002060006101000a81549073ffffffffffffffffffffffffffffffffffffffff02191690557fe4d523d170738efb59edc0ff55d3114dc890232222e6ff1bdeb52ddd0ed7e2a982604051610bbe9190611418565b60405180910390a15050565b600660009054906101000a900460ff1615610c1a576040517f08c379a0000000000000000000000000000000000000000000000000000000008152600401610c1190611960565b60405180910390fd5b6001600660006101000a81548160ff02191690831515021790555033600160006101000a81548173ffffffffffffffffffffffffffffffffffffffff021916908373ffffffffffffffffffffffffffffffffffffffff160217905550600080819055506000600281905550565b6000600160009054906101000a900473ffffffffffffffffffffffffffffffffffffffff16905090565b600080600054600254600054610cc79190611980565b915091509091565b6060600360008373ffffffffffffffffffffffffffffffffffffffff1673ffffffffffffffffffffffffffffffffffffffff1681526020019081526020016000206003018054610d1e90611598565b80601f0160208091040260200160405190810160405280929190818152602001828054610d4a90611598565b8015610d975780601f10610d6c57610100808354040283529160200191610d97565b820191906000526020600020905b815481529060010190602001808311610d7a57829003601f168201915b50505050509050919050565b6060600360006004600085815260200190815260200160002060009054906101000a900473ffffffffffffffffffffffffffffffffffffffff1673ffffffffffffffffffffffffffffffffffffffff1673ffffffffffffffffffffffffffffffffffffffff1681526020019081526020016000206003018054610e2590611598565b80601f0160208091040260200160405190810160405280929190818152602001828054610e5190611598565b8015610e9e5780601f10610e7357610100808354040283529160200191610e9e565b820191906000526020600020905b815481529060010190602001808311610e8157829003601f168201915b50505050509050919050565b6060600160009054906101000a900473ffffffffffffffffffffffffffffffffffffffff1673ffffffffffffffffffffffffffffffffffffffff163373ffffffffffffffffffffffffffffffffffffffff1614610f3c576040517f08c379a0000000000000000000000000000000000000000000000000000000008152600401610f3390611a00565b60405180910390fd5b8173ffffffffffffffffffffffffffffffffffffffff16600160009054906101000a900473ffffffffffffffffffffffffffffffffffffffff1673ffffffffffffffffffffffffffffffffffffffff161461104b5781600160006101000a81548173ffffffffffffffffffffffffffffffffffffffff021916908373ffffffffffffffffffffffffffffffffffffffff1602179055507fcfaaa26691e16e66e73290fc725eee1a6b4e0e693a1640484937aac25ffb55a4600160009054906101000a900473ffffffffffffffffffffffffffffffffffffffff166040516110239190611418565b60405180910390a1604051806060016040528060228152602001611a21602291399050611067565b604051806060016040528060338152602001611a436033913990505b919050565b50805461107890611598565b6000825580601f1061108a57506110a9565b601f0160209004906000526020600020908101906110a891906110ac565b5b50565b5b808211156110c55760008160009055506001016110ad565b5090565b6000819050919050565b6110dc816110c9565b82525050565b60006020820190506110f760008301846110d3565b92915050565b6000604051905090565b600080fd5b600080fd5b600073ffffffffffffffffffffffffffffffffffffffff82169050919050565b600061113c82611111565b9050919050565b61114c81611131565b811461115757600080fd5b50565b60008135905061116981611143565b92915050565b600080fd5b600080fd5b6000601f19601f8301169050919050565b7f4e487b7100000000000000000000000000000000000000000000000000000000600052604160045260246000fd5b6111c282611179565b810181811067ffffffffffffffff821117156111e1576111e061118a565b5b80604052505050565b60006111f46110fd565b905061120082826111b9565b919050565b600067ffffffffffffffff8211156112205761121f61118a565b5b61122982611179565b9050602081019050919050565b82818337600083830152505050565b600061125861125384611205565b6111ea565b90508281526020810184848401111561127457611273611174565b5b61127f848285611236565b509392505050565b600082601f83011261129c5761129b61116f565b5b81356112ac848260208601611245565b91505092915050565b600080604083850312156112cc576112cb611107565b5b60006112da8582860161115a565b925050602083013567ffffffffffffffff8111156112fb576112fa61110c565b5b61130785828601611287565b9150509250929050565b61131a81611131565b82525050565b600081519050919050565b600082825260208201905092915050565b60005b8381101561135a57808201518184015260208101905061133f565b60008484015250505050565b600061137182611320565b61137b818561132b565b935061138b81856020860161133c565b61139481611179565b840191505092915050565b60006080820190506113b46000830187611311565b6113c160208301866110d3565b6113ce60408301856110d3565b81810360608301526113e08184611366565b905095945050505050565b60006020828403121561140157611400611107565b5b600061140f8482850161115a565b91505092915050565b600060208201905061142d6000830184611311565b92915050565b600060408201905061144860008301856110d3565b61145560208301846110d3565b9392505050565b600060208201905081810360008301526114768184611366565b905092915050565b611487816110c9565b811461149257600080fd5b50565b6000813590506114a48161147e565b92915050565b6000602082840312156114c0576114bf611107565b5b60006114ce84828501611495565b91505092915050565b7f6d6573736167652073656e646572206973206e6f742074686520636f6e74726f60008201527f6c6c6572206f66207468652044494420446f6300000000000000000000000000602082015250565b600061153360338361132b565b915061153e826114d7565b604082019050919050565b6000602082019050818103600083015261156281611526565b9050919050565b7f4e487b7100000000000000000000000000000000000000000000000000000000600052602260045260246000fd5b600060028204905060018216806115b057607f821691505b6020821081036115c3576115c2611569565b5b50919050565b60008190508160005260206000209050919050565b60006020601f8301049050919050565b600082821b905092915050565b60006008830261162b7fffffffffffffffffffffffffffffffffffffffffffffffffffffffffffffffff826115ee565b61163586836115ee565b95508019841693508086168417925050509392505050565b6000819050919050565b600061167261166d611668846110c9565b61164d565b6110c9565b9050919050565b6000819050919050565b61168c83611657565b6116a061169882611679565b8484546115fb565b825550505050565b600090565b6116b56116a8565b6116c0818484611683565b505050565b5b818110156116e4576116d96000826116ad565b6001810190506116c6565b5050565b601f821115611729576116fa816115c9565b611703846115de565b81016020851015611712578190505b61172661171e856115de565b8301826116c5565b50505b505050565b600082821c905092915050565b600061174c6000198460080261172e565b1980831691505092915050565b6000611765838361173b565b9150826002028217905092915050565b61177e82611320565b67ffffffffffffffff8111156117975761179661118a565b5b6117a18254611598565b6117ac8282856116e8565b600060209050601f8311600181146117df57600084156117cd578287015190505b6117d78582611759565b86555061183f565b601f1984166117ed866115c9565b60005b82811015611815578489015182556001820191506020850194506020810190506117f0565b86831015611832578489015161182e601f89168261173b565b8355505b6001600288020188555050505b505050505050565b600060408201905061185c6000830185611311565b818103602083015261186e8184611366565b90509392505050565b7f4e487b7100000000000000000000000000000000000000000000000000000000600052601160045260246000fd5b60006118b1826110c9565b91507fffffffffffffffffffffffffffffffffffffffffffffffffffffffffffffffff82036118e3576118e2611877565b5b600182019050919050565b7f436f6e747261637420696e7374616e63652068617320616c726561647920626560008201527f656e20696e697469616c697a6564000000000000000000000000000000000000602082015250565b600061194a602e8361132b565b9150611955826118ee565b604082019050919050565b600060208201905081810360008301526119798161193d565b9050919050565b600061198b826110c9565b9150611996836110c9565b92508282039050818111156119ae576119ad611877565b5b92915050565b7f6d6573736167652073656e646572206973206e6f7420746865206f776e657200600082015250565b60006119ea601f8361132b565b91506119f5826119b4565b602082019050919050565b60006020820190508181036000830152611a19816119dd565b905091905056fe4f776e657273686970207472616e73666572726564207375636365737366756c6c794f776e6572736869702063616e6e6f74206265207472616e7366657272656420746f207468652073616d65206163636f756e74a264697066735822122020b9d7bdfcd11da30bd259a1493bc9a9847c4a22be2cce6d2fbac02dff4c85ff64736f6c63430008100033",
  "immutableReferences": {},
  "source": "//SPDX-License-Identifier: MIT\npragma solidity ^0.8.16;\n\n// import \"@openzeppelin/contracts-upgradeable/proxy/utils/Initializable.sol\";\n\n/**\n *@title PolygonDidRegistry\n *@dev Smart Contract for Polygon DID Method\n */\ncontract PolygonDidRegistry {\n    uint256 totalDIDs;\n    address owner;\n    uint256 deletedDID;\n    struct PolyDID {\n        address controller;\n        uint256 created;\n        uint256 updated;\n        string did_doc;\n    }\n\n    modifier onlyController(address _id) {\n        require(\n            polyDIDs[_id].controller == msg.sender,\n            \"message sender is not the controller of the DID Doc\"\n        );\n        _;\n    }\n    mapping(address => PolyDID) polyDIDs;\n    mapping(uint256 => address) activeDIDs;\n    mapping(address => uint256) deleteDIDs;\n    event DidCreated(address id, string doc);\n    event DidUpdated(address id, string doc);\n    event DidDeleted(address id);\n    event TransferOwnership(address newOwner);\n    bool private initialized;\n\n    /**\n     *@dev initializes the ownership of contract\n     **/\n\n    function initialize() public {\n        require(!initialized, \"Contract instance has already been initialized\");\n        initialized = true;\n        owner = msg.sender;\n        totalDIDs = 0;\n        deletedDID = 0;\n    }\n\n    modifier onlyOwner() {\n        require(msg.sender == owner, \"message sender is not the owner\");\n        _;\n    }\n\n    /**\n     *@dev transfer the ownership of contract\n     *@param _newOwner - Address of the new owner to whom the ownership needs to be passed\n     **/\n\n    function transferOwnership(address _newOwner)\n        public\n        onlyOwner\n        returns (string memory)\n    {\n        if (owner != _newOwner) {\n            owner = _newOwner;\n            emit TransferOwnership(owner);\n            return (\"Ownership transferred successfully\");\n        } else {\n            return (\"Ownership cannot be transferred to the same account\");\n        }\n    }\n\n    /**\n     *@dev Reads contract owner from chain\n     */\n\n    function getOwner() public view returns (address _owner) {\n        return owner;\n    }\n\n    /**\n     *@dev Register a new DID\n     *@param _id - Address that will refer the DID doc\n     *@param _doc - A string object that holds the DID Doc\n     */\n\n    function createDID(address _id, string memory _doc)\n        public\n        returns (\n            address controller,\n            uint256 created,\n            uint256 updated,\n            string memory did_doc\n        )\n    {\n        polyDIDs[_id].controller = msg.sender;\n        polyDIDs[_id].created = block.timestamp;\n        polyDIDs[_id].updated = block.timestamp;\n        polyDIDs[_id].did_doc = _doc;\n        activeDIDs[totalDIDs] = msg.sender;\n        deleteDIDs[_id] = totalDIDs;\n        ++totalDIDs;\n        emit DidCreated(_id, _doc);\n        return (\n            polyDIDs[_id].controller,\n            polyDIDs[_id].created,\n            polyDIDs[_id].updated,\n            polyDIDs[_id].did_doc\n        );\n    }\n\n    /**\n     *@dev Reads DID Doc from Chain\n     *@param _id - Address that refers to the DID doc position\n     */\n\n    function getDIDDoc(address _id) public view returns (string memory) {\n        return polyDIDs[_id].did_doc;\n    }\n\n    /**\n     *@dev Reads total number of DIDs from Chain\n     */\n\n    function getTotalNumberOfDIDs()\n        public\n        view\n        returns (uint256 _totalDIDs, uint256 _activeDIDs)\n    {\n        return (totalDIDs, (totalDIDs - deletedDID));\n    }\n\n    /**\n     *@dev Reads total number of DIDs deleted from Chain\n     */\n\n    function getTotalNumberOfDeletedDIDs()\n        public\n        view\n        returns (uint256 _deletedDID)\n    {\n        return deletedDID;\n    }\n\n    /**\n     *@dev Reads one DID at a time from Chain based on index\n     *@param _index - Uint256 type variable that refers to the DID position\n     *@return _did - returns the DID Doc assciated with the index. Returns null if the DID Doc is deleted.\n     */\n\n    function getDIDDOcByIndex(uint256 _index)\n        public\n        view\n        returns (string memory)\n    {\n        return polyDIDs[activeDIDs[_index]].did_doc;\n    }\n\n    /**\n     *@dev To Update the DID doc\n     *@param _id - Address that refers to the DID doc\n     *@param _doc - A String that holds the DID doc\n     */\n\n    function updateDID(address _id, string memory _doc)\n        public\n        onlyController(_id)\n        returns (\n            address controller,\n            uint256 created,\n            uint256 updated,\n            string memory did_doc\n        )\n    {\n        polyDIDs[_id].did_doc = _doc;\n        polyDIDs[_id].updated = block.timestamp;\n        emit DidUpdated(_id, _doc);\n        return (\n            polyDIDs[_id].controller,\n            polyDIDs[_id].created,\n            polyDIDs[_id].updated,\n            polyDIDs[_id].did_doc\n        );\n    }\n\n    /**\n     *@dev To delete a DID from chain\n     *@param _id - Address that refers to the DID doc that need to be deleted\n     */\n\n    function deleteDID(address _id) public onlyController(_id) {\n        ++deletedDID;\n        delete polyDIDs[_id];\n        delete activeDIDs[deleteDIDs[_id]];\n        emit DidDeleted(_id);\n    }\n}\n",
  "sourcePath": "/home/user/PolygonDEP/polygon-did-registry-contract/contracts/PolygonDidRegistry.sol",
  "compiler": {
    "name": "solc",
    "version": "0.8.16+commit.07a7930e.Emscripten.clang"
  },
  "schemaVersion": "3.4.8",
  "updatedAt": "2022-09-16T12:42:10.737Z",
  "devdoc": {
    "details": "Smart Contract for Polygon DID Method",
    "kind": "dev",
    "methods": {
      "createDID(address,string)": {
        "details": "Register a new DID",
        "params": {
          "_doc": "- A string object that holds the DID Doc",
          "_id": "- Address that will refer the DID doc"
        }
      },
      "deleteDID(address)": {
        "details": "To delete a DID from chain",
        "params": {
          "_id": "- Address that refers to the DID doc that need to be deleted"
        }
      },
      "getDIDDOcByIndex(uint256)": {
        "details": "Reads one DID at a time from Chain based on index",
        "params": {
          "_index": "- Uint256 type variable that refers to the DID position"
        },
        "returns": {
          "_0": "_did - returns the DID Doc assciated with the index. Returns null if the DID Doc is deleted."
        }
      },
      "getDIDDoc(address)": {
        "details": "Reads DID Doc from Chain",
        "params": {
          "_id": "- Address that refers to the DID doc position"
        }
      },
      "getOwner()": {
        "details": "Reads contract owner from chain"
      },
      "getTotalNumberOfDIDs()": {
        "details": "Reads total number of DIDs from Chain"
      },
      "getTotalNumberOfDeletedDIDs()": {
        "details": "Reads total number of DIDs deleted from Chain"
      },
      "initialize()": {
        "details": "initializes the ownership of contract*"
      },
      "transferOwnership(address)": {
        "details": "transfer the ownership of contract",
        "params": {
          "_newOwner": "- Address of the new owner to whom the ownership needs to be passed*"
        }
      },
      "updateDID(address,string)": {
        "details": "To Update the DID doc",
        "params": {
          "_doc": "- A String that holds the DID doc",
          "_id": "- Address that refers to the DID doc"
        }
      }
    },
    "title": "PolygonDidRegistry",
    "version": 1
  },
  "userdoc": {
    "kind": "user",
    "methods": {},
    "version": 1
  }
}