{
  "contractName": "PolygonDidRegistry",
  "abi": [
    {
      "anonymous": false,
      "inputs": [
        {
          "indexed": false,
          "internalType": "address",
          "name": "id",
          "type": "address"
        },
        {
          "indexed": false,
          "internalType": "string",
          "name": "doc",
          "type": "string"
        }
      ],
      "name": "DIDCreated",
      "type": "event"
    },
    {
      "anonymous": false,
      "inputs": [
        {
          "indexed": false,
          "internalType": "address",
          "name": "id",
          "type": "address"
        }
      ],
      "name": "DIDDeleted",
      "type": "event"
    },
    {
      "anonymous": false,
      "inputs": [
        {
          "indexed": false,
          "internalType": "address",
          "name": "id",
          "type": "address"
        },
        {
          "indexed": false,
          "internalType": "string",
          "name": "doc",
          "type": "string"
        }
      ],
      "name": "DIDUpdated",
      "type": "event"
    },
    {
      "anonymous": false,
      "inputs": [
        {
          "indexed": false,
          "internalType": "address",
          "name": "newOwner",
          "type": "address"
        }
      ],
      "name": "TransferOwnership",
      "type": "event"
    },
    {
      "inputs": [],
      "name": "initialize",
      "outputs": [],
      "stateMutability": "nonpayable",
      "type": "function"
    },
    {
      "inputs": [
        {
          "internalType": "address",
          "name": "_newOwner",
          "type": "address"
        }
      ],
      "name": "transferOwnership",
      "outputs": [
        {
          "internalType": "string",
          "name": "",
          "type": "string"
        }
      ],
      "stateMutability": "nonpayable",
      "type": "function"
    },
    {
      "inputs": [],
      "name": "getOwner",
      "outputs": [
        {
          "internalType": "address",
          "name": "_owner",
          "type": "address"
        }
      ],
      "stateMutability": "view",
      "type": "function"
    },
    {
      "inputs": [
        {
          "internalType": "address",
          "name": "_id",
          "type": "address"
        },
        {
          "internalType": "string",
          "name": "_doc",
          "type": "string"
        }
      ],
      "name": "createDID",
      "outputs": [
        {
          "internalType": "address",
          "name": "controller",
          "type": "address"
        },
        {
          "internalType": "uint256",
          "name": "created",
          "type": "uint256"
        },
        {
          "internalType": "uint256",
          "name": "updated",
          "type": "uint256"
        },
        {
          "internalType": "string",
          "name": "didDoc",
          "type": "string"
        }
      ],
      "stateMutability": "nonpayable",
      "type": "function"
    },
    {
      "inputs": [
        {
          "internalType": "address",
          "name": "_id",
          "type": "address"
        }
      ],
      "name": "getDIDDoc",
      "outputs": [
        {
          "internalType": "string",
          "name": "",
          "type": "string"
        }
      ],
      "stateMutability": "view",
      "type": "function"
    },
    {
      "inputs": [],
      "name": "getTotalNumberOfDIDs",
      "outputs": [
        {
          "internalType": "uint256",
          "name": "_totalDIDs",
          "type": "uint256"
        },
        {
          "internalType": "uint256",
          "name": "_activeDIDs",
          "type": "uint256"
        }
      ],
      "stateMutability": "view",
      "type": "function"
    },
    {
      "inputs": [],
      "name": "getTotalNumberOfDeletedDIDs",
      "outputs": [
        {
          "internalType": "uint256",
          "name": "_deletedDID",
          "type": "uint256"
        }
      ],
      "stateMutability": "view",
      "type": "function"
    },
    {
      "inputs": [
        {
          "internalType": "uint256",
          "name": "_index",
          "type": "uint256"
        }
      ],
      "name": "getDIDDOcByIndex",
      "outputs": [
        {
          "internalType": "string",
          "name": "",
          "type": "string"
        }
      ],
      "stateMutability": "view",
      "type": "function"
    },
    {
      "inputs": [
        {
          "internalType": "address",
          "name": "_id",
          "type": "address"
        },
        {
          "internalType": "string",
          "name": "_doc",
          "type": "string"
        }
      ],
      "name": "updateDIDDoc",
      "outputs": [
        {
          "internalType": "address",
          "name": "controller",
          "type": "address"
        },
        {
          "internalType": "uint256",
          "name": "created",
          "type": "uint256"
        },
        {
          "internalType": "uint256",
          "name": "updated",
          "type": "uint256"
        },
        {
          "internalType": "string",
          "name": "didDoc",
          "type": "string"
        }
      ],
      "stateMutability": "nonpayable",
      "type": "function"
    },
    {
      "inputs": [
        {
          "internalType": "address",
          "name": "_id",
          "type": "address"
        }
      ],
      "name": "deleteDIDDoc",
      "outputs": [],
      "stateMutability": "nonpayable",
      "type": "function"
    }
  ],
  "bytecode": "0x608060405234801561001057600080fd5b50611aab806100206000396000f3fe608060405234801561001057600080fd5b506004361061009e5760003560e01c8063b779752711610066578063b77975271461013b578063d4b9d14a1461016b578063effc10171461019e578063f2c30fb9146101ce578063f2fde38b146101ea5761009e565b8063167602d4146100a357806363d61166146100c15780638129fc1c146100f4578063893d20e8146100fe578063ae66a3261461011c575b600080fd5b6100ab61021a565b6040516100b891906110e2565b60405180910390f35b6100db60048036038101906100d691906112b5565b610224565b6040516100eb949392919061139f565b60405180910390f35b6100fc610639565b005b6101066106f6565b60405161011391906113eb565b60405180910390f35b610124610720565b604051610132929190611406565b60405180910390f35b6101556004803603810190610150919061142f565b61073e565b604051610162919061145c565b60405180910390f35b610185600480360381019061018091906112b5565b610812565b604051610195949392919061139f565b60405180910390f35b6101b860048036038101906101b391906114aa565b610b83565b6040516101c5919061145c565b60405180910390f35b6101e860048036038101906101e3919061142f565b610c8a565b005b61020460048036038101906101ff919061142f565b610eaa565b604051610211919061145c565b60405180910390f35b6000600254905090565b6000806000606033600360008873ffffffffffffffffffffffffffffffffffffffff1673ffffffffffffffffffffffffffffffffffffffff16815260200190815260200160002060000160006101000a81548173ffffffffffffffffffffffffffffffffffffffff021916908373ffffffffffffffffffffffffffffffffffffffff16021790555042600360008873ffffffffffffffffffffffffffffffffffffffff1673ffffffffffffffffffffffffffffffffffffffff1681526020019081526020016000206001018190555042600360008873ffffffffffffffffffffffffffffffffffffffff1673ffffffffffffffffffffffffffffffffffffffff1681526020019081526020016000206002018190555084600360008873ffffffffffffffffffffffffffffffffffffffff1673ffffffffffffffffffffffffffffffffffffffff168152602001908152602001600020600301908161038991906116e3565b5033600460008054815260200190815260200160002060006101000a81548173ffffffffffffffffffffffffffffffffffffffff021916908373ffffffffffffffffffffffffffffffffffffffff160217905550600054600560008873ffffffffffffffffffffffffffffffffffffffff1673ffffffffffffffffffffffffffffffffffffffff168152602001908152602001600020819055506000808154610431906117e4565b919050819055507f1b7934654ba536b6962955e057ce42885353bbaad8c605a5ce0678e632f28410868660405161046992919061182c565b60405180910390a1600360008773ffffffffffffffffffffffffffffffffffffffff1673ffffffffffffffffffffffffffffffffffffffff16815260200190815260200160002060000160009054906101000a900473ffffffffffffffffffffffffffffffffffffffff16600360008873ffffffffffffffffffffffffffffffffffffffff1673ffffffffffffffffffffffffffffffffffffffff16815260200190815260200160002060010154600360008973ffffffffffffffffffffffffffffffffffffffff1673ffffffffffffffffffffffffffffffffffffffff16815260200190815260200160002060020154600360008a73ffffffffffffffffffffffffffffffffffffffff1673ffffffffffffffffffffffffffffffffffffffff1681526020019081526020016000206003018080546105a890611506565b80601f01602080910402602001604051908101604052809291908181526020018280546105d490611506565b80156106215780601f106105f657610100808354040283529160200191610621565b820191906000526020600020905b81548152906001019060200180831161060457829003601f168201915b50505050509050935093509350935092959194509250565b600660009054906101000a900460ff1615610689576040517f08c379a0000000000000000000000000000000000000000000000000000000008152600401610680906118ce565b60405180910390fd5b6001600660006101000a81548160ff02191690831515021790555033600160006101000a81548173ffffffffffffffffffffffffffffffffffffffff021916908373ffffffffffffffffffffffffffffffffffffffff160217905550600080819055506000600281905550565b6000600160009054906101000a900473ffffffffffffffffffffffffffffffffffffffff16905090565b60008060005460025460005461073691906118ee565b915091509091565b6060600360008373ffffffffffffffffffffffffffffffffffffffff1673ffffffffffffffffffffffffffffffffffffffff168152602001908152602001600020600301805461078d90611506565b80601f01602080910402602001604051908101604052809291908181526020018280546107b990611506565b80156108065780601f106107db57610100808354040283529160200191610806565b820191906000526020600020905b8154815290600101906020018083116107e957829003601f168201915b50505050509050919050565b60008060006060853373ffffffffffffffffffffffffffffffffffffffff16600360008373ffffffffffffffffffffffffffffffffffffffff1673ffffffffffffffffffffffffffffffffffffffff16815260200190815260200160002060000160009054906101000a900473ffffffffffffffffffffffffffffffffffffffff1673ffffffffffffffffffffffffffffffffffffffff16146108ea576040517f08c379a00000000000000000000000000000000000000000000000000000000081526004016108e190611994565b60405180910390fd5b85600360008973ffffffffffffffffffffffffffffffffffffffff1673ffffffffffffffffffffffffffffffffffffffff168152602001908152602001600020600301908161093991906116e3565b5042600360008973ffffffffffffffffffffffffffffffffffffffff1673ffffffffffffffffffffffffffffffffffffffff168152602001908152602001600020600201819055507fa0016473004b22caf3cbe32658844f4dfe20b54f72612d0ea625cc07ca3a192b87876040516109b292919061182c565b60405180910390a1600360008873ffffffffffffffffffffffffffffffffffffffff1673ffffffffffffffffffffffffffffffffffffffff16815260200190815260200160002060000160009054906101000a900473ffffffffffffffffffffffffffffffffffffffff16600360008973ffffffffffffffffffffffffffffffffffffffff1673ffffffffffffffffffffffffffffffffffffffff16815260200190815260200160002060010154600360008a73ffffffffffffffffffffffffffffffffffffffff1673ffffffffffffffffffffffffffffffffffffffff16815260200190815260200160002060020154600360008b73ffffffffffffffffffffffffffffffffffffffff1673ffffffffffffffffffffffffffffffffffffffff168152602001908152602001600020600301808054610af190611506565b80601f0160208091040260200160405190810160405280929190818152602001828054610b1d90611506565b8015610b6a5780601f10610b3f57610100808354040283529160200191610b6a565b820191906000526020600020905b815481529060010190602001808311610b4d57829003601f168201915b5050505050905094509450945094505092959194509250565b6060600360006004600085815260200190815260200160002060009054906101000a900473ffffffffffffffffffffffffffffffffffffffff1673ffffffffffffffffffffffffffffffffffffffff1673ffffffffffffffffffffffffffffffffffffffff1681526020019081526020016000206003018054610c0590611506565b80601f0160208091040260200160405190810160405280929190818152602001828054610c3190611506565b8015610c7e5780601f10610c5357610100808354040283529160200191610c7e565b820191906000526020600020905b815481529060010190602001808311610c6157829003601f168201915b50505050509050919050565b803373ffffffffffffffffffffffffffffffffffffffff16600360008373ffffffffffffffffffffffffffffffffffffffff1673ffffffffffffffffffffffffffffffffffffffff16815260200190815260200160002060000160009054906101000a900473ffffffffffffffffffffffffffffffffffffffff1673ffffffffffffffffffffffffffffffffffffffff1614610d5b576040517f08c379a0000000000000000000000000000000000000000000000000000000008152600401610d5290611994565b60405180910390fd5b600360008373ffffffffffffffffffffffffffffffffffffffff1673ffffffffffffffffffffffffffffffffffffffff168152602001908152602001600020600080820160006101000a81549073ffffffffffffffffffffffffffffffffffffffff021916905560018201600090556002820160009055600382016000610de2919061106c565b505060046000600560008573ffffffffffffffffffffffffffffffffffffffff1673ffffffffffffffffffffffffffffffffffffffff16815260200190815260200160002054815260200190815260200160002060006101000a81549073ffffffffffffffffffffffffffffffffffffffff0219169055600260008154610e68906117e4565b919050819055507f48615d93df6fd25803abe2a52f9335bcfe034a086daa4e9d5c90ae9a2f7e5ef782604051610e9e91906113eb565b60405180910390a15050565b6060600160009054906101000a900473ffffffffffffffffffffffffffffffffffffffff1673ffffffffffffffffffffffffffffffffffffffff163373ffffffffffffffffffffffffffffffffffffffff1614610f3c576040517f08c379a0000000000000000000000000000000000000000000000000000000008152600401610f3390611a00565b60405180910390fd5b8173ffffffffffffffffffffffffffffffffffffffff16600160009054906101000a900473ffffffffffffffffffffffffffffffffffffffff1673ffffffffffffffffffffffffffffffffffffffff161461104b5781600160006101000a81548173ffffffffffffffffffffffffffffffffffffffff021916908373ffffffffffffffffffffffffffffffffffffffff1602179055507fcfaaa26691e16e66e73290fc725eee1a6b4e0e693a1640484937aac25ffb55a4600160009054906101000a900473ffffffffffffffffffffffffffffffffffffffff1660405161102391906113eb565b60405180910390a1604051806060016040528060228152602001611a21602291399050611067565b604051806060016040528060338152602001611a436033913990505b919050565b50805461107890611506565b6000825580601f1061108a57506110a9565b601f0160209004906000526020600020908101906110a891906110ac565b5b50565b5b808211156110c55760008160009055506001016110ad565b5090565b6000819050919050565b6110dc816110c9565b82525050565b60006020820190506110f760008301846110d3565b92915050565b6000604051905090565b600080fd5b600080fd5b600073ffffffffffffffffffffffffffffffffffffffff82169050919050565b600061113c82611111565b9050919050565b61114c81611131565b811461115757600080fd5b50565b60008135905061116981611143565b92915050565b600080fd5b600080fd5b6000601f19601f8301169050919050565b7f4e487b7100000000000000000000000000000000000000000000000000000000600052604160045260246000fd5b6111c282611179565b810181811067ffffffffffffffff821117156111e1576111e061118a565b5b80604052505050565b60006111f46110fd565b905061120082826111b9565b919050565b600067ffffffffffffffff8211156112205761121f61118a565b5b61122982611179565b9050602081019050919050565b82818337600083830152505050565b600061125861125384611205565b6111ea565b90508281526020810184848401111561127457611273611174565b5b61127f848285611236565b509392505050565b600082601f83011261129c5761129b61116f565b5b81356112ac848260208601611245565b91505092915050565b600080604083850312156112cc576112cb611107565b5b60006112da8582860161115a565b925050602083013567ffffffffffffffff8111156112fb576112fa61110c565b5b61130785828601611287565b9150509250929050565b61131a81611131565b82525050565b600081519050919050565b600082825260208201905092915050565b60005b8381101561135a57808201518184015260208101905061133f565b60008484015250505050565b600061137182611320565b61137b818561132b565b935061138b81856020860161133c565b61139481611179565b840191505092915050565b60006080820190506113b46000830187611311565b6113c160208301866110d3565b6113ce60408301856110d3565b81810360608301526113e08184611366565b905095945050505050565b60006020820190506114006000830184611311565b92915050565b600060408201905061141b60008301856110d3565b61142860208301846110d3565b9392505050565b60006020828403121561144557611444611107565b5b60006114538482850161115a565b91505092915050565b600060208201905081810360008301526114768184611366565b905092915050565b611487816110c9565b811461149257600080fd5b50565b6000813590506114a48161147e565b92915050565b6000602082840312156114c0576114bf611107565b5b60006114ce84828501611495565b91505092915050565b7f4e487b7100000000000000000000000000000000000000000000000000000000600052602260045260246000fd5b6000600282049050600182168061151e57607f821691505b602082108103611531576115306114d7565b5b50919050565b60008190508160005260206000209050919050565b60006020601f8301049050919050565b600082821b905092915050565b6000600883026115997fffffffffffffffffffffffffffffffffffffffffffffffffffffffffffffffff8261155c565b6115a3868361155c565b95508019841693508086168417925050509392505050565b6000819050919050565b60006115e06115db6115d6846110c9565b6115bb565b6110c9565b9050919050565b6000819050919050565b6115fa836115c5565b61160e611606826115e7565b848454611569565b825550505050565b600090565b611623611616565b61162e8184846115f1565b505050565b5b818110156116525761164760008261161b565b600181019050611634565b5050565b601f8211156116975761166881611537565b6116718461154c565b81016020851015611680578190505b61169461168c8561154c565b830182611633565b50505b505050565b600082821c905092915050565b60006116ba6000198460080261169c565b1980831691505092915050565b60006116d383836116a9565b9150826002028217905092915050565b6116ec82611320565b67ffffffffffffffff8111156117055761170461118a565b5b61170f8254611506565b61171a828285611656565b600060209050601f83116001811461174d576000841561173b578287015190505b61174585826116c7565b8655506117ad565b601f19841661175b86611537565b60005b828110156117835784890151825560018201915060208501945060208101905061175e565b868310156117a0578489015161179c601f8916826116a9565b8355505b6001600288020188555050505b505050505050565b7f4e487b7100000000000000000000000000000000000000000000000000000000600052601160045260246000fd5b60006117ef826110c9565b91507fffffffffffffffffffffffffffffffffffffffffffffffffffffffffffffffff8203611821576118206117b5565b5b600182019050919050565b60006040820190506118416000830185611311565b81810360208301526118538184611366565b90509392505050565b7f436f6e747261637420696e7374616e63652068617320616c726561647920626560008201527f656e20696e697469616c697a6564000000000000000000000000000000000000602082015250565b60006118b8602e8361132b565b91506118c38261185c565b604082019050919050565b600060208201905081810360008301526118e7816118ab565b9050919050565b60006118f9826110c9565b9150611904836110c9565b925082820390508181111561191c5761191b6117b5565b5b92915050565b7f6d6573736167652073656e646572206973206e6f742074686520636f6e74726f60008201527f6c6c6572206f66207468652044494420446f6300000000000000000000000000602082015250565b600061197e60338361132b565b915061198982611922565b604082019050919050565b600060208201905081810360008301526119ad81611971565b9050919050565b7f6d6573736167652073656e646572206973206e6f7420746865206f776e657200600082015250565b60006119ea601f8361132b565b91506119f5826119b4565b602082019050919050565b60006020820190508181036000830152611a19816119dd565b905091905056fe4f776e657273686970207472616e73666572726564207375636365737366756c6c794f776e6572736869702063616e6e6f74206265207472616e7366657272656420746f207468652073616d65206163636f756e74a26469706673582212202e533390f104b15cf97975ea3fd8c0ecf30323fbe02e17d599354be70f59ff4964736f6c63430008100033",
  "immutableReferences": {},
  "source": "//SPDX-License-Identifier: MIT\npragma solidity ^0.8.16;\n\n/**\n *@title PolygonDidRegistry\n *@dev Smart Contract for Polygon DID Method\n */\ncontract PolygonDidRegistry {\n    uint256 totalDIDs;\n    address owner;\n    uint256 deletedDID;\n    struct PolyDID {\n        address controller;\n        uint256 created;\n        uint256 updated;\n        string didDoc;\n    }\n\n    modifier onlyController(address _id) {\n        require(\n            polyDIDs[_id].controller == msg.sender,\n            \"message sender is not the controller of the DID Doc\"\n        );\n        _;\n    }\n    mapping(address => PolyDID) polyDIDs;\n    mapping(uint256 => address) activeDIDs;\n    mapping(address => uint256) activeAddress;\n    event DIDCreated(address id, string doc);\n    event DIDUpdated(address id, string doc);\n    event DIDDeleted(address id);\n    event TransferOwnership(address newOwner);\n    bool private initialized;\n\n    /**\n     *@dev initializes the ownership of contract\n     **/\n\n    function initialize() public {\n        require(!initialized, \"Contract instance has already been initialized\");\n        initialized = true;\n        owner = msg.sender;\n        totalDIDs = 0;\n        deletedDID = 0;\n    }\n\n    modifier onlyOwner() {\n        require(msg.sender == owner, \"message sender is not the owner\");\n        _;\n    }\n\n    /**\n     *@dev transfer the ownership of contract\n     *@param _newOwner - Address of the new owner to whom the ownership needs to be passed\n     **/\n\n    function transferOwnership(address _newOwner)\n        public\n        onlyOwner\n        returns (string memory)\n    {\n        if (owner != _newOwner) {\n            owner = _newOwner;\n            emit TransferOwnership(owner);\n            return (\"Ownership transferred successfully\");\n        } else {\n            return (\"Ownership cannot be transferred to the same account\");\n        }\n    }\n\n    /**\n     *@dev Reads contract owner from chain\n     */\n\n    function getOwner() public view returns (address _owner) {\n        return owner;\n    }\n\n    /**\n     *@dev Register a new DID\n     *@param _id - Address that will refer the DID doc\n     *@param _doc - A string object that holds the DID Doc\n     */\n\n    function createDID(address _id, string memory _doc)\n        public\n        returns (\n            address controller,\n            uint256 created,\n            uint256 updated,\n            string memory didDoc\n        )\n    {\n        polyDIDs[_id].controller = msg.sender;\n        polyDIDs[_id].created = block.timestamp;\n        polyDIDs[_id].updated = block.timestamp;\n        polyDIDs[_id].didDoc = _doc;\n        activeDIDs[totalDIDs] = msg.sender;\n        activeAddress[_id] = totalDIDs;\n        ++totalDIDs;\n        emit DIDCreated(_id, _doc);\n        return (\n            polyDIDs[_id].controller,\n            polyDIDs[_id].created,\n            polyDIDs[_id].updated,\n            polyDIDs[_id].didDoc\n        );\n    }\n\n    /**\n     *@dev Reads DID Doc from Chain\n     *@param _id - Address that refers to the DID doc position\n     */\n\n    function getDIDDoc(address _id) public view returns (string memory) {\n        return polyDIDs[_id].didDoc;\n    }\n\n    /**\n     *@dev Reads total number of DIDs and total number of active DIDs from Chain\n     */\n\n    function getTotalNumberOfDIDs()\n        public\n        view\n        returns (uint256 _totalDIDs, uint256 _activeDIDs)\n    {\n        return (totalDIDs, (totalDIDs - deletedDID));\n    }\n\n    /**\n     *@dev Reads total number of DIDs deleted from Chain\n     */\n\n    function getTotalNumberOfDeletedDIDs()\n        public\n        view\n        returns (uint256 _deletedDID)\n    {\n        return deletedDID;\n    }\n\n    /**\n     *@dev Reads one DID at a time from Chain based on index\n     *@param _index - Uint256 type variable that refers to the DID position\n     *@return _did - returns the DID Doc assciated with the index. Returns null if the DID Doc is deleted.\n     */\n\n    function getDIDDOcByIndex(uint256 _index)\n        public\n        view\n        returns (string memory)\n    {\n        return polyDIDs[activeDIDs[_index]].didDoc;\n    }\n\n    /**\n     *@dev To Update the DID doc\n     *@param _id - Address that refers to the DID doc\n     *@param _doc - A String that holds the DID doc\n     */\n\n    function updateDIDDoc(address _id, string memory _doc)\n        public\n        onlyController(_id)\n        returns (\n            address controller,\n            uint256 created,\n            uint256 updated,\n            string memory didDoc\n        )\n    {\n        polyDIDs[_id].didDoc = _doc;\n        polyDIDs[_id].updated = block.timestamp;\n        emit DIDUpdated(_id, _doc);\n        return (\n            polyDIDs[_id].controller,\n            polyDIDs[_id].created,\n            polyDIDs[_id].updated,\n            polyDIDs[_id].didDoc\n        );\n    }\n\n    /**\n     *@dev To delete a DID from chain\n     *@param _id - Address that refers to the DID doc that need to be deleted\n     */\n\n    function deleteDIDDoc(address _id) public onlyController(_id) {\n        delete polyDIDs[_id];\n        delete activeDIDs[activeAddress[_id]];\n        ++deletedDID;\n        emit DIDDeleted(_id);\n    }\n}\n",
  "sourcePath": "/home/user/PolygonDEP/polygon-did-registry-contract/contracts/PolygonDidRegistry.sol",
  "compiler": {
    "name": "solc",
    "version": "0.8.16+commit.07a7930e.Emscripten.clang"
  },
  "schemaVersion": "3.4.8",
  "updatedAt": "2022-09-19T10:34:17.698Z",
  "devdoc": {
    "details": "Smart Contract for Polygon DID Method",
    "kind": "dev",
    "methods": {
      "createDID(address,string)": {
        "details": "Register a new DID",
        "params": {
          "_doc": "- A string object that holds the DID Doc",
          "_id": "- Address that will refer the DID doc"
        }
      },
      "deleteDIDDoc(address)": {
        "details": "To delete a DID from chain",
        "params": {
          "_id": "- Address that refers to the DID doc that need to be deleted"
        }
      },
      "getDIDDOcByIndex(uint256)": {
        "details": "Reads one DID at a time from Chain based on index",
        "params": {
          "_index": "- Uint256 type variable that refers to the DID position"
        },
        "returns": {
          "_0": "_did - returns the DID Doc assciated with the index. Returns null if the DID Doc is deleted."
        }
      },
      "getDIDDoc(address)": {
        "details": "Reads DID Doc from Chain",
        "params": {
          "_id": "- Address that refers to the DID doc position"
        }
      },
      "getOwner()": {
        "details": "Reads contract owner from chain"
      },
      "getTotalNumberOfDIDs()": {
        "details": "Reads total number of DIDs and total number of active DIDs from Chain"
      },
      "getTotalNumberOfDeletedDIDs()": {
        "details": "Reads total number of DIDs deleted from Chain"
      },
      "initialize()": {
        "details": "initializes the ownership of contract*"
      },
      "transferOwnership(address)": {
        "details": "transfer the ownership of contract",
        "params": {
          "_newOwner": "- Address of the new owner to whom the ownership needs to be passed*"
        }
      },
      "updateDIDDoc(address,string)": {
        "details": "To Update the DID doc",
        "params": {
          "_doc": "- A String that holds the DID doc",
          "_id": "- Address that refers to the DID doc"
        }
      }
    },
    "title": "PolygonDidRegistry",
    "version": 1
  },
  "userdoc": {
    "kind": "user",
    "methods": {},
    "version": 1
  }
}