{
  "contractName": "PolygonDidRegistry",
  "abi": [
    {
      "inputs": [],
      "stateMutability": "nonpayable",
      "type": "constructor"
    },
    {
      "anonymous": false,
      "inputs": [
        {
          "indexed": false,
          "internalType": "address",
          "name": "id",
          "type": "address"
        },
        {
          "indexed": false,
          "internalType": "string",
          "name": "doc",
          "type": "string"
        }
      ],
      "name": "DidCreated",
      "type": "event"
    },
    {
      "anonymous": false,
      "inputs": [
        {
          "indexed": false,
          "internalType": "address",
          "name": "id",
          "type": "address"
        }
      ],
      "name": "DidDeleted",
      "type": "event"
    },
    {
      "anonymous": false,
      "inputs": [
        {
          "indexed": false,
          "internalType": "address",
          "name": "id",
          "type": "address"
        },
        {
          "indexed": false,
          "internalType": "string",
          "name": "doc",
          "type": "string"
        }
      ],
      "name": "DidUpdated",
      "type": "event"
    },
    {
      "anonymous": false,
      "inputs": [
        {
          "indexed": false,
          "internalType": "address",
          "name": "newOwner",
          "type": "address"
        }
      ],
      "name": "TransferOwnership",
      "type": "event"
    },
    {
      "inputs": [
        {
          "internalType": "address",
          "name": "newOwner",
          "type": "address"
        }
      ],
      "name": "transferOwnership",
      "outputs": [
        {
          "internalType": "string",
          "name": "",
          "type": "string"
        }
      ],
      "stateMutability": "nonpayable",
      "type": "function"
    },
    {
      "inputs": [
        {
          "internalType": "address",
          "name": "_id",
          "type": "address"
        },
        {
          "internalType": "string",
          "name": "_doc",
          "type": "string"
        }
      ],
      "name": "createDID",
      "outputs": [
        {
          "internalType": "address",
          "name": "controller",
          "type": "address"
        },
        {
          "internalType": "uint256",
          "name": "created",
          "type": "uint256"
        },
        {
          "internalType": "uint256",
          "name": "updated",
          "type": "uint256"
        },
        {
          "internalType": "string",
          "name": "did_doc",
          "type": "string"
        }
      ],
      "stateMutability": "nonpayable",
      "type": "function"
    },
    {
      "inputs": [
        {
          "internalType": "address",
          "name": "_id",
          "type": "address"
        }
      ],
      "name": "getDID",
      "outputs": [
        {
          "internalType": "string",
          "name": "",
          "type": "string"
        }
      ],
      "stateMutability": "view",
      "type": "function"
    },
    {
      "inputs": [
        {
          "internalType": "address",
          "name": "_id",
          "type": "address"
        },
        {
          "internalType": "string",
          "name": "_doc",
          "type": "string"
        }
      ],
      "name": "updateDID",
      "outputs": [
        {
          "internalType": "address",
          "name": "controller",
          "type": "address"
        },
        {
          "internalType": "uint256",
          "name": "created",
          "type": "uint256"
        },
        {
          "internalType": "uint256",
          "name": "updated",
          "type": "uint256"
        },
        {
          "internalType": "string",
          "name": "did_doc",
          "type": "string"
        }
      ],
      "stateMutability": "nonpayable",
      "type": "function"
    },
    {
      "inputs": [
        {
          "internalType": "address",
          "name": "_id",
          "type": "address"
        }
      ],
      "name": "deleteDID",
      "outputs": [],
      "stateMutability": "nonpayable",
      "type": "function"
    }
  ],
  "bytecode": "0x608060405234801561001057600080fd5b50336000806101000a81548173ffffffffffffffffffffffffffffffffffffffff021916908373ffffffffffffffffffffffffffffffffffffffff16021790555061125a806100606000396000f3fe608060405234801561001057600080fd5b50600436106100575760003560e01c806325f2ac621461005c57806363d611661461008f5780637f52e0a7146100c2578063f2fde38b146100de578063f64e30b01461010e575b600080fd5b61007660048036038101906100719190610dd1565b61013e565b6040516100869493929190610f6d565b60405180910390f35b6100a960048036038101906100a49190610dd1565b6104b6565b6040516100b99493929190610f6d565b60405180910390f35b6100dc60048036038101906100d79190610da8565b610824565b005b6100f860048036038101906100f39190610da8565b6109b9565b6040516101059190610fb9565b60405180910390f35b61012860048036038101906101239190610da8565b610b74565b6040516101359190610fb9565b60405180910390f35b60008060006060853373ffffffffffffffffffffffffffffffffffffffff16600160008373ffffffffffffffffffffffffffffffffffffffff1673ffffffffffffffffffffffffffffffffffffffff16815260200190815260200160002060000160009054906101000a900473ffffffffffffffffffffffffffffffffffffffff1673ffffffffffffffffffffffffffffffffffffffff1614610216576040517f08c379a000000000000000000000000000000000000000000000000000000000815260040161020d90610ffb565b60405180910390fd5b85600160008973ffffffffffffffffffffffffffffffffffffffff1673ffffffffffffffffffffffffffffffffffffffff168152602001908152602001600020600301908051906020019061026c929190610c48565b5042600160008973ffffffffffffffffffffffffffffffffffffffff1673ffffffffffffffffffffffffffffffffffffffff168152602001908152602001600020600201819055507f2312318cda72db25202ee216222e615408e4d11837ed3f089f89c86de702e69687876040516102e5929190610f3d565b60405180910390a1600160008873ffffffffffffffffffffffffffffffffffffffff1673ffffffffffffffffffffffffffffffffffffffff16815260200190815260200160002060000160009054906101000a900473ffffffffffffffffffffffffffffffffffffffff16600160008973ffffffffffffffffffffffffffffffffffffffff1673ffffffffffffffffffffffffffffffffffffffff16815260200190815260200160002060010154600160008a73ffffffffffffffffffffffffffffffffffffffff1673ffffffffffffffffffffffffffffffffffffffff16815260200190815260200160002060020154600160008b73ffffffffffffffffffffffffffffffffffffffff1673ffffffffffffffffffffffffffffffffffffffff16815260200190815260200160002060030180805461042490611116565b80601f016020809104026020016040519081016040528092919081815260200182805461045090611116565b801561049d5780601f106104725761010080835404028352916020019161049d565b820191906000526020600020905b81548152906001019060200180831161048057829003601f168201915b5050505050905094509450945094505092959194509250565b6000806000606033600160008873ffffffffffffffffffffffffffffffffffffffff1673ffffffffffffffffffffffffffffffffffffffff16815260200190815260200160002060000160006101000a81548173ffffffffffffffffffffffffffffffffffffffff021916908373ffffffffffffffffffffffffffffffffffffffff16021790555042600160008873ffffffffffffffffffffffffffffffffffffffff1673ffffffffffffffffffffffffffffffffffffffff1681526020019081526020016000206001018190555042600160008873ffffffffffffffffffffffffffffffffffffffff1673ffffffffffffffffffffffffffffffffffffffff1681526020019081526020016000206002018190555084600160008873ffffffffffffffffffffffffffffffffffffffff1673ffffffffffffffffffffffffffffffffffffffff1681526020019081526020016000206003019080519060200190610622929190610c48565b507ff62ed34d06386344717282b704861a00fb3ee41805873a1db48f7c7d1ae532da8686604051610654929190610f3d565b60405180910390a1600160008773ffffffffffffffffffffffffffffffffffffffff1673ffffffffffffffffffffffffffffffffffffffff16815260200190815260200160002060000160009054906101000a900473ffffffffffffffffffffffffffffffffffffffff16600160008873ffffffffffffffffffffffffffffffffffffffff1673ffffffffffffffffffffffffffffffffffffffff16815260200190815260200160002060010154600160008973ffffffffffffffffffffffffffffffffffffffff1673ffffffffffffffffffffffffffffffffffffffff16815260200190815260200160002060020154600160008a73ffffffffffffffffffffffffffffffffffffffff1673ffffffffffffffffffffffffffffffffffffffff16815260200190815260200160002060030180805461079390611116565b80601f01602080910402602001604051908101604052809291908181526020018280546107bf90611116565b801561080c5780601f106107e15761010080835404028352916020019161080c565b820191906000526020600020905b8154815290600101906020018083116107ef57829003601f168201915b50505050509050935093509350935092959194509250565b803373ffffffffffffffffffffffffffffffffffffffff16600160008373ffffffffffffffffffffffffffffffffffffffff1673ffffffffffffffffffffffffffffffffffffffff16815260200190815260200160002060000160009054906101000a900473ffffffffffffffffffffffffffffffffffffffff1673ffffffffffffffffffffffffffffffffffffffff16146108f5576040517f08c379a00000000000000000000000000000000000000000000000000000000081526004016108ec90610ffb565b60405180910390fd5b600160008373ffffffffffffffffffffffffffffffffffffffff1673ffffffffffffffffffffffffffffffffffffffff168152602001908152602001600020600080820160006101000a81549073ffffffffffffffffffffffffffffffffffffffff02191690556001820160009055600282016000905560038201600061097c9190610cce565b50507fe4d523d170738efb59edc0ff55d3114dc890232222e6ff1bdeb52ddd0ed7e2a9826040516109ad9190610f22565b60405180910390a15050565b606060008054906101000a900473ffffffffffffffffffffffffffffffffffffffff1673ffffffffffffffffffffffffffffffffffffffff163373ffffffffffffffffffffffffffffffffffffffff1614610a49576040517f08c379a0000000000000000000000000000000000000000000000000000000008152600401610a4090610fdb565b60405180910390fd5b8173ffffffffffffffffffffffffffffffffffffffff1660008054906101000a900473ffffffffffffffffffffffffffffffffffffffff1673ffffffffffffffffffffffffffffffffffffffff1614610b5357816000806101000a81548173ffffffffffffffffffffffffffffffffffffffff021916908373ffffffffffffffffffffffffffffffffffffffff1602179055507fcfaaa26691e16e66e73290fc725eee1a6b4e0e693a1640484937aac25ffb55a460008054906101000a900473ffffffffffffffffffffffffffffffffffffffff16604051610b2b9190610f22565b60405180910390a1604051806060016040528060228152602001611203602291399050610b6f565b6040518060600160405280603481526020016111cf6034913990505b919050565b6060600160008373ffffffffffffffffffffffffffffffffffffffff1673ffffffffffffffffffffffffffffffffffffffff1681526020019081526020016000206003018054610bc390611116565b80601f0160208091040260200160405190810160405280929190818152602001828054610bef90611116565b8015610c3c5780601f10610c1157610100808354040283529160200191610c3c565b820191906000526020600020905b815481529060010190602001808311610c1f57829003601f168201915b50505050509050919050565b828054610c5490611116565b90600052602060002090601f016020900481019282610c765760008555610cbd565b82601f10610c8f57805160ff1916838001178555610cbd565b82800160010185558215610cbd579182015b82811115610cbc578251825591602001919060010190610ca1565b5b509050610cca9190610d0e565b5090565b508054610cda90611116565b6000825580601f10610cec5750610d0b565b601f016020900490600052602060002090810190610d0a9190610d0e565b5b50565b5b80821115610d27576000816000905550600101610d0f565b5090565b6000610d3e610d398461104c565b61101b565b905082815260208101848484011115610d5657600080fd5b610d618482856110d4565b509392505050565b600081359050610d78816111b7565b92915050565b600082601f830112610d8f57600080fd5b8135610d9f848260208601610d2b565b91505092915050565b600060208284031215610dba57600080fd5b6000610dc884828501610d69565b91505092915050565b60008060408385031215610de457600080fd5b6000610df285828601610d69565b925050602083013567ffffffffffffffff811115610e0f57600080fd5b610e1b85828601610d7e565b9150509250929050565b610e2e81611098565b82525050565b6000610e3f8261107c565b610e498185611087565b9350610e598185602086016110e3565b610e62816111a6565b840191505092915050565b6000610e7a601f83611087565b91507f6d6573736167652073656e646572206973206e6f7420746865206f776e6572006000830152602082019050919050565b6000610eba602483611087565b91507f6d6573736167652073656e646572206973206e6f742074686520636f6e74726f60008301527f6c6c6572000000000000000000000000000000000000000000000000000000006020830152604082019050919050565b610f1c816110ca565b82525050565b6000602082019050610f376000830184610e25565b92915050565b6000604082019050610f526000830185610e25565b8181036020830152610f648184610e34565b90509392505050565b6000608082019050610f826000830187610e25565b610f8f6020830186610f13565b610f9c6040830185610f13565b8181036060830152610fae8184610e34565b905095945050505050565b60006020820190508181036000830152610fd38184610e34565b905092915050565b60006020820190508181036000830152610ff481610e6d565b9050919050565b6000602082019050818103600083015261101481610ead565b9050919050565b6000604051905081810181811067ffffffffffffffff8211171561104257611041611177565b5b8060405250919050565b600067ffffffffffffffff82111561106757611066611177565b5b601f19601f8301169050602081019050919050565b600081519050919050565b600082825260208201905092915050565b60006110a3826110aa565b9050919050565b600073ffffffffffffffffffffffffffffffffffffffff82169050919050565b6000819050919050565b82818337600083830152505050565b60005b838110156111015780820151818401526020810190506110e6565b83811115611110576000848401525b50505050565b6000600282049050600182168061112e57607f821691505b6020821081141561114257611141611148565b5b50919050565b7f4e487b7100000000000000000000000000000000000000000000000000000000600052602260045260246000fd5b7f4e487b7100000000000000000000000000000000000000000000000000000000600052604160045260246000fd5b6000601f19601f8301169050919050565b6111c081611098565b81146111cb57600080fd5b5056fe4e6577204f776e6572206164647265737320697320657175616c20746f206f726967696e616c206f776e657220616464726573734f776e657273686970207472616e73666665726564207375636365737366756c6c79a2646970667358221220bf700556580c64e89ebf5a6e0d02e2bba85b2dfceaef019cd49dcada20f0580c64736f6c63430008000033",
  "immutableReferences": {},
  "source": "/**\n *Submitted for verification at polygonscan.com on 2021-12-29\n*/\n\n//SPDX-License-Identifier: MIT\npragma solidity ^0.8.0;\n\n/**\n *@title PolygonDidRegistry\n *@dev Smart Contract for Polygon DID Method\n */\ncontract PolygonDidRegistry {\n    address owner;\n    struct PolyDID {\n        address controller;\n        uint256 created;\n        uint256 updated;\n        string did_doc;\n    }\n    modifier onlyController(address _id) {\n        require(\n            did[_id].controller == msg.sender, \"message sender is not the controller\"\n        );\n        _;\n    }\n\n    mapping(address => PolyDID) did;\n    event DidCreated(address id, string doc);\n    event DidUpdated(address id, string doc);\n    event DidDeleted(address id);\n    event TransferOwnership(address newOwner);\n\n    constructor (){\n        owner = msg.sender;\n    }\n\n    modifier onlyOwner(){\n        require( msg.sender == owner, \"message sender is not the owner\");\n        _;\n    }\n\n    function transferOwnership(address newOwner)public onlyOwner() returns (string memory){\n        if(owner != newOwner){\n            owner = newOwner;\n            emit TransferOwnership(owner);\n            return (\"Ownership transffered successfully\");\n        }\n        else {\n            return (\"New Owner address is equal to original owner address\");\n        }\n    }\n\n    /**\n     *@dev Register a new DID\n     *@param _id - Address that will refer the DID doc\n     *@param _doc - A string object that holds the DID Doc\n     */\n    function createDID(address _id, string memory _doc)\n        public\n        returns (address controller, uint256 created, uint256 updated, string memory did_doc)\n    {\n        did[_id].controller = msg.sender;\n        did[_id].created = block.timestamp;\n        did[_id].updated = block.timestamp;\n        did[_id].did_doc = _doc;\n        emit DidCreated(_id, _doc);\n        return (did[_id].controller, did[_id].created, did[_id].updated, did[_id].did_doc);\n    }\n\n    /**\n     *@dev Reads DID Doc from Chain\n     *@param _id - Address that refers to the DID doc position\n     */\n    function getDID(address _id) public view returns (string memory) {\n        return did[_id].did_doc;\n    }\n\n    /**\n     *@dev To Update the DID doc\n     *@param _id - Address that refers to the DID doc\n     *@param _doc - A String that holds the DID doc\n     */\n    function updateDID(address _id, string memory _doc)\n        public\n        onlyController(_id) returns(address controller, uint256 created, uint256 updated, string memory did_doc)\n    {\n        did[_id].did_doc = _doc;\n        did[_id].updated = block.timestamp;\n        emit DidUpdated(_id, _doc);\n        return (did[_id].controller, did[_id].created, did[_id].updated, did[_id].did_doc);\n    }\n\n    /**\n     *@dev To delete a DID from chain\n     *@param _id - Address that refers to the DID doc that need to be deleted\n     */\n    function deleteDID(address _id) public onlyController(_id) {\n        delete did[_id];\n        emit DidDeleted(_id);\n    }\n}",
  "sourcePath": "/home/user/Polygon-new/polygon-did-registry-contract/contracts/PolygonDidRegistry.sol",
  "compiler": {
    "name": "solc",
    "version": "0.8.0+commit.c7dfd78e.Emscripten.clang"
  },
  "schemaVersion": "3.3.4",
  "updatedAt": "2021-12-31T07:43:05.516Z",
  "devdoc": {
    "details": "Smart Contract for Polygon DID Method",
    "kind": "dev",
    "methods": {
      "createDID(address,string)": {
        "details": "Register a new DID",
        "params": {
          "_doc": "- A string object that holds the DID Doc",
          "_id": "- Address that will refer the DID doc"
        }
      },
      "deleteDID(address)": {
        "details": "To delete a DID from chain",
        "params": {
          "_id": "- Address that refers to the DID doc that need to be deleted"
        }
      },
      "getDID(address)": {
        "details": "Reads DID Doc from Chain",
        "params": {
          "_id": "- Address that refers to the DID doc position"
        }
      },
      "updateDID(address,string)": {
        "details": "To Update the DID doc",
        "params": {
          "_doc": "- A String that holds the DID doc",
          "_id": "- Address that refers to the DID doc"
        }
      }
    },
    "title": "PolygonDidRegistry",
    "version": 1
  },
  "userdoc": {
    "kind": "user",
    "methods": {},
    "version": 1
  }
}