{
  "contractName": "PolygonDidRegistry",
  "abi": [
    {
      "anonymous": false,
      "inputs": [
        {
          "indexed": false,
          "internalType": "address",
          "name": "id",
          "type": "address"
        },
        {
          "indexed": false,
          "internalType": "string",
          "name": "doc",
          "type": "string"
        }
      ],
      "name": "DidCreated",
      "type": "event"
    },
    {
      "anonymous": false,
      "inputs": [
        {
          "indexed": false,
          "internalType": "address",
          "name": "id",
          "type": "address"
        }
      ],
      "name": "DidDeleted",
      "type": "event"
    },
    {
      "anonymous": false,
      "inputs": [
        {
          "indexed": false,
          "internalType": "address",
          "name": "id",
          "type": "address"
        },
        {
          "indexed": false,
          "internalType": "string",
          "name": "doc",
          "type": "string"
        }
      ],
      "name": "DidUpdated",
      "type": "event"
    },
    {
      "anonymous": false,
      "inputs": [
        {
          "indexed": false,
          "internalType": "address",
          "name": "newOwner",
          "type": "address"
        }
      ],
      "name": "TransferOwnership",
      "type": "event"
    },
    {
      "inputs": [],
      "name": "initialize",
      "outputs": [],
      "stateMutability": "nonpayable",
      "type": "function"
    },
    {
      "inputs": [
        {
          "internalType": "address",
          "name": "_newOwner",
          "type": "address"
        }
      ],
      "name": "transferOwnership",
      "outputs": [
        {
          "internalType": "string",
          "name": "",
          "type": "string"
        }
      ],
      "stateMutability": "nonpayable",
      "type": "function"
    },
    {
      "inputs": [],
      "name": "getOwner",
      "outputs": [
        {
          "internalType": "address",
          "name": "_owner",
          "type": "address"
        }
      ],
      "stateMutability": "view",
      "type": "function"
    },
    {
      "inputs": [
        {
          "internalType": "address",
          "name": "_id",
          "type": "address"
        },
        {
          "internalType": "string",
          "name": "_doc",
          "type": "string"
        }
      ],
      "name": "createDID",
      "outputs": [
        {
          "internalType": "address",
          "name": "controller",
          "type": "address"
        },
        {
          "internalType": "uint256",
          "name": "created",
          "type": "uint256"
        },
        {
          "internalType": "uint256",
          "name": "updated",
          "type": "uint256"
        },
        {
          "internalType": "string",
          "name": "did_doc",
          "type": "string"
        }
      ],
      "stateMutability": "nonpayable",
      "type": "function"
    },
    {
      "inputs": [
        {
          "internalType": "address",
          "name": "_id",
          "type": "address"
        }
      ],
      "name": "getDID",
      "outputs": [
        {
          "internalType": "string",
          "name": "",
          "type": "string"
        }
      ],
      "stateMutability": "view",
      "type": "function"
    },
    {
      "inputs": [
        {
          "internalType": "address",
          "name": "_id",
          "type": "address"
        },
        {
          "internalType": "string",
          "name": "_doc",
          "type": "string"
        }
      ],
      "name": "updateDID",
      "outputs": [
        {
          "internalType": "address",
          "name": "controller",
          "type": "address"
        },
        {
          "internalType": "uint256",
          "name": "created",
          "type": "uint256"
        },
        {
          "internalType": "uint256",
          "name": "updated",
          "type": "uint256"
        },
        {
          "internalType": "string",
          "name": "did_doc",
          "type": "string"
        }
      ],
      "stateMutability": "nonpayable",
      "type": "function"
    },
    {
      "inputs": [
        {
          "internalType": "address",
          "name": "_id",
          "type": "address"
        }
      ],
      "name": "deleteDID",
      "outputs": [],
      "stateMutability": "nonpayable",
      "type": "function"
    }
  ],
  "bytecode": "0x608060405234801561001057600080fd5b5061165f806100206000396000f3fe608060405234801561001057600080fd5b506004361061007d5760003560e01c80638129fc1c1161005b5780638129fc1c14610104578063893d20e81461010e578063f2fde38b1461012c578063f64e30b01461015c5761007d565b806325f2ac621461008257806363d61166146100b55780637f52e0a7146100e8575b600080fd5b61009c60048036038101906100979190610f73565b61018c565b6040516100ac949392919061107f565b60405180910390f35b6100cf60048036038101906100ca9190610f73565b6104fd565b6040516100df949392919061107f565b60405180910390f35b61010260048036038101906100fd91906110cb565b610864565b005b61010c6109f9565b005b610116610aa6565b60405161012391906110f8565b60405180910390f35b610146600480360381019061014191906110cb565b610acf565b6040516101539190611113565b60405180910390f35b610176600480360381019061017191906110cb565b610c8a565b6040516101839190611113565b60405180910390f35b60008060006060853373ffffffffffffffffffffffffffffffffffffffff16600160008373ffffffffffffffffffffffffffffffffffffffff1673ffffffffffffffffffffffffffffffffffffffff16815260200190815260200160002060000160009054906101000a900473ffffffffffffffffffffffffffffffffffffffff1673ffffffffffffffffffffffffffffffffffffffff1614610264576040517f08c379a000000000000000000000000000000000000000000000000000000000815260040161025b906111a7565b60405180910390fd5b85600160008973ffffffffffffffffffffffffffffffffffffffff1673ffffffffffffffffffffffffffffffffffffffff16815260200190815260200160002060030190816102b391906113d3565b5042600160008973ffffffffffffffffffffffffffffffffffffffff1673ffffffffffffffffffffffffffffffffffffffff168152602001908152602001600020600201819055507f2312318cda72db25202ee216222e615408e4d11837ed3f089f89c86de702e696878760405161032c9291906114a5565b60405180910390a1600160008873ffffffffffffffffffffffffffffffffffffffff1673ffffffffffffffffffffffffffffffffffffffff16815260200190815260200160002060000160009054906101000a900473ffffffffffffffffffffffffffffffffffffffff16600160008973ffffffffffffffffffffffffffffffffffffffff1673ffffffffffffffffffffffffffffffffffffffff16815260200190815260200160002060010154600160008a73ffffffffffffffffffffffffffffffffffffffff1673ffffffffffffffffffffffffffffffffffffffff16815260200190815260200160002060020154600160008b73ffffffffffffffffffffffffffffffffffffffff1673ffffffffffffffffffffffffffffffffffffffff16815260200190815260200160002060030180805461046b906111f6565b80601f0160208091040260200160405190810160405280929190818152602001828054610497906111f6565b80156104e45780601f106104b9576101008083540402835291602001916104e4565b820191906000526020600020905b8154815290600101906020018083116104c757829003601f168201915b5050505050905094509450945094505092959194509250565b6000806000606033600160008873ffffffffffffffffffffffffffffffffffffffff1673ffffffffffffffffffffffffffffffffffffffff16815260200190815260200160002060000160006101000a81548173ffffffffffffffffffffffffffffffffffffffff021916908373ffffffffffffffffffffffffffffffffffffffff16021790555042600160008873ffffffffffffffffffffffffffffffffffffffff1673ffffffffffffffffffffffffffffffffffffffff1681526020019081526020016000206001018190555042600160008873ffffffffffffffffffffffffffffffffffffffff1673ffffffffffffffffffffffffffffffffffffffff1681526020019081526020016000206002018190555084600160008873ffffffffffffffffffffffffffffffffffffffff1673ffffffffffffffffffffffffffffffffffffffff168152602001908152602001600020600301908161066291906113d3565b507ff62ed34d06386344717282b704861a00fb3ee41805873a1db48f7c7d1ae532da86866040516106949291906114a5565b60405180910390a1600160008773ffffffffffffffffffffffffffffffffffffffff1673ffffffffffffffffffffffffffffffffffffffff16815260200190815260200160002060000160009054906101000a900473ffffffffffffffffffffffffffffffffffffffff16600160008873ffffffffffffffffffffffffffffffffffffffff1673ffffffffffffffffffffffffffffffffffffffff16815260200190815260200160002060010154600160008973ffffffffffffffffffffffffffffffffffffffff1673ffffffffffffffffffffffffffffffffffffffff16815260200190815260200160002060020154600160008a73ffffffffffffffffffffffffffffffffffffffff1673ffffffffffffffffffffffffffffffffffffffff1681526020019081526020016000206003018080546107d3906111f6565b80601f01602080910402602001604051908101604052809291908181526020018280546107ff906111f6565b801561084c5780601f106108215761010080835404028352916020019161084c565b820191906000526020600020905b81548152906001019060200180831161082f57829003601f168201915b50505050509050935093509350935092959194509250565b803373ffffffffffffffffffffffffffffffffffffffff16600160008373ffffffffffffffffffffffffffffffffffffffff1673ffffffffffffffffffffffffffffffffffffffff16815260200190815260200160002060000160009054906101000a900473ffffffffffffffffffffffffffffffffffffffff1673ffffffffffffffffffffffffffffffffffffffff1614610935576040517f08c379a000000000000000000000000000000000000000000000000000000000815260040161092c906111a7565b60405180910390fd5b600160008373ffffffffffffffffffffffffffffffffffffffff1673ffffffffffffffffffffffffffffffffffffffff168152602001908152602001600020600080820160006101000a81549073ffffffffffffffffffffffffffffffffffffffff0219169055600182016000905560028201600090556003820160006109bc9190610d5e565b50507fe4d523d170738efb59edc0ff55d3114dc890232222e6ff1bdeb52ddd0ed7e2a9826040516109ed91906110f8565b60405180910390a15050565b600260009054906101000a900460ff1615610a49576040517f08c379a0000000000000000000000000000000000000000000000000000000008152600401610a4090611547565b60405180910390fd5b6001600260006101000a81548160ff021916908315150217905550336000806101000a81548173ffffffffffffffffffffffffffffffffffffffff021916908373ffffffffffffffffffffffffffffffffffffffff160217905550565b60008060009054906101000a900473ffffffffffffffffffffffffffffffffffffffff16905090565b606060008054906101000a900473ffffffffffffffffffffffffffffffffffffffff1673ffffffffffffffffffffffffffffffffffffffff163373ffffffffffffffffffffffffffffffffffffffff1614610b5f576040517f08c379a0000000000000000000000000000000000000000000000000000000008152600401610b56906115b3565b60405180910390fd5b8173ffffffffffffffffffffffffffffffffffffffff1660008054906101000a900473ffffffffffffffffffffffffffffffffffffffff1673ffffffffffffffffffffffffffffffffffffffff1614610c6957816000806101000a81548173ffffffffffffffffffffffffffffffffffffffff021916908373ffffffffffffffffffffffffffffffffffffffff1602179055507fcfaaa26691e16e66e73290fc725eee1a6b4e0e693a1640484937aac25ffb55a460008054906101000a900473ffffffffffffffffffffffffffffffffffffffff16604051610c4191906110f8565b60405180910390a16040518060600160405280602281526020016115d4602291399050610c85565b6040518060600160405280603481526020016115f66034913990505b919050565b6060600160008373ffffffffffffffffffffffffffffffffffffffff1673ffffffffffffffffffffffffffffffffffffffff1681526020019081526020016000206003018054610cd9906111f6565b80601f0160208091040260200160405190810160405280929190818152602001828054610d05906111f6565b8015610d525780601f10610d2757610100808354040283529160200191610d52565b820191906000526020600020905b815481529060010190602001808311610d3557829003601f168201915b50505050509050919050565b508054610d6a906111f6565b6000825580601f10610d7c5750610d9b565b601f016020900490600052602060002090810190610d9a9190610d9e565b5b50565b5b80821115610db7576000816000905550600101610d9f565b5090565b6000604051905090565b600080fd5b600080fd5b600073ffffffffffffffffffffffffffffffffffffffff82169050919050565b6000610dfa82610dcf565b9050919050565b610e0a81610def565b8114610e1557600080fd5b50565b600081359050610e2781610e01565b92915050565b600080fd5b600080fd5b6000601f19601f8301169050919050565b7f4e487b7100000000000000000000000000000000000000000000000000000000600052604160045260246000fd5b610e8082610e37565b810181811067ffffffffffffffff82111715610e9f57610e9e610e48565b5b80604052505050565b6000610eb2610dbb565b9050610ebe8282610e77565b919050565b600067ffffffffffffffff821115610ede57610edd610e48565b5b610ee782610e37565b9050602081019050919050565b82818337600083830152505050565b6000610f16610f1184610ec3565b610ea8565b905082815260208101848484011115610f3257610f31610e32565b5b610f3d848285610ef4565b509392505050565b600082601f830112610f5a57610f59610e2d565b5b8135610f6a848260208601610f03565b91505092915050565b60008060408385031215610f8a57610f89610dc5565b5b6000610f9885828601610e18565b925050602083013567ffffffffffffffff811115610fb957610fb8610dca565b5b610fc585828601610f45565b9150509250929050565b610fd881610def565b82525050565b6000819050919050565b610ff181610fde565b82525050565b600081519050919050565b600082825260208201905092915050565b60005b83811015611031578082015181840152602081019050611016565b83811115611040576000848401525b50505050565b600061105182610ff7565b61105b8185611002565b935061106b818560208601611013565b61107481610e37565b840191505092915050565b60006080820190506110946000830187610fcf565b6110a16020830186610fe8565b6110ae6040830185610fe8565b81810360608301526110c08184611046565b905095945050505050565b6000602082840312156110e1576110e0610dc5565b5b60006110ef84828501610e18565b91505092915050565b600060208201905061110d6000830184610fcf565b92915050565b6000602082019050818103600083015261112d8184611046565b905092915050565b7f6d6573736167652073656e646572206973206e6f742074686520636f6e74726f60008201527f6c6c6572206f66207468652044494420446f6300000000000000000000000000602082015250565b6000611191603383611002565b915061119c82611135565b604082019050919050565b600060208201905081810360008301526111c081611184565b9050919050565b7f4e487b7100000000000000000000000000000000000000000000000000000000600052602260045260246000fd5b6000600282049050600182168061120e57607f821691505b602082108103611221576112206111c7565b5b50919050565b60008190508160005260206000209050919050565b60006020601f8301049050919050565b600082821b905092915050565b6000600883026112897fffffffffffffffffffffffffffffffffffffffffffffffffffffffffffffffff8261124c565b611293868361124c565b95508019841693508086168417925050509392505050565b6000819050919050565b60006112d06112cb6112c684610fde565b6112ab565b610fde565b9050919050565b6000819050919050565b6112ea836112b5565b6112fe6112f6826112d7565b848454611259565b825550505050565b600090565b611313611306565b61131e8184846112e1565b505050565b5b818110156113425761133760008261130b565b600181019050611324565b5050565b601f8211156113875761135881611227565b6113618461123c565b81016020851015611370578190505b61138461137c8561123c565b830182611323565b50505b505050565b600082821c905092915050565b60006113aa6000198460080261138c565b1980831691505092915050565b60006113c38383611399565b9150826002028217905092915050565b6113dc82610ff7565b67ffffffffffffffff8111156113f5576113f4610e48565b5b6113ff82546111f6565b61140a828285611346565b600060209050601f83116001811461143d576000841561142b578287015190505b61143585826113b7565b86555061149d565b601f19841661144b86611227565b60005b828110156114735784890151825560018201915060208501945060208101905061144e565b86831015611490578489015161148c601f891682611399565b8355505b6001600288020188555050505b505050505050565b60006040820190506114ba6000830185610fcf565b81810360208301526114cc8184611046565b90509392505050565b7f436f6e747261637420696e7374616e63652068617320616c726561647920626560008201527f656e20696e697469616c697a6564000000000000000000000000000000000000602082015250565b6000611531602e83611002565b915061153c826114d5565b604082019050919050565b6000602082019050818103600083015261156081611524565b9050919050565b7f6d6573736167652073656e646572206973206e6f7420746865206f776e657200600082015250565b600061159d601f83611002565b91506115a882611567565b602082019050919050565b600060208201905081810360008301526115cc81611590565b905091905056fe4f776e657273686970207472616e73666572726564207375636365737366756c6c794e6577204f776e6572206164647265737320697320657175616c20746f206f726967696e616c206f776e65722061646472657373a2646970667358221220a3867f7773ccedfd71bcb646183b41ed7f459b766eb190c31245ef0011bb2d5064736f6c634300080f0033",
  "immutableReferences": {},
  "source": "/**\n *Submitted for verification at polygonscan.com on 2021-12-29\n*/\n\n//SPDX-License-Identifier: MIT\npragma solidity ^0.8.15;\n// import \"@openzeppelin/contracts-upgradeable/proxy/utils/Initializable.sol\";\n\n/**\n *@title PolygonDidRegistry\n *@dev Smart Contract for Polygon DID Method\n */\ncontract PolygonDidRegistry {\n    address owner;\n    struct PolyDID {\n        address controller;\n        uint256 created;\n        uint256 updated;\n        string did_doc;\n    }\n\n    modifier onlyController(address _id) {\n        require(\n            did[_id].controller == msg.sender, \"message sender is not the controller of the DID Doc\"\n        );\n        _;\n    }\n\n    mapping(address => PolyDID) did;\n    event DidCreated(address id, string doc);\n    event DidUpdated(address id, string doc);\n    event DidDeleted(address id);\n    event TransferOwnership(address newOwner);\n        bool private initialized;\n\n    function initialize() public {\n        require(!initialized, \"Contract instance has already been initialized\");\n        initialized = true;\n        owner = msg.sender;\n    }\n\n    modifier onlyOwner(){\n        require( msg.sender == owner, \"message sender is not the owner\");\n        _;\n    }\n\n    /**\n    *@dev transfer the ownership of contract\n    *@param _newOwner - Address of the new owner to whom the ownership needs to be passed\n    **/\n    function transferOwnership(address _newOwner)public onlyOwner() returns (string memory){\n        if(owner != _newOwner){\n            owner = _newOwner;\n            emit TransferOwnership(owner);\n            return (\"Ownership transferred successfully\");\n        }\n        else {\n            return (\"New Owner address is equal to original owner address\");\n        }\n    }\n\n    /**\n     *@dev Reads contract owner from chain\n     */\n    function getOwner() public view returns (address _owner){\n        return owner;\n    }\n\n    /**\n     *@dev Register a new DID\n     *@param _id - Address that will refer the DID doc\n     *@param _doc - A string object that holds the DID Doc\n     */\n    function createDID(address _id, string memory _doc)\n        public\n        returns (address controller, uint256 created, uint256 updated, string memory did_doc)\n    {\n        did[_id].controller = msg.sender;\n        did[_id].created = block.timestamp;\n        did[_id].updated = block.timestamp;\n        did[_id].did_doc = _doc;\n        emit DidCreated(_id, _doc);\n        return (did[_id].controller, did[_id].created, did[_id].updated, did[_id].did_doc);\n    }\n\n    /**\n     *@dev Reads DID Doc from Chain\n     *@param _id - Address that refers to the DID doc position\n     */\n    function getDID(address _id) public view returns (string memory) {\n        return did[_id].did_doc;\n    }\n\n    /**\n     *@dev To Update the DID doc\n     *@param _id - Address that refers to the DID doc\n     *@param _doc - A String that holds the DID doc\n     */\n    function updateDID(address _id, string memory _doc)\n        public\n        onlyController(_id) returns(address controller, uint256 created, uint256 updated, string memory did_doc)\n    {\n        did[_id].did_doc = _doc;\n        did[_id].updated = block.timestamp;\n        emit DidUpdated(_id, _doc);\n        return (did[_id].controller, did[_id].created, did[_id].updated, did[_id].did_doc);\n    }\n\n    /**\n     *@dev To delete a DID from chain\n     *@param _id - Address that refers to the DID doc that need to be deleted\n     */\n    function deleteDID(address _id) public onlyController(_id) {\n        delete did[_id];\n        emit DidDeleted(_id);\n    }\n}\n",
  "sourcePath": "/home/user/PolygonDEP/polygon-did-registry-contract/contracts/PolygonDidRegistry.sol",
  "compiler": {
    "name": "solc",
    "version": "0.8.15+commit.e14f2714.Emscripten.clang"
  },
  "schemaVersion": "3.4.8",
  "updatedAt": "2022-08-03T06:22:40.998Z",
  "devdoc": {
    "details": "Smart Contract for Polygon DID Method",
    "kind": "dev",
    "methods": {
      "createDID(address,string)": {
        "details": "Register a new DID",
        "params": {
          "_doc": "- A string object that holds the DID Doc",
          "_id": "- Address that will refer the DID doc"
        }
      },
      "deleteDID(address)": {
        "details": "To delete a DID from chain",
        "params": {
          "_id": "- Address that refers to the DID doc that need to be deleted"
        }
      },
      "getDID(address)": {
        "details": "Reads DID Doc from Chain",
        "params": {
          "_id": "- Address that refers to the DID doc position"
        }
      },
      "getOwner()": {
        "details": "Reads contract owner from chain"
      },
      "transferOwnership(address)": {
        "details": "transfer the ownership of contract",
        "params": {
          "_newOwner": "- Address of the new owner to whom the ownership needs to be passed*"
        }
      },
      "updateDID(address,string)": {
        "details": "To Update the DID doc",
        "params": {
          "_doc": "- A String that holds the DID doc",
          "_id": "- Address that refers to the DID doc"
        }
      }
    },
    "title": "PolygonDidRegistry",
    "version": 1
  },
  "userdoc": {
    "kind": "user",
    "methods": {},
    "version": 1
  }
}