{
  "contractName": "PolygonDidRegistry",
  "abi": [
    {
      "anonymous": false,
      "inputs": [
        {
          "indexed": false,
          "internalType": "address",
          "name": "id",
          "type": "address"
        },
        {
          "indexed": false,
          "internalType": "string",
          "name": "doc",
          "type": "string"
        }
      ],
      "name": "DidCreated",
      "type": "event"
    },
    {
      "anonymous": false,
      "inputs": [
        {
          "indexed": false,
          "internalType": "address",
          "name": "id",
          "type": "address"
        }
      ],
      "name": "DidDeleted",
      "type": "event"
    },
    {
      "anonymous": false,
      "inputs": [
        {
          "indexed": false,
          "internalType": "address",
          "name": "id",
          "type": "address"
        },
        {
          "indexed": false,
          "internalType": "string",
          "name": "doc",
          "type": "string"
        }
      ],
      "name": "DidUpdated",
      "type": "event"
    },
    {
      "anonymous": false,
      "inputs": [
        {
          "indexed": false,
          "internalType": "address",
          "name": "newOwner",
          "type": "address"
        }
      ],
      "name": "TransferOwnership",
      "type": "event"
    },
    {
      "inputs": [],
      "name": "initialize",
      "outputs": [],
      "stateMutability": "nonpayable",
      "type": "function"
    },
    {
      "inputs": [
        {
          "internalType": "address",
          "name": "_newOwner",
          "type": "address"
        }
      ],
      "name": "transferOwnership",
      "outputs": [
        {
          "internalType": "string",
          "name": "",
          "type": "string"
        }
      ],
      "stateMutability": "nonpayable",
      "type": "function"
    },
    {
      "inputs": [],
      "name": "getOwner",
      "outputs": [
        {
          "internalType": "address",
          "name": "_owner",
          "type": "address"
        }
      ],
      "stateMutability": "view",
      "type": "function",
      "constant": true
    },
    {
      "inputs": [
        {
          "internalType": "address",
          "name": "_id",
          "type": "address"
        },
        {
          "internalType": "string",
          "name": "_doc",
          "type": "string"
        }
      ],
      "name": "createDID",
      "outputs": [
        {
          "internalType": "address",
          "name": "controller",
          "type": "address"
        },
        {
          "internalType": "uint256",
          "name": "created",
          "type": "uint256"
        },
        {
          "internalType": "uint256",
          "name": "updated",
          "type": "uint256"
        },
        {
          "internalType": "string",
          "name": "did_doc",
          "type": "string"
        }
      ],
      "stateMutability": "nonpayable",
      "type": "function"
    },
    {
      "inputs": [
        {
          "internalType": "address",
          "name": "_id",
          "type": "address"
        }
      ],
      "name": "getDID",
      "outputs": [
        {
          "internalType": "string",
          "name": "",
          "type": "string"
        }
      ],
      "stateMutability": "view",
      "type": "function",
      "constant": true
    },
    {
      "inputs": [],
      "name": "getTotalNumberOfDIDs",
      "outputs": [
        {
          "internalType": "uint256",
          "name": "_totalDIDs",
          "type": "uint256"
        },
        {
          "internalType": "uint256",
          "name": "_activeDIDs",
          "type": "uint256"
        }
      ],
      "stateMutability": "view",
      "type": "function",
      "constant": true
    },
    {
      "inputs": [],
      "name": "getTotalNumberOfDeletedDIDs",
      "outputs": [
        {
          "internalType": "uint256",
          "name": "_deletedDID",
          "type": "uint256"
        }
      ],
      "stateMutability": "view",
      "type": "function",
      "constant": true
    },
    {
      "inputs": [
        {
          "internalType": "uint256",
          "name": "_index",
          "type": "uint256"
        }
      ],
      "name": "getDIDByIndex",
      "outputs": [
        {
          "internalType": "address",
          "name": "_did",
          "type": "address"
        }
      ],
      "stateMutability": "view",
      "type": "function",
      "constant": true
    },
    {
      "inputs": [
        {
          "internalType": "address",
          "name": "_id",
          "type": "address"
        },
        {
          "internalType": "string",
          "name": "_doc",
          "type": "string"
        }
      ],
      "name": "updateDID",
      "outputs": [
        {
          "internalType": "address",
          "name": "controller",
          "type": "address"
        },
        {
          "internalType": "uint256",
          "name": "created",
          "type": "uint256"
        },
        {
          "internalType": "uint256",
          "name": "updated",
          "type": "uint256"
        },
        {
          "internalType": "string",
          "name": "did_doc",
          "type": "string"
        }
      ],
      "stateMutability": "nonpayable",
      "type": "function"
    },
    {
      "inputs": [
        {
          "internalType": "address",
          "name": "_id",
          "type": "address"
        }
      ],
      "name": "deleteDID",
      "outputs": [],
      "stateMutability": "nonpayable",
      "type": "function"
    }
  ],
  "bytecode": "0x608060405234801561001057600080fd5b50611949806100206000396000f3fe608060405234801561001057600080fd5b506004361061009e5760003560e01c8063893d20e811610066578063893d20e81461014d578063ae66a3261461016b578063c77e95531461018a578063f2fde38b146101ba578063f64e30b0146101ea5761009e565b8063167602d4146100a357806325f2ac62146100c157806363d61166146100f45780637f52e0a7146101275780638129fc1c14610143575b600080fd5b6100ab61021a565b6040516100b891906115f6565b60405180910390f35b6100db60048036038101906100d691906112fd565b6102b4565b6040516100eb9493929190611528565b60405180910390f35b61010e600480360381019061010991906112fd565b61062c565b60405161011e9493929190611528565b60405180910390f35b610141600480360381019061013c91906112d4565b610a48565b005b61014b610c67565b005b610155610d24565b60405161016291906114dd565b60405180910390f35b610173610d4e565b604051610181929190611611565b60405180910390f35b6101a4600480360381019061019f9190611351565b610dfc565b6040516101b191906114dd565b60405180910390f35b6101d460048036038101906101cf91906112d4565b610ec9565b6040516101e19190611574565b60405180910390f35b61020460048036038101906101ff91906112d4565b61108b565b6040516102119190611574565b60405180910390f35b6000600160009054906101000a900473ffffffffffffffffffffffffffffffffffffffff1673ffffffffffffffffffffffffffffffffffffffff163373ffffffffffffffffffffffffffffffffffffffff16146102ac576040517f08c379a00000000000000000000000000000000000000000000000000000000081526004016102a390611596565b60405180910390fd5b600254905090565b60008060006060853373ffffffffffffffffffffffffffffffffffffffff16600360008373ffffffffffffffffffffffffffffffffffffffff1673ffffffffffffffffffffffffffffffffffffffff16815260200190815260200160002060000160009054906101000a900473ffffffffffffffffffffffffffffffffffffffff1673ffffffffffffffffffffffffffffffffffffffff161461038c576040517f08c379a0000000000000000000000000000000000000000000000000000000008152600401610383906115d6565b60405180910390fd5b85600360008973ffffffffffffffffffffffffffffffffffffffff1673ffffffffffffffffffffffffffffffffffffffff16815260200190815260200160002060030190805190602001906103e292919061115f565b5042600360008973ffffffffffffffffffffffffffffffffffffffff1673ffffffffffffffffffffffffffffffffffffffff168152602001908152602001600020600201819055507f2312318cda72db25202ee216222e615408e4d11837ed3f089f89c86de702e696878760405161045b9291906114f8565b60405180910390a1600360008873ffffffffffffffffffffffffffffffffffffffff1673ffffffffffffffffffffffffffffffffffffffff16815260200190815260200160002060000160009054906101000a900473ffffffffffffffffffffffffffffffffffffffff16600360008973ffffffffffffffffffffffffffffffffffffffff1673ffffffffffffffffffffffffffffffffffffffff16815260200190815260200160002060010154600360008a73ffffffffffffffffffffffffffffffffffffffff1673ffffffffffffffffffffffffffffffffffffffff16815260200190815260200160002060020154600360008b73ffffffffffffffffffffffffffffffffffffffff1673ffffffffffffffffffffffffffffffffffffffff16815260200190815260200160002060030180805461059a906117bf565b80601f01602080910402602001604051908101604052809291908181526020018280546105c6906117bf565b80156106135780601f106105e857610100808354040283529160200191610613565b820191906000526020600020905b8154815290600101906020018083116105f657829003601f168201915b5050505050905094509450945094505092959194509250565b6000806000606033600360008873ffffffffffffffffffffffffffffffffffffffff1673ffffffffffffffffffffffffffffffffffffffff16815260200190815260200160002060000160006101000a81548173ffffffffffffffffffffffffffffffffffffffff021916908373ffffffffffffffffffffffffffffffffffffffff16021790555042600360008873ffffffffffffffffffffffffffffffffffffffff1673ffffffffffffffffffffffffffffffffffffffff1681526020019081526020016000206001018190555042600360008873ffffffffffffffffffffffffffffffffffffffff1673ffffffffffffffffffffffffffffffffffffffff1681526020019081526020016000206002018190555084600360008873ffffffffffffffffffffffffffffffffffffffff1673ffffffffffffffffffffffffffffffffffffffff168152602001908152602001600020600301908051906020019061079892919061115f565b5033600460008054815260200190815260200160002060006101000a81548173ffffffffffffffffffffffffffffffffffffffff021916908373ffffffffffffffffffffffffffffffffffffffff160217905550600054600560008873ffffffffffffffffffffffffffffffffffffffff1673ffffffffffffffffffffffffffffffffffffffff16815260200190815260200160002081905550600160005461084191906116b7565b6000819055507ff62ed34d06386344717282b704861a00fb3ee41805873a1db48f7c7d1ae532da86866040516108789291906114f8565b60405180910390a1600360008773ffffffffffffffffffffffffffffffffffffffff1673ffffffffffffffffffffffffffffffffffffffff16815260200190815260200160002060000160009054906101000a900473ffffffffffffffffffffffffffffffffffffffff16600360008873ffffffffffffffffffffffffffffffffffffffff1673ffffffffffffffffffffffffffffffffffffffff16815260200190815260200160002060010154600360008973ffffffffffffffffffffffffffffffffffffffff1673ffffffffffffffffffffffffffffffffffffffff16815260200190815260200160002060020154600360008a73ffffffffffffffffffffffffffffffffffffffff1673ffffffffffffffffffffffffffffffffffffffff1681526020019081526020016000206003018080546109b7906117bf565b80601f01602080910402602001604051908101604052809291908181526020018280546109e3906117bf565b8015610a305780601f10610a0557610100808354040283529160200191610a30565b820191906000526020600020905b815481529060010190602001808311610a1357829003601f168201915b50505050509050935093509350935092959194509250565b803373ffffffffffffffffffffffffffffffffffffffff16600360008373ffffffffffffffffffffffffffffffffffffffff1673ffffffffffffffffffffffffffffffffffffffff16815260200190815260200160002060000160009054906101000a900473ffffffffffffffffffffffffffffffffffffffff1673ffffffffffffffffffffffffffffffffffffffff1614610b19576040517f08c379a0000000000000000000000000000000000000000000000000000000008152600401610b10906115d6565b60405180910390fd5b6001600254610b2891906116b7565b600281905550600360008373ffffffffffffffffffffffffffffffffffffffff1673ffffffffffffffffffffffffffffffffffffffff168152602001908152602001600020600080820160006101000a81549073ffffffffffffffffffffffffffffffffffffffff021916905560018201600090556002820160009055600382016000610bb591906111e5565b505060046000600560008573ffffffffffffffffffffffffffffffffffffffff1673ffffffffffffffffffffffffffffffffffffffff16815260200190815260200160002054815260200190815260200160002060006101000a81549073ffffffffffffffffffffffffffffffffffffffff02191690557fe4d523d170738efb59edc0ff55d3114dc890232222e6ff1bdeb52ddd0ed7e2a982604051610c5b91906114dd565b60405180910390a15050565b600660009054906101000a900460ff1615610cb7576040517f08c379a0000000000000000000000000000000000000000000000000000000008152600401610cae906115b6565b60405180910390fd5b6001600660006101000a81548160ff02191690831515021790555033600160006101000a81548173ffffffffffffffffffffffffffffffffffffffff021916908373ffffffffffffffffffffffffffffffffffffffff160217905550600080819055506000600281905550565b6000600160009054906101000a900473ffffffffffffffffffffffffffffffffffffffff16905090565b600080600160009054906101000a900473ffffffffffffffffffffffffffffffffffffffff1673ffffffffffffffffffffffffffffffffffffffff163373ffffffffffffffffffffffffffffffffffffffff1614610de1576040517f08c379a0000000000000000000000000000000000000000000000000000000008152600401610dd890611596565b60405180910390fd5b600054600254600054610df4919061170d565b915091509091565b6000600160009054906101000a900473ffffffffffffffffffffffffffffffffffffffff1673ffffffffffffffffffffffffffffffffffffffff163373ffffffffffffffffffffffffffffffffffffffff1614610e8e576040517f08c379a0000000000000000000000000000000000000000000000000000000008152600401610e8590611596565b60405180910390fd5b6004600083815260200190815260200160002060009054906101000a900473ffffffffffffffffffffffffffffffffffffffff169050919050565b6060600160009054906101000a900473ffffffffffffffffffffffffffffffffffffffff1673ffffffffffffffffffffffffffffffffffffffff163373ffffffffffffffffffffffffffffffffffffffff1614610f5b576040517f08c379a0000000000000000000000000000000000000000000000000000000008152600401610f5290611596565b60405180910390fd5b8173ffffffffffffffffffffffffffffffffffffffff16600160009054906101000a900473ffffffffffffffffffffffffffffffffffffffff1673ffffffffffffffffffffffffffffffffffffffff161461106a5781600160006101000a81548173ffffffffffffffffffffffffffffffffffffffff021916908373ffffffffffffffffffffffffffffffffffffffff1602179055507fcfaaa26691e16e66e73290fc725eee1a6b4e0e693a1640484937aac25ffb55a4600160009054906101000a900473ffffffffffffffffffffffffffffffffffffffff1660405161104291906114dd565b60405180910390a16040518060600160405280602281526020016118be602291399050611086565b6040518060600160405280603481526020016118e06034913990505b919050565b6060600360008373ffffffffffffffffffffffffffffffffffffffff1673ffffffffffffffffffffffffffffffffffffffff16815260200190815260200160002060030180546110da906117bf565b80601f0160208091040260200160405190810160405280929190818152602001828054611106906117bf565b80156111535780601f1061112857610100808354040283529160200191611153565b820191906000526020600020905b81548152906001019060200180831161113657829003601f168201915b50505050509050919050565b82805461116b906117bf565b90600052602060002090601f01602090048101928261118d57600085556111d4565b82601f106111a657805160ff19168380011785556111d4565b828001600101855582156111d4579182015b828111156111d35782518255916020019190600101906111b8565b5b5090506111e19190611225565b5090565b5080546111f1906117bf565b6000825580601f106112035750611222565b601f0160209004906000526020600020908101906112219190611225565b5b50565b5b8082111561123e576000816000905550600101611226565b5090565b60006112556112508461166b565b61163a565b90508281526020810184848401111561126d57600080fd5b61127884828561177d565b509392505050565b60008135905061128f8161188f565b92915050565b600082601f8301126112a657600080fd5b81356112b6848260208601611242565b91505092915050565b6000813590506112ce816118a6565b92915050565b6000602082840312156112e657600080fd5b60006112f484828501611280565b91505092915050565b6000806040838503121561131057600080fd5b600061131e85828601611280565b925050602083013567ffffffffffffffff81111561133b57600080fd5b61134785828601611295565b9150509250929050565b60006020828403121561136357600080fd5b6000611371848285016112bf565b91505092915050565b61138381611741565b82525050565b60006113948261169b565b61139e81856116a6565b93506113ae81856020860161178c565b6113b78161187e565b840191505092915050565b60006113cf601f836116a6565b91507f6d6573736167652073656e646572206973206e6f7420746865206f776e6572006000830152602082019050919050565b600061140f602e836116a6565b91507f436f6e747261637420696e7374616e63652068617320616c726561647920626560008301527f656e20696e697469616c697a65640000000000000000000000000000000000006020830152604082019050919050565b60006114756033836116a6565b91507f6d6573736167652073656e646572206973206e6f742074686520636f6e74726f60008301527f6c6c6572206f66207468652044494420446f63000000000000000000000000006020830152604082019050919050565b6114d781611773565b82525050565b60006020820190506114f2600083018461137a565b92915050565b600060408201905061150d600083018561137a565b818103602083015261151f8184611389565b90509392505050565b600060808201905061153d600083018761137a565b61154a60208301866114ce565b61155760408301856114ce565b81810360608301526115698184611389565b905095945050505050565b6000602082019050818103600083015261158e8184611389565b905092915050565b600060208201905081810360008301526115af816113c2565b9050919050565b600060208201905081810360008301526115cf81611402565b9050919050565b600060208201905081810360008301526115ef81611468565b9050919050565b600060208201905061160b60008301846114ce565b92915050565b600060408201905061162660008301856114ce565b61163360208301846114ce565b9392505050565b6000604051905081810181811067ffffffffffffffff821117156116615761166061184f565b5b8060405250919050565b600067ffffffffffffffff8211156116865761168561184f565b5b601f19601f8301169050602081019050919050565b600081519050919050565b600082825260208201905092915050565b60006116c282611773565b91506116cd83611773565b9250827fffffffffffffffffffffffffffffffffffffffffffffffffffffffffffffffff03821115611702576117016117f1565b5b828201905092915050565b600061171882611773565b915061172383611773565b925082821015611736576117356117f1565b5b828203905092915050565b600061174c82611753565b9050919050565b600073ffffffffffffffffffffffffffffffffffffffff82169050919050565b6000819050919050565b82818337600083830152505050565b60005b838110156117aa57808201518184015260208101905061178f565b838111156117b9576000848401525b50505050565b600060028204905060018216806117d757607f821691505b602082108114156117eb576117ea611820565b5b50919050565b7f4e487b7100000000000000000000000000000000000000000000000000000000600052601160045260246000fd5b7f4e487b7100000000000000000000000000000000000000000000000000000000600052602260045260246000fd5b7f4e487b7100000000000000000000000000000000000000000000000000000000600052604160045260246000fd5b6000601f19601f8301169050919050565b61189881611741565b81146118a357600080fd5b50565b6118af81611773565b81146118ba57600080fd5b5056fe4f776e657273686970207472616e73666572726564207375636365737366756c6c794e6577204f776e6572206164647265737320697320657175616c20746f206f726967696e616c206f776e65722061646472657373a26469706673582212207b1f0d7f0dea2730ed2e5c774a6b56d14927505e17ed99db276c8f06a4fe51a664736f6c63430008000033",
  "immutableReferences": {},
  "source": "/**\n *Submitted for verification at polygonscan.com on 2021-12-29\n*/\n\n//SPDX-License-Identifier: MIT\npragma solidity ^0.8.0;\n// import \"@openzeppelin/contracts-upgradeable/proxy/utils/Initializable.sol\";\n\n/**\n *@title PolygonDidRegistry\n *@dev Smart Contract for Polygon DID Method\n */\ncontract PolygonDidRegistry {\n    uint256 totalDIDs;\n    address owner;\n    uint256 deletedDIDs;\n    struct PolyDID {\n        address controller;\n        uint256 created;\n        uint256 updated;\n        string did_doc;\n    }\n\n    modifier onlyController(address _id) {\n        require(\n            did[_id].controller == msg.sender, \"message sender is not the controller of the DID Doc\"\n        );\n        _;\n    }\n    mapping(address => PolyDID) did;\n    mapping(uint256 => address) activeDIDs;\n    mapping(address => uint256) deleteDIDs;\n    event DidCreated(address id, string doc);\n    event DidUpdated(address id, string doc);\n    event DidDeleted(address id);\n    event TransferOwnership(address newOwner);\n    bool private initialized;\n   \n\n    /**\n    *@dev initializes the ownership of contract\n    **/\n\n    function initialize() public {\n        require(!initialized, \"Contract instance has already been initialized\");\n        initialized = true;\n        owner = msg.sender;\n        totalDIDs = 0;\n        deletedDIDs = 0;\n    }\n\n    modifier onlyOwner(){\n        require( msg.sender == owner, \"message sender is not the owner\");\n        _;\n    }\n\n    /**\n    *@dev transfer the ownership of contract\n    *@param _newOwner - Address of the new owner to whom the ownership needs to be passed\n    **/\n\n    function transferOwnership(address _newOwner)public onlyOwner() returns (string memory){\n        if(owner != _newOwner){\n            owner = _newOwner;\n            emit TransferOwnership(owner);\n            return (\"Ownership transferred successfully\");\n        }\n        else {\n            return (\"New Owner address is equal to original owner address\");\n        }\n    }\n\n    /**\n     *@dev Reads contract owner from chain\n     */\n\n    function getOwner() public view returns (address _owner){\n        return owner;\n    }\n\n    /**\n     *@dev Register a new DID\n     *@param _id - Address that will refer the DID doc\n     *@param _doc - A string object that holds the DID Doc\n     */\n\n    function createDID(address _id, string memory _doc)\n        public\n        returns (address controller, uint256 created, uint256 updated, string memory did_doc)\n    {\n        did[_id].controller = msg.sender;\n        did[_id].created = block.timestamp;\n        did[_id].updated = block.timestamp;\n        did[_id].did_doc = _doc;\n        activeDIDs[totalDIDs] = msg.sender;\n        deleteDIDs[_id] = totalDIDs;\n        totalDIDs = totalDIDs+1;\n        emit DidCreated(_id, _doc);\n        return (did[_id].controller, did[_id].created, did[_id].updated, did[_id].did_doc);\n    }\n\n    /**\n     *@dev Reads DID Doc from Chain\n     *@param _id - Address that refers to the DID doc position\n     */\n\n    function getDID(address _id) public view returns (string memory) {\n        return did[_id].did_doc;\n    }\n\n    /**\n     *@dev Reads total number of DIDs from Chain\n    */\n\n    function getTotalNumberOfDIDs()public onlyOwner() view returns (uint256 _totalDIDs, uint256 _activeDIDs){\n        return (totalDIDs, (totalDIDs-deletedDIDs));\n    }\n\n    /**\n     *@dev Reads total number of DIDs deleted from Chain\n    */\n\n    function getTotalNumberOfDeletedDIDs()public onlyOwner() view returns (uint256 _deletedDID){\n        return deletedDIDs;\n    }\n\n    /**\n     *@dev Reads one DID at a time from Chain based on index\n     *@param _index - Uint256 type variable that refers to the DID position \n     *@return _did - returns the address associated with DID URI, if the DID is not deleted, else returns empty string.\n     */\n\n    function getDIDByIndex(uint256 _index)public onlyOwner() view returns (address _did){\n        return activeDIDs[_index];\n    }\n\n    /**\n     *@dev To Update the DID doc\n     *@param _id - Address that refers to the DID doc\n     *@param _doc - A String that holds the DID doc\n     */\n\n    function updateDID(address _id, string memory _doc)\n        public\n        onlyController(_id) returns(address controller, uint256 created, uint256 updated, string memory did_doc)\n    {\n        did[_id].did_doc = _doc;\n        did[_id].updated = block.timestamp;\n        emit DidUpdated(_id, _doc);\n        return (did[_id].controller, did[_id].created, did[_id].updated, did[_id].did_doc);\n    }\n\n    /**\n     *@dev To delete a DID from chain\n     *@param _id - Address that refers to the DID doc that need to be deleted\n     */\n\n    function deleteDID(address _id) public onlyController(_id) {\n        deletedDIDs = deletedDIDs +1;\n        delete did[_id];\n        delete activeDIDs[deleteDIDs[_id]];\n        emit DidDeleted(_id);\n    }\n}\n",
  "sourcePath": "/home/user/PolygonDEP/polygon-did-registry-contract/contracts/PolygonDidRegistry.sol",
  "compiler": {
    "name": "solc",
    "version": "0.8.0+commit.c7dfd78e.Emscripten.clang"
  },
  "schemaVersion": "3.4.8",
  "updatedAt": "2022-08-17T15:48:55.383Z",
  "networkType": "ethereum",
  "devdoc": {
    "details": "Smart Contract for Polygon DID Method",
    "kind": "dev",
    "methods": {
      "createDID(address,string)": {
        "details": "Register a new DID",
        "params": {
          "_doc": "- A string object that holds the DID Doc",
          "_id": "- Address that will refer the DID doc"
        }
      },
      "deleteDID(address)": {
        "details": "To delete a DID from chain",
        "params": {
          "_id": "- Address that refers to the DID doc that need to be deleted"
        }
      },
      "getDID(address)": {
        "details": "Reads DID Doc from Chain",
        "params": {
          "_id": "- Address that refers to the DID doc position"
        }
      },
      "getDIDByIndex(uint256)": {
        "details": "Reads one DID at a time from Chain based on index",
        "params": {
          "_index": "- Uint256 type variable that refers to the DID position "
        },
        "returns": {
          "_did": "- returns the address associated with DID URI, if the DID is not deleted, else returns empty string."
        }
      },
      "getOwner()": {
        "details": "Reads contract owner from chain"
      },
      "getTotalNumberOfDIDs()": {
        "details": "Reads total number of DIDs from Chain"
      },
      "getTotalNumberOfDeletedDIDs()": {
        "details": "Reads total number of DIDs deleted from Chain"
      },
      "initialize()": {
        "details": "initializes the ownership of contract*"
      },
      "transferOwnership(address)": {
        "details": "transfer the ownership of contract",
        "params": {
          "_newOwner": "- Address of the new owner to whom the ownership needs to be passed*"
        }
      },
      "updateDID(address,string)": {
        "details": "To Update the DID doc",
        "params": {
          "_doc": "- A String that holds the DID doc",
          "_id": "- Address that refers to the DID doc"
        }
      }
    },
    "title": "PolygonDidRegistry",
    "version": 1
  },
  "userdoc": {
    "kind": "user",
    "methods": {},
    "version": 1
  }
}